{
	"FundMe.sol": {
		"FundMe": {
			"abi": [
				{
					"inputs": [],
					"name": "fund",
					"outputs": [],
					"stateMutability": "payable",
					"type": "function"
				},
				{
					"inputs": [],
					"name": "getConversionRate",
					"outputs": [],
					"stateMutability": "nonpayable",
					"type": "function"
				},
				{
					"inputs": [],
					"name": "getPrice",
					"outputs": [],
					"stateMutability": "nonpayable",
					"type": "function"
				},
				{
					"inputs": [],
					"name": "getVersion",
					"outputs": [
						{
							"internalType": "uint256",
							"name": "",
							"type": "uint256"
						}
					],
					"stateMutability": "view",
					"type": "function"
				}
			],
			"devdoc": {
				"kind": "dev",
				"methods": {},
				"version": 1
			},
			"evm": {
				"assembly": "    /* \"FundMe.sol\":216:1157  contract FundMe {... */\n  mstore(0x40, 0x80)\n    /* \"FundMe.sol\":259:261  50 */\n  0x32\n    /* \"FundMe.sol\":238:261  uint256 minimumUsd = 50 */\n  0x00\n  sstore\n    /* \"FundMe.sol\":216:1157  contract FundMe {... */\n  callvalue\n  dup1\n  iszero\n  tag_1\n  jumpi\n  0x00\n  dup1\n  revert\ntag_1:\n  pop\n  dataSize(sub_0)\n  dup1\n  dataOffset(sub_0)\n  0x00\n  codecopy\n  0x00\n  return\nstop\n\nsub_0: assembly {\n        /* \"FundMe.sol\":216:1157  contract FundMe {... */\n      mstore(0x40, 0x80)\n      jumpi(tag_1, lt(calldatasize, 0x04))\n      shr(0xe0, calldataload(0x00))\n      dup1\n      0x0d8e6e2c\n      eq\n      tag_2\n      jumpi\n      dup1\n      0x98d5fdca\n      eq\n      tag_3\n      jumpi\n      dup1\n      0xb60d4288\n      eq\n      tag_4\n      jumpi\n      dup1\n      0xf36089ec\n      eq\n      tag_5\n      jumpi\n    tag_1:\n      0x00\n      dup1\n      revert\n        /* \"FundMe.sol\":860:1064  function getVersion() public view returns (uint256) {... */\n    tag_2:\n      callvalue\n      dup1\n      iszero\n      tag_6\n      jumpi\n      0x00\n      dup1\n      revert\n    tag_6:\n      pop\n      tag_7\n      tag_8\n      jump\t// in\n    tag_7:\n      mload(0x40)\n      tag_9\n      swap2\n      swap1\n      tag_10\n      jump\t// in\n    tag_9:\n      mload(0x40)\n      dup1\n      swap2\n      sub\n      swap1\n      return\n        /* \"FundMe.sol\":498:854  function getPrice() public {... */\n    tag_3:\n      callvalue\n      dup1\n      iszero\n      tag_11\n      jumpi\n      0x00\n      dup1\n      revert\n    tag_11:\n      pop\n      tag_12\n      tag_13\n      jump\t// in\n    tag_12:\n      stop\n        /* \"FundMe.sol\":270:492  function fund() public payable {... */\n    tag_4:\n      tag_14\n      tag_15\n      jump\t// in\n    tag_14:\n      stop\n        /* \"FundMe.sol\":1070:1114  function getConversionRate() public {... */\n    tag_5:\n      callvalue\n      dup1\n      iszero\n      tag_16\n      jumpi\n      0x00\n      dup1\n      revert\n    tag_16:\n      pop\n      tag_17\n      tag_18\n      jump\t// in\n    tag_17:\n      stop\n        /* \"FundMe.sol\":860:1064  function getVersion() public view returns (uint256) {... */\n    tag_8:\n        /* \"FundMe.sol\":903:910  uint256 */\n      0x00\n        /* \"FundMe.sol\":922:953  AggregatorV3Interface priceFeed */\n      dup1\n        /* \"FundMe.sol\":978:1020  0x8A753747A1Fa494EC906cE90E9f37563A8AF630e */\n      0x8a753747a1fa494ec906ce90e9f37563a8af630e\n        /* \"FundMe.sol\":922:1021  AggregatorV3Interface priceFeed = AggregatorV3Interface(0x8A753747A1Fa494EC906cE90E9f37563A8AF630e) */\n      swap1\n      pop\n        /* \"FundMe.sol\":1038:1047  priceFeed */\n      dup1\n        /* \"FundMe.sol\":1038:1055  priceFeed.version */\n      0xffffffffffffffffffffffffffffffffffffffff\n      and\n      0x54fd4d50\n        /* \"FundMe.sol\":1038:1057  priceFeed.version() */\n      mload(0x40)\n      dup2\n      0xffffffff\n      and\n      0xe0\n      shl\n      dup2\n      mstore\n      0x04\n      add\n      0x20\n      mload(0x40)\n      dup1\n      dup4\n      sub\n      dup2\n      dup7\n      dup1\n      extcodesize\n      iszero\n      dup1\n      iszero\n      tag_20\n      jumpi\n      0x00\n      dup1\n      revert\n    tag_20:\n      pop\n      gas\n      staticcall\n      iszero\n      dup1\n      iszero\n      tag_22\n      jumpi\n      returndatasize\n      0x00\n      dup1\n      returndatacopy\n      revert(0x00, returndatasize)\n    tag_22:\n      pop\n      pop\n      pop\n      pop\n      mload(0x40)\n      returndatasize\n      not(0x1f)\n      0x1f\n      dup3\n      add\n      and\n      dup3\n      add\n      dup1\n      0x40\n      mstore\n      pop\n      dup2\n      add\n      swap1\n      tag_23\n      swap2\n      swap1\n      tag_24\n      jump\t// in\n    tag_23:\n        /* \"FundMe.sol\":1031:1057  return priceFeed.version() */\n      swap2\n      pop\n      pop\n        /* \"FundMe.sol\":860:1064  function getVersion() public view returns (uint256) {... */\n      swap1\n      jump\t// out\n        /* \"FundMe.sol\":498:854  function getPrice() public {... */\n    tag_13:\n        /* \"FundMe.sol\":645:676  AggregatorV3Interface priceFeed */\n      0x00\n        /* \"FundMe.sol\":701:743  0x8A753747A1Fa494EC906cE90E9f37563A8AF630e */\n      0x8a753747a1fa494ec906ce90e9f37563a8af630e\n        /* \"FundMe.sol\":645:744  AggregatorV3Interface priceFeed = AggregatorV3Interface(0x8A753747A1Fa494EC906cE90E9f37563A8AF630e) */\n      swap1\n      pop\n        /* \"FundMe.sol\":755:764  int price */\n      0x00\n        /* \"FundMe.sol\":771:780  priceFeed */\n      dup2\n        /* \"FundMe.sol\":771:796  priceFeed.latestRoundData */\n      0xffffffffffffffffffffffffffffffffffffffff\n      and\n      0xfeaf968c\n        /* \"FundMe.sol\":771:798  priceFeed.latestRoundData() */\n      mload(0x40)\n      dup2\n      0xffffffff\n      and\n      0xe0\n      shl\n      dup2\n      mstore\n      0x04\n      add\n      0xa0\n      mload(0x40)\n      dup1\n      dup4\n      sub\n      dup2\n      dup7\n      dup1\n      extcodesize\n      iszero\n      dup1\n      iszero\n      tag_26\n      jumpi\n      0x00\n      dup1\n      revert\n    tag_26:\n      pop\n      gas\n      staticcall\n      iszero\n      dup1\n      iszero\n      tag_28\n      jumpi\n      returndatasize\n      0x00\n      dup1\n      returndatacopy\n      revert(0x00, returndatasize)\n    tag_28:\n      pop\n      pop\n      pop\n      pop\n      mload(0x40)\n      returndatasize\n      not(0x1f)\n      0x1f\n      dup3\n      add\n      and\n      dup3\n      add\n      dup1\n      0x40\n      mstore\n      pop\n      dup2\n      add\n      swap1\n      tag_29\n      swap2\n      swap1\n      tag_30\n      jump\t// in\n    tag_29:\n        /* \"FundMe.sol\":753:798  (,int price,,,) = priceFeed.latestRoundData() */\n      pop\n      pop\n      pop\n      swap2\n      pop\n      pop\n        /* \"FundMe.sol\":525:854  {... */\n      pop\n      pop\n        /* \"FundMe.sol\":498:854  function getPrice() public {... */\n      jump\t// out\n        /* \"FundMe.sol\":270:492  function fund() public payable {... */\n    tag_15:\n        /* \"FundMe.sol\":452:462  minimumUsd */\n      sload(0x00)\n        /* \"FundMe.sol\":439:448  msg.value */\n      callvalue\n        /* \"FundMe.sol\":439:462  msg.value >= minimumUsd */\n      lt\n      iszero\n        /* \"FundMe.sol\":430:485  require (msg.value >= minimumUsd, \"Didn't send enough\") */\n      tag_32\n      jumpi\n      mload(0x40)\n      0x08c379a000000000000000000000000000000000000000000000000000000000\n      dup2\n      mstore\n      0x04\n      add\n      tag_33\n      swap1\n      tag_34\n      jump\t// in\n    tag_33:\n      mload(0x40)\n      dup1\n      swap2\n      sub\n      swap1\n      revert\n    tag_32:\n        /* \"FundMe.sol\":270:492  function fund() public payable {... */\n      jump\t// out\n        /* \"FundMe.sol\":1070:1114  function getConversionRate() public {... */\n    tag_18:\n      jump\t// out\n        /* \"#utility.yul\":7:148   */\n    tag_37:\n        /* \"#utility.yul\":63:68   */\n      0x00\n        /* \"#utility.yul\":94:100   */\n      dup2\n        /* \"#utility.yul\":88:101   */\n      mload\n        /* \"#utility.yul\":79:101   */\n      swap1\n      pop\n        /* \"#utility.yul\":110:142   */\n      tag_39\n        /* \"#utility.yul\":136:141   */\n      dup2\n        /* \"#utility.yul\":110:142   */\n      tag_40\n      jump\t// in\n    tag_39:\n        /* \"#utility.yul\":7:148   */\n      swap3\n      swap2\n      pop\n      pop\n      jump\t// out\n        /* \"#utility.yul\":154:297   */\n    tag_41:\n        /* \"#utility.yul\":211:216   */\n      0x00\n        /* \"#utility.yul\":242:248   */\n      dup2\n        /* \"#utility.yul\":236:249   */\n      mload\n        /* \"#utility.yul\":227:249   */\n      swap1\n      pop\n        /* \"#utility.yul\":258:291   */\n      tag_43\n        /* \"#utility.yul\":285:290   */\n      dup2\n        /* \"#utility.yul\":258:291   */\n      tag_44\n      jump\t// in\n    tag_43:\n        /* \"#utility.yul\":154:297   */\n      swap3\n      swap2\n      pop\n      pop\n      jump\t// out\n        /* \"#utility.yul\":303:444   */\n    tag_45:\n        /* \"#utility.yul\":359:364   */\n      0x00\n        /* \"#utility.yul\":390:396   */\n      dup2\n        /* \"#utility.yul\":384:397   */\n      mload\n        /* \"#utility.yul\":375:397   */\n      swap1\n      pop\n        /* \"#utility.yul\":406:438   */\n      tag_47\n        /* \"#utility.yul\":432:437   */\n      dup2\n        /* \"#utility.yul\":406:438   */\n      tag_48\n      jump\t// in\n    tag_47:\n        /* \"#utility.yul\":303:444   */\n      swap3\n      swap2\n      pop\n      pop\n      jump\t// out\n        /* \"#utility.yul\":450:801   */\n    tag_24:\n        /* \"#utility.yul\":520:526   */\n      0x00\n        /* \"#utility.yul\":569:571   */\n      0x20\n        /* \"#utility.yul\":557:566   */\n      dup3\n        /* \"#utility.yul\":548:555   */\n      dup5\n        /* \"#utility.yul\":544:567   */\n      sub\n        /* \"#utility.yul\":540:572   */\n      slt\n        /* \"#utility.yul\":537:656   */\n      iszero\n      tag_50\n      jumpi\n        /* \"#utility.yul\":575:654   */\n      tag_51\n      tag_52\n      jump\t// in\n    tag_51:\n        /* \"#utility.yul\":537:656   */\n    tag_50:\n        /* \"#utility.yul\":695:696   */\n      0x00\n        /* \"#utility.yul\":720:784   */\n      tag_53\n        /* \"#utility.yul\":776:783   */\n      dup5\n        /* \"#utility.yul\":767:773   */\n      dup3\n        /* \"#utility.yul\":756:765   */\n      dup6\n        /* \"#utility.yul\":752:774   */\n      add\n        /* \"#utility.yul\":720:784   */\n      tag_41\n      jump\t// in\n    tag_53:\n        /* \"#utility.yul\":710:784   */\n      swap2\n      pop\n        /* \"#utility.yul\":666:794   */\n      pop\n        /* \"#utility.yul\":450:801   */\n      swap3\n      swap2\n      pop\n      pop\n      jump\t// out\n        /* \"#utility.yul\":807:1778   */\n    tag_30:\n        /* \"#utility.yul\":910:916   */\n      0x00\n        /* \"#utility.yul\":918:924   */\n      dup1\n        /* \"#utility.yul\":926:932   */\n      0x00\n        /* \"#utility.yul\":934:940   */\n      dup1\n        /* \"#utility.yul\":942:948   */\n      0x00\n        /* \"#utility.yul\":991:994   */\n      0xa0\n        /* \"#utility.yul\":979:988   */\n      dup7\n        /* \"#utility.yul\":970:977   */\n      dup9\n        /* \"#utility.yul\":966:989   */\n      sub\n        /* \"#utility.yul\":962:995   */\n      slt\n        /* \"#utility.yul\":959:1079   */\n      iszero\n      tag_55\n      jumpi\n        /* \"#utility.yul\":998:1077   */\n      tag_56\n      tag_52\n      jump\t// in\n    tag_56:\n        /* \"#utility.yul\":959:1079   */\n    tag_55:\n        /* \"#utility.yul\":1118:1119   */\n      0x00\n        /* \"#utility.yul\":1143:1206   */\n      tag_57\n        /* \"#utility.yul\":1198:1205   */\n      dup9\n        /* \"#utility.yul\":1189:1195   */\n      dup3\n        /* \"#utility.yul\":1178:1187   */\n      dup10\n        /* \"#utility.yul\":1174:1196   */\n      add\n        /* \"#utility.yul\":1143:1206   */\n      tag_45\n      jump\t// in\n    tag_57:\n        /* \"#utility.yul\":1133:1206   */\n      swap6\n      pop\n        /* \"#utility.yul\":1089:1216   */\n      pop\n        /* \"#utility.yul\":1255:1257   */\n      0x20\n        /* \"#utility.yul\":1281:1344   */\n      tag_58\n        /* \"#utility.yul\":1336:1343   */\n      dup9\n        /* \"#utility.yul\":1327:1333   */\n      dup3\n        /* \"#utility.yul\":1316:1325   */\n      dup10\n        /* \"#utility.yul\":1312:1334   */\n      add\n        /* \"#utility.yul\":1281:1344   */\n      tag_37\n      jump\t// in\n    tag_58:\n        /* \"#utility.yul\":1271:1344   */\n      swap5\n      pop\n        /* \"#utility.yul\":1226:1354   */\n      pop\n        /* \"#utility.yul\":1393:1395   */\n      0x40\n        /* \"#utility.yul\":1419:1483   */\n      tag_59\n        /* \"#utility.yul\":1475:1482   */\n      dup9\n        /* \"#utility.yul\":1466:1472   */\n      dup3\n        /* \"#utility.yul\":1455:1464   */\n      dup10\n        /* \"#utility.yul\":1451:1473   */\n      add\n        /* \"#utility.yul\":1419:1483   */\n      tag_41\n      jump\t// in\n    tag_59:\n        /* \"#utility.yul\":1409:1483   */\n      swap4\n      pop\n        /* \"#utility.yul\":1364:1493   */\n      pop\n        /* \"#utility.yul\":1532:1534   */\n      0x60\n        /* \"#utility.yul\":1558:1622   */\n      tag_60\n        /* \"#utility.yul\":1614:1621   */\n      dup9\n        /* \"#utility.yul\":1605:1611   */\n      dup3\n        /* \"#utility.yul\":1594:1603   */\n      dup10\n        /* \"#utility.yul\":1590:1612   */\n      add\n        /* \"#utility.yul\":1558:1622   */\n      tag_41\n      jump\t// in\n    tag_60:\n        /* \"#utility.yul\":1548:1622   */\n      swap3\n      pop\n        /* \"#utility.yul\":1503:1632   */\n      pop\n        /* \"#utility.yul\":1671:1674   */\n      0x80\n        /* \"#utility.yul\":1698:1761   */\n      tag_61\n        /* \"#utility.yul\":1753:1760   */\n      dup9\n        /* \"#utility.yul\":1744:1750   */\n      dup3\n        /* \"#utility.yul\":1733:1742   */\n      dup10\n        /* \"#utility.yul\":1729:1751   */\n      add\n        /* \"#utility.yul\":1698:1761   */\n      tag_45\n      jump\t// in\n    tag_61:\n        /* \"#utility.yul\":1688:1761   */\n      swap2\n      pop\n        /* \"#utility.yul\":1642:1771   */\n      pop\n        /* \"#utility.yul\":807:1778   */\n      swap3\n      swap6\n      pop\n      swap3\n      swap6\n      swap1\n      swap4\n      pop\n      jump\t// out\n        /* \"#utility.yul\":1784:2150   */\n    tag_62:\n        /* \"#utility.yul\":1926:1929   */\n      0x00\n        /* \"#utility.yul\":1947:2014   */\n      tag_64\n        /* \"#utility.yul\":2011:2013   */\n      0x12\n        /* \"#utility.yul\":2006:2009   */\n      dup4\n        /* \"#utility.yul\":1947:2014   */\n      tag_65\n      jump\t// in\n    tag_64:\n        /* \"#utility.yul\":1940:2014   */\n      swap2\n      pop\n        /* \"#utility.yul\":2023:2116   */\n      tag_66\n        /* \"#utility.yul\":2112:2115   */\n      dup3\n        /* \"#utility.yul\":2023:2116   */\n      tag_67\n      jump\t// in\n    tag_66:\n        /* \"#utility.yul\":2141:2143   */\n      0x20\n        /* \"#utility.yul\":2136:2139   */\n      dup3\n        /* \"#utility.yul\":2132:2144   */\n      add\n        /* \"#utility.yul\":2125:2144   */\n      swap1\n      pop\n        /* \"#utility.yul\":1784:2150   */\n      swap2\n      swap1\n      pop\n      jump\t// out\n        /* \"#utility.yul\":2156:2274   */\n    tag_68:\n        /* \"#utility.yul\":2243:2267   */\n      tag_70\n        /* \"#utility.yul\":2261:2266   */\n      dup2\n        /* \"#utility.yul\":2243:2267   */\n      tag_71\n      jump\t// in\n    tag_70:\n        /* \"#utility.yul\":2238:2241   */\n      dup3\n        /* \"#utility.yul\":2231:2268   */\n      mstore\n        /* \"#utility.yul\":2156:2274   */\n      pop\n      pop\n      jump\t// out\n        /* \"#utility.yul\":2280:2699   */\n    tag_34:\n        /* \"#utility.yul\":2446:2450   */\n      0x00\n        /* \"#utility.yul\":2484:2486   */\n      0x20\n        /* \"#utility.yul\":2473:2482   */\n      dup3\n        /* \"#utility.yul\":2469:2487   */\n      add\n        /* \"#utility.yul\":2461:2487   */\n      swap1\n      pop\n        /* \"#utility.yul\":2533:2542   */\n      dup2\n        /* \"#utility.yul\":2527:2531   */\n      dup2\n        /* \"#utility.yul\":2523:2543   */\n      sub\n        /* \"#utility.yul\":2519:2520   */\n      0x00\n        /* \"#utility.yul\":2508:2517   */\n      dup4\n        /* \"#utility.yul\":2504:2521   */\n      add\n        /* \"#utility.yul\":2497:2544   */\n      mstore\n        /* \"#utility.yul\":2561:2692   */\n      tag_73\n        /* \"#utility.yul\":2687:2691   */\n      dup2\n        /* \"#utility.yul\":2561:2692   */\n      tag_62\n      jump\t// in\n    tag_73:\n        /* \"#utility.yul\":2553:2692   */\n      swap1\n      pop\n        /* \"#utility.yul\":2280:2699   */\n      swap2\n      swap1\n      pop\n      jump\t// out\n        /* \"#utility.yul\":2705:2927   */\n    tag_10:\n        /* \"#utility.yul\":2798:2802   */\n      0x00\n        /* \"#utility.yul\":2836:2838   */\n      0x20\n        /* \"#utility.yul\":2825:2834   */\n      dup3\n        /* \"#utility.yul\":2821:2839   */\n      add\n        /* \"#utility.yul\":2813:2839   */\n      swap1\n      pop\n        /* \"#utility.yul\":2849:2920   */\n      tag_75\n        /* \"#utility.yul\":2917:2918   */\n      0x00\n        /* \"#utility.yul\":2906:2915   */\n      dup4\n        /* \"#utility.yul\":2902:2919   */\n      add\n        /* \"#utility.yul\":2893:2899   */\n      dup5\n        /* \"#utility.yul\":2849:2920   */\n      tag_68\n      jump\t// in\n    tag_75:\n        /* \"#utility.yul\":2705:2927   */\n      swap3\n      swap2\n      pop\n      pop\n      jump\t// out\n        /* \"#utility.yul\":3014:3183   */\n    tag_65:\n        /* \"#utility.yul\":3098:3109   */\n      0x00\n        /* \"#utility.yul\":3132:3138   */\n      dup3\n        /* \"#utility.yul\":3127:3130   */\n      dup3\n        /* \"#utility.yul\":3120:3139   */\n      mstore\n        /* \"#utility.yul\":3172:3176   */\n      0x20\n        /* \"#utility.yul\":3167:3170   */\n      dup3\n        /* \"#utility.yul\":3163:3177   */\n      add\n        /* \"#utility.yul\":3148:3177   */\n      swap1\n      pop\n        /* \"#utility.yul\":3014:3183   */\n      swap3\n      swap2\n      pop\n      pop\n      jump\t// out\n        /* \"#utility.yul\":3189:3265   */\n    tag_79:\n        /* \"#utility.yul\":3225:3232   */\n      0x00\n        /* \"#utility.yul\":3254:3259   */\n      dup2\n        /* \"#utility.yul\":3243:3259   */\n      swap1\n      pop\n        /* \"#utility.yul\":3189:3265   */\n      swap2\n      swap1\n      pop\n      jump\t// out\n        /* \"#utility.yul\":3271:3348   */\n    tag_71:\n        /* \"#utility.yul\":3308:3315   */\n      0x00\n        /* \"#utility.yul\":3337:3342   */\n      dup2\n        /* \"#utility.yul\":3326:3342   */\n      swap1\n      pop\n        /* \"#utility.yul\":3271:3348   */\n      swap2\n      swap1\n      pop\n      jump\t// out\n        /* \"#utility.yul\":3354:3459   */\n    tag_82:\n        /* \"#utility.yul\":3390:3397   */\n      0x00\n        /* \"#utility.yul\":3430:3452   */\n      0xffffffffffffffffffff\n        /* \"#utility.yul\":3423:3428   */\n      dup3\n        /* \"#utility.yul\":3419:3453   */\n      and\n        /* \"#utility.yul\":3408:3453   */\n      swap1\n      pop\n        /* \"#utility.yul\":3354:3459   */\n      swap2\n      swap1\n      pop\n      jump\t// out\n        /* \"#utility.yul\":3588:3705   */\n    tag_52:\n        /* \"#utility.yul\":3697:3698   */\n      0x00\n        /* \"#utility.yul\":3694:3695   */\n      dup1\n        /* \"#utility.yul\":3687:3699   */\n      revert\n        /* \"#utility.yul\":3711:3879   */\n    tag_67:\n        /* \"#utility.yul\":3851:3871   */\n      0x4469646e27742073656e6420656e6f7567680000000000000000000000000000\n        /* \"#utility.yul\":3847:3848   */\n      0x00\n        /* \"#utility.yul\":3839:3845   */\n      dup3\n        /* \"#utility.yul\":3835:3849   */\n      add\n        /* \"#utility.yul\":3828:3872   */\n      mstore\n        /* \"#utility.yul\":3711:3879   */\n      pop\n      jump\t// out\n        /* \"#utility.yul\":3885:4005   */\n    tag_40:\n        /* \"#utility.yul\":3957:3980   */\n      tag_89\n        /* \"#utility.yul\":3974:3979   */\n      dup2\n        /* \"#utility.yul\":3957:3980   */\n      tag_79\n      jump\t// in\n    tag_89:\n        /* \"#utility.yul\":3950:3955   */\n      dup2\n        /* \"#utility.yul\":3947:3981   */\n      eq\n        /* \"#utility.yul\":3937:3999   */\n      tag_90\n      jumpi\n        /* \"#utility.yul\":3995:3996   */\n      0x00\n        /* \"#utility.yul\":3992:3993   */\n      dup1\n        /* \"#utility.yul\":3985:3997   */\n      revert\n        /* \"#utility.yul\":3937:3999   */\n    tag_90:\n        /* \"#utility.yul\":3885:4005   */\n      pop\n      jump\t// out\n        /* \"#utility.yul\":4011:4133   */\n    tag_44:\n        /* \"#utility.yul\":4084:4108   */\n      tag_92\n        /* \"#utility.yul\":4102:4107   */\n      dup2\n        /* \"#utility.yul\":4084:4108   */\n      tag_71\n      jump\t// in\n    tag_92:\n        /* \"#utility.yul\":4077:4082   */\n      dup2\n        /* \"#utility.yul\":4074:4109   */\n      eq\n        /* \"#utility.yul\":4064:4127   */\n      tag_93\n      jumpi\n        /* \"#utility.yul\":4123:4124   */\n      0x00\n        /* \"#utility.yul\":4120:4121   */\n      dup1\n        /* \"#utility.yul\":4113:4125   */\n      revert\n        /* \"#utility.yul\":4064:4127   */\n    tag_93:\n        /* \"#utility.yul\":4011:4133   */\n      pop\n      jump\t// out\n        /* \"#utility.yul\":4139:4259   */\n    tag_48:\n        /* \"#utility.yul\":4211:4234   */\n      tag_95\n        /* \"#utility.yul\":4228:4233   */\n      dup2\n        /* \"#utility.yul\":4211:4234   */\n      tag_82\n      jump\t// in\n    tag_95:\n        /* \"#utility.yul\":4204:4209   */\n      dup2\n        /* \"#utility.yul\":4201:4235   */\n      eq\n        /* \"#utility.yul\":4191:4253   */\n      tag_96\n      jumpi\n        /* \"#utility.yul\":4249:4250   */\n      0x00\n        /* \"#utility.yul\":4246:4247   */\n      dup1\n        /* \"#utility.yul\":4239:4251   */\n      revert\n        /* \"#utility.yul\":4191:4253   */\n    tag_96:\n        /* \"#utility.yul\":4139:4259   */\n      pop\n      jump\t// out\n\n    auxdata: 0xa2646970667358221220b31c1d5708c2dcb87e08a95805d4d0dfcea1fc8e72fe8a74e0ea101025aa05f664736f6c63430008070033\n}\n",
				"bytecode": {
					"linkReferences": {},
					"object": "6080604052603260005534801561001557600080fd5b50610469806100256000396000f3fe60806040526004361061003f5760003560e01c80630d8e6e2c1461004457806398d5fdca1461006f578063b60d428814610086578063f36089ec14610090575b600080fd5b34801561005057600080fd5b506100596100a7565b604051610066919061036a565b60405180910390f35b34801561007b57600080fd5b50610084610145565b005b61008e6101e8565b005b34801561009c57600080fd5b506100a561022f565b005b600080738a753747a1fa494ec906ce90e9f37563a8af630e90508073ffffffffffffffffffffffffffffffffffffffff166354fd4d506040518163ffffffff1660e01b815260040160206040518083038186803b15801561010757600080fd5b505afa15801561011b573d6000803e3d6000fd5b505050506040513d601f19601f8201168201806040525081019061013f9190610270565b91505090565b6000738a753747a1fa494ec906ce90e9f37563a8af630e905060008173ffffffffffffffffffffffffffffffffffffffff1663feaf968c6040518163ffffffff1660e01b815260040160a06040518083038186803b1580156101a657600080fd5b505afa1580156101ba573d6000803e3d6000fd5b505050506040513d601f19601f820116820180604052508101906101de919061029d565b5050509150505050565b60005434101561022d576040517f08c379a00000000000000000000000000000000000000000000000000000000081526004016102249061034a565b60405180910390fd5b565b565b600081519050610240816103ee565b92915050565b60008151905061025581610405565b92915050565b60008151905061026a8161041c565b92915050565b600060208284031215610286576102856103c0565b5b600061029484828501610246565b91505092915050565b600080600080600060a086880312156102b9576102b86103c0565b5b60006102c78882890161025b565b95505060206102d888828901610231565b94505060406102e988828901610246565b93505060606102fa88828901610246565b925050608061030b8882890161025b565b9150509295509295909350565b6000610325601283610385565b9150610330826103c5565b602082019050919050565b610344816103a0565b82525050565b6000602082019050818103600083015261036381610318565b9050919050565b600060208201905061037f600083018461033b565b92915050565b600082825260208201905092915050565b6000819050919050565b6000819050919050565b600069ffffffffffffffffffff82169050919050565b600080fd5b7f4469646e27742073656e6420656e6f7567680000000000000000000000000000600082015250565b6103f781610396565b811461040257600080fd5b50565b61040e816103a0565b811461041957600080fd5b50565b610425816103aa565b811461043057600080fd5b5056fea2646970667358221220b31c1d5708c2dcb87e08a95805d4d0dfcea1fc8e72fe8a74e0ea101025aa05f664736f6c63430008070033",
					"opcodes": "PUSH1 0x80 PUSH1 0x40 MSTORE PUSH1 0x32 PUSH1 0x0 SSTORE CALLVALUE DUP1 ISZERO PUSH2 0x15 JUMPI PUSH1 0x0 DUP1 REVERT JUMPDEST POP PUSH2 0x469 DUP1 PUSH2 0x25 PUSH1 0x0 CODECOPY PUSH1 0x0 RETURN INVALID PUSH1 0x80 PUSH1 0x40 MSTORE PUSH1 0x4 CALLDATASIZE LT PUSH2 0x3F JUMPI PUSH1 0x0 CALLDATALOAD PUSH1 0xE0 SHR DUP1 PUSH4 0xD8E6E2C EQ PUSH2 0x44 JUMPI DUP1 PUSH4 0x98D5FDCA EQ PUSH2 0x6F JUMPI DUP1 PUSH4 0xB60D4288 EQ PUSH2 0x86 JUMPI DUP1 PUSH4 0xF36089EC EQ PUSH2 0x90 JUMPI JUMPDEST PUSH1 0x0 DUP1 REVERT JUMPDEST CALLVALUE DUP1 ISZERO PUSH2 0x50 JUMPI PUSH1 0x0 DUP1 REVERT JUMPDEST POP PUSH2 0x59 PUSH2 0xA7 JUMP JUMPDEST PUSH1 0x40 MLOAD PUSH2 0x66 SWAP2 SWAP1 PUSH2 0x36A JUMP JUMPDEST PUSH1 0x40 MLOAD DUP1 SWAP2 SUB SWAP1 RETURN JUMPDEST CALLVALUE DUP1 ISZERO PUSH2 0x7B JUMPI PUSH1 0x0 DUP1 REVERT JUMPDEST POP PUSH2 0x84 PUSH2 0x145 JUMP JUMPDEST STOP JUMPDEST PUSH2 0x8E PUSH2 0x1E8 JUMP JUMPDEST STOP JUMPDEST CALLVALUE DUP1 ISZERO PUSH2 0x9C JUMPI PUSH1 0x0 DUP1 REVERT JUMPDEST POP PUSH2 0xA5 PUSH2 0x22F JUMP JUMPDEST STOP JUMPDEST PUSH1 0x0 DUP1 PUSH20 0x8A753747A1FA494EC906CE90E9F37563A8AF630E SWAP1 POP DUP1 PUSH20 0xFFFFFFFFFFFFFFFFFFFFFFFFFFFFFFFFFFFFFFFF AND PUSH4 0x54FD4D50 PUSH1 0x40 MLOAD DUP2 PUSH4 0xFFFFFFFF AND PUSH1 0xE0 SHL DUP2 MSTORE PUSH1 0x4 ADD PUSH1 0x20 PUSH1 0x40 MLOAD DUP1 DUP4 SUB DUP2 DUP7 DUP1 EXTCODESIZE ISZERO DUP1 ISZERO PUSH2 0x107 JUMPI PUSH1 0x0 DUP1 REVERT JUMPDEST POP GAS STATICCALL ISZERO DUP1 ISZERO PUSH2 0x11B JUMPI RETURNDATASIZE PUSH1 0x0 DUP1 RETURNDATACOPY RETURNDATASIZE PUSH1 0x0 REVERT JUMPDEST POP POP POP POP PUSH1 0x40 MLOAD RETURNDATASIZE PUSH1 0x1F NOT PUSH1 0x1F DUP3 ADD AND DUP3 ADD DUP1 PUSH1 0x40 MSTORE POP DUP2 ADD SWAP1 PUSH2 0x13F SWAP2 SWAP1 PUSH2 0x270 JUMP JUMPDEST SWAP2 POP POP SWAP1 JUMP JUMPDEST PUSH1 0x0 PUSH20 0x8A753747A1FA494EC906CE90E9F37563A8AF630E SWAP1 POP PUSH1 0x0 DUP2 PUSH20 0xFFFFFFFFFFFFFFFFFFFFFFFFFFFFFFFFFFFFFFFF AND PUSH4 0xFEAF968C PUSH1 0x40 MLOAD DUP2 PUSH4 0xFFFFFFFF AND PUSH1 0xE0 SHL DUP2 MSTORE PUSH1 0x4 ADD PUSH1 0xA0 PUSH1 0x40 MLOAD DUP1 DUP4 SUB DUP2 DUP7 DUP1 EXTCODESIZE ISZERO DUP1 ISZERO PUSH2 0x1A6 JUMPI PUSH1 0x0 DUP1 REVERT JUMPDEST POP GAS STATICCALL ISZERO DUP1 ISZERO PUSH2 0x1BA JUMPI RETURNDATASIZE PUSH1 0x0 DUP1 RETURNDATACOPY RETURNDATASIZE PUSH1 0x0 REVERT JUMPDEST POP POP POP POP PUSH1 0x40 MLOAD RETURNDATASIZE PUSH1 0x1F NOT PUSH1 0x1F DUP3 ADD AND DUP3 ADD DUP1 PUSH1 0x40 MSTORE POP DUP2 ADD SWAP1 PUSH2 0x1DE SWAP2 SWAP1 PUSH2 0x29D JUMP JUMPDEST POP POP POP SWAP2 POP POP POP POP JUMP JUMPDEST PUSH1 0x0 SLOAD CALLVALUE LT ISZERO PUSH2 0x22D JUMPI PUSH1 0x40 MLOAD PUSH32 0x8C379A000000000000000000000000000000000000000000000000000000000 DUP2 MSTORE PUSH1 0x4 ADD PUSH2 0x224 SWAP1 PUSH2 0x34A JUMP JUMPDEST PUSH1 0x40 MLOAD DUP1 SWAP2 SUB SWAP1 REVERT JUMPDEST JUMP JUMPDEST JUMP JUMPDEST PUSH1 0x0 DUP2 MLOAD SWAP1 POP PUSH2 0x240 DUP2 PUSH2 0x3EE JUMP JUMPDEST SWAP3 SWAP2 POP POP JUMP JUMPDEST PUSH1 0x0 DUP2 MLOAD SWAP1 POP PUSH2 0x255 DUP2 PUSH2 0x405 JUMP JUMPDEST SWAP3 SWAP2 POP POP JUMP JUMPDEST PUSH1 0x0 DUP2 MLOAD SWAP1 POP PUSH2 0x26A DUP2 PUSH2 0x41C JUMP JUMPDEST SWAP3 SWAP2 POP POP JUMP JUMPDEST PUSH1 0x0 PUSH1 0x20 DUP3 DUP5 SUB SLT ISZERO PUSH2 0x286 JUMPI PUSH2 0x285 PUSH2 0x3C0 JUMP JUMPDEST JUMPDEST PUSH1 0x0 PUSH2 0x294 DUP5 DUP3 DUP6 ADD PUSH2 0x246 JUMP JUMPDEST SWAP2 POP POP SWAP3 SWAP2 POP POP JUMP JUMPDEST PUSH1 0x0 DUP1 PUSH1 0x0 DUP1 PUSH1 0x0 PUSH1 0xA0 DUP7 DUP9 SUB SLT ISZERO PUSH2 0x2B9 JUMPI PUSH2 0x2B8 PUSH2 0x3C0 JUMP JUMPDEST JUMPDEST PUSH1 0x0 PUSH2 0x2C7 DUP9 DUP3 DUP10 ADD PUSH2 0x25B JUMP JUMPDEST SWAP6 POP POP PUSH1 0x20 PUSH2 0x2D8 DUP9 DUP3 DUP10 ADD PUSH2 0x231 JUMP JUMPDEST SWAP5 POP POP PUSH1 0x40 PUSH2 0x2E9 DUP9 DUP3 DUP10 ADD PUSH2 0x246 JUMP JUMPDEST SWAP4 POP POP PUSH1 0x60 PUSH2 0x2FA DUP9 DUP3 DUP10 ADD PUSH2 0x246 JUMP JUMPDEST SWAP3 POP POP PUSH1 0x80 PUSH2 0x30B DUP9 DUP3 DUP10 ADD PUSH2 0x25B JUMP JUMPDEST SWAP2 POP POP SWAP3 SWAP6 POP SWAP3 SWAP6 SWAP1 SWAP4 POP JUMP JUMPDEST PUSH1 0x0 PUSH2 0x325 PUSH1 0x12 DUP4 PUSH2 0x385 JUMP JUMPDEST SWAP2 POP PUSH2 0x330 DUP3 PUSH2 0x3C5 JUMP JUMPDEST PUSH1 0x20 DUP3 ADD SWAP1 POP SWAP2 SWAP1 POP JUMP JUMPDEST PUSH2 0x344 DUP2 PUSH2 0x3A0 JUMP JUMPDEST DUP3 MSTORE POP POP JUMP JUMPDEST PUSH1 0x0 PUSH1 0x20 DUP3 ADD SWAP1 POP DUP2 DUP2 SUB PUSH1 0x0 DUP4 ADD MSTORE PUSH2 0x363 DUP2 PUSH2 0x318 JUMP JUMPDEST SWAP1 POP SWAP2 SWAP1 POP JUMP JUMPDEST PUSH1 0x0 PUSH1 0x20 DUP3 ADD SWAP1 POP PUSH2 0x37F PUSH1 0x0 DUP4 ADD DUP5 PUSH2 0x33B JUMP JUMPDEST SWAP3 SWAP2 POP POP JUMP JUMPDEST PUSH1 0x0 DUP3 DUP3 MSTORE PUSH1 0x20 DUP3 ADD SWAP1 POP SWAP3 SWAP2 POP POP JUMP JUMPDEST PUSH1 0x0 DUP2 SWAP1 POP SWAP2 SWAP1 POP JUMP JUMPDEST PUSH1 0x0 DUP2 SWAP1 POP SWAP2 SWAP1 POP JUMP JUMPDEST PUSH1 0x0 PUSH10 0xFFFFFFFFFFFFFFFFFFFF DUP3 AND SWAP1 POP SWAP2 SWAP1 POP JUMP JUMPDEST PUSH1 0x0 DUP1 REVERT JUMPDEST PUSH32 0x4469646E27742073656E6420656E6F7567680000000000000000000000000000 PUSH1 0x0 DUP3 ADD MSTORE POP JUMP JUMPDEST PUSH2 0x3F7 DUP2 PUSH2 0x396 JUMP JUMPDEST DUP2 EQ PUSH2 0x402 JUMPI PUSH1 0x0 DUP1 REVERT JUMPDEST POP JUMP JUMPDEST PUSH2 0x40E DUP2 PUSH2 0x3A0 JUMP JUMPDEST DUP2 EQ PUSH2 0x419 JUMPI PUSH1 0x0 DUP1 REVERT JUMPDEST POP JUMP JUMPDEST PUSH2 0x425 DUP2 PUSH2 0x3AA JUMP JUMPDEST DUP2 EQ PUSH2 0x430 JUMPI PUSH1 0x0 DUP1 REVERT JUMPDEST POP JUMP INVALID LOG2 PUSH5 0x6970667358 0x22 SLT KECCAK256 0xB3 SHR SAR JUMPI ADDMOD 0xC2 0xDC 0xB8 PUSH31 0x8A95805D4D0DFCEA1FC8E72FE8A74E0EA101025AA05F664736F6C63430008 SMOD STOP CALLER "
				},
				"gasEstimates": {
					"creation": {
						"codeDepositCost": "225800",
						"executionCost": "22375",
						"totalCost": "248175"
					},
					"external": {
						"fund()": "2556",
						"getConversionRate()": "188",
						"getPrice()": "infinite",
						"getVersion()": "infinite"
					}
				},
				"methodIdentifiers": {
					"fund()": "b60d4288",
					"getConversionRate()": "f36089ec",
					"getPrice()": "98d5fdca",
					"getVersion()": "0d8e6e2c"
				}
			},
			"storageLayout": {
				"storage": [
					{
						"astId": 51,
						"contract": "FundMe.sol:FundMe",
						"label": "minimumUsd",
						"offset": 0,
						"slot": "0",
						"type": "t_uint256"
					}
				],
				"types": {
					"t_uint256": {
						"encoding": "inplace",
						"label": "uint256",
						"numberOfBytes": "32"
					}
				}
			},
			"userdoc": {
				"kind": "user",
				"methods": {},
				"version": 1
			}
		}
	}
}