{
	"FundMe.sol": {
		"FundMe": {
			"abi": [
				{
					"inputs": [],
					"name": "fund",
					"outputs": [],
					"stateMutability": "payable",
					"type": "function"
				},
				{
					"inputs": [],
					"name": "getConversionRate",
					"outputs": [],
					"stateMutability": "nonpayable",
					"type": "function"
				},
				{
					"inputs": [],
					"name": "getPrice",
					"outputs": [],
					"stateMutability": "nonpayable",
					"type": "function"
				},
				{
					"inputs": [],
					"name": "getVersion",
					"outputs": [
						{
							"internalType": "uint256",
							"name": "",
							"type": "uint256"
						}
					],
					"stateMutability": "view",
					"type": "function"
				}
			],
			"devdoc": {
				"kind": "dev",
				"methods": {},
				"version": 1
			},
			"evm": {
				"assembly": "    /* \"FundMe.sol\":964:1704  contract FundMe {... */\n  mstore(0x40, 0x80)\n    /* \"FundMe.sol\":1007:1009  50 */\n  0x32\n    /* \"FundMe.sol\":986:1009  uint256 minimumUsd = 50 */\n  0x00\n  sstore\n    /* \"FundMe.sol\":964:1704  contract FundMe {... */\n  callvalue\n  dup1\n  iszero\n  tag_1\n  jumpi\n  0x00\n  dup1\n  revert\ntag_1:\n  pop\n  dataSize(sub_0)\n  dup1\n  dataOffset(sub_0)\n  0x00\n  codecopy\n  0x00\n  return\nstop\n\nsub_0: assembly {\n        /* \"FundMe.sol\":964:1704  contract FundMe {... */\n      mstore(0x40, 0x80)\n      jumpi(tag_1, lt(calldatasize, 0x04))\n      shr(0xe0, calldataload(0x00))\n      dup1\n      0x0d8e6e2c\n      eq\n      tag_2\n      jumpi\n      dup1\n      0x98d5fdca\n      eq\n      tag_3\n      jumpi\n      dup1\n      0xb60d4288\n      eq\n      tag_4\n      jumpi\n      dup1\n      0xf36089ec\n      eq\n      tag_5\n      jumpi\n    tag_1:\n      0x00\n      dup1\n      revert\n        /* \"FundMe.sol\":1407:1611  function getVersion() public view returns (uint256) {... */\n    tag_2:\n      callvalue\n      dup1\n      iszero\n      tag_6\n      jumpi\n      0x00\n      dup1\n      revert\n    tag_6:\n      pop\n      tag_7\n      tag_8\n      jump\t// in\n    tag_7:\n      mload(0x40)\n      tag_9\n      swap2\n      swap1\n      tag_10\n      jump\t// in\n    tag_9:\n      mload(0x40)\n      dup1\n      swap2\n      sub\n      swap1\n      return\n        /* \"FundMe.sol\":1246:1401  function getPrice() public {... */\n    tag_3:\n      callvalue\n      dup1\n      iszero\n      tag_11\n      jumpi\n      0x00\n      dup1\n      revert\n    tag_11:\n      pop\n      tag_12\n      tag_13\n      jump\t// in\n    tag_12:\n      stop\n        /* \"FundMe.sol\":1018:1240  function fund() public payable {... */\n    tag_4:\n      tag_14\n      tag_15\n      jump\t// in\n    tag_14:\n      stop\n        /* \"FundMe.sol\":1617:1661  function getConversionRate() public {... */\n    tag_5:\n      callvalue\n      dup1\n      iszero\n      tag_16\n      jumpi\n      0x00\n      dup1\n      revert\n    tag_16:\n      pop\n      tag_17\n      tag_18\n      jump\t// in\n    tag_17:\n      stop\n        /* \"FundMe.sol\":1407:1611  function getVersion() public view returns (uint256) {... */\n    tag_8:\n        /* \"FundMe.sol\":1450:1457  uint256 */\n      0x00\n        /* \"FundMe.sol\":1469:1500  AggregatorV3Interface priceFeed */\n      dup1\n        /* \"FundMe.sol\":1525:1567  0x8A753747A1Fa494EC906cE90E9f37563A8AF630e */\n      0x8a753747a1fa494ec906ce90e9f37563a8af630e\n        /* \"FundMe.sol\":1469:1568  AggregatorV3Interface priceFeed = AggregatorV3Interface(0x8A753747A1Fa494EC906cE90E9f37563A8AF630e) */\n      swap1\n      pop\n        /* \"FundMe.sol\":1585:1594  priceFeed */\n      dup1\n        /* \"FundMe.sol\":1585:1602  priceFeed.version */\n      0xffffffffffffffffffffffffffffffffffffffff\n      and\n      0x54fd4d50\n        /* \"FundMe.sol\":1585:1604  priceFeed.version() */\n      mload(0x40)\n      dup2\n      0xffffffff\n      and\n      0xe0\n      shl\n      dup2\n      mstore\n      0x04\n      add\n      0x20\n      mload(0x40)\n      dup1\n      dup4\n      sub\n      dup2\n      dup7\n      dup1\n      extcodesize\n      iszero\n      dup1\n      iszero\n      tag_20\n      jumpi\n      0x00\n      dup1\n      revert\n    tag_20:\n      pop\n      gas\n      staticcall\n      iszero\n      dup1\n      iszero\n      tag_22\n      jumpi\n      returndatasize\n      0x00\n      dup1\n      returndatacopy\n      revert(0x00, returndatasize)\n    tag_22:\n      pop\n      pop\n      pop\n      pop\n      mload(0x40)\n      returndatasize\n      not(0x1f)\n      0x1f\n      dup3\n      add\n      and\n      dup3\n      add\n      dup1\n      0x40\n      mstore\n      pop\n      dup2\n      add\n      swap1\n      tag_23\n      swap2\n      swap1\n      tag_24\n      jump\t// in\n    tag_23:\n        /* \"FundMe.sol\":1578:1604  return priceFeed.version() */\n      swap2\n      pop\n      pop\n        /* \"FundMe.sol\":1407:1611  function getVersion() public view returns (uint256) {... */\n      swap1\n      jump\t// out\n        /* \"FundMe.sol\":1246:1401  function getPrice() public {... */\n    tag_13:\n      jump\t// out\n        /* \"FundMe.sol\":1018:1240  function fund() public payable {... */\n    tag_15:\n        /* \"FundMe.sol\":1200:1210  minimumUsd */\n      sload(0x00)\n        /* \"FundMe.sol\":1187:1196  msg.value */\n      callvalue\n        /* \"FundMe.sol\":1187:1210  msg.value >= minimumUsd */\n      lt\n      iszero\n        /* \"FundMe.sol\":1178:1233  require (msg.value >= minimumUsd, \"Didn't send enough\") */\n      tag_27\n      jumpi\n      mload(0x40)\n      0x08c379a000000000000000000000000000000000000000000000000000000000\n      dup2\n      mstore\n      0x04\n      add\n      tag_28\n      swap1\n      tag_29\n      jump\t// in\n    tag_28:\n      mload(0x40)\n      dup1\n      swap2\n      sub\n      swap1\n      revert\n    tag_27:\n        /* \"FundMe.sol\":1018:1240  function fund() public payable {... */\n      jump\t// out\n        /* \"FundMe.sol\":1617:1661  function getConversionRate() public {... */\n    tag_18:\n      jump\t// out\n        /* \"#utility.yul\":7:150   */\n    tag_32:\n        /* \"#utility.yul\":64:69   */\n      0x00\n        /* \"#utility.yul\":95:101   */\n      dup2\n        /* \"#utility.yul\":89:102   */\n      mload\n        /* \"#utility.yul\":80:102   */\n      swap1\n      pop\n        /* \"#utility.yul\":111:144   */\n      tag_34\n        /* \"#utility.yul\":138:143   */\n      dup2\n        /* \"#utility.yul\":111:144   */\n      tag_35\n      jump\t// in\n    tag_34:\n        /* \"#utility.yul\":7:150   */\n      swap3\n      swap2\n      pop\n      pop\n      jump\t// out\n        /* \"#utility.yul\":156:507   */\n    tag_24:\n        /* \"#utility.yul\":226:232   */\n      0x00\n        /* \"#utility.yul\":275:277   */\n      0x20\n        /* \"#utility.yul\":263:272   */\n      dup3\n        /* \"#utility.yul\":254:261   */\n      dup5\n        /* \"#utility.yul\":250:273   */\n      sub\n        /* \"#utility.yul\":246:278   */\n      slt\n        /* \"#utility.yul\":243:362   */\n      iszero\n      tag_37\n      jumpi\n        /* \"#utility.yul\":281:360   */\n      tag_38\n      tag_39\n      jump\t// in\n    tag_38:\n        /* \"#utility.yul\":243:362   */\n    tag_37:\n        /* \"#utility.yul\":401:402   */\n      0x00\n        /* \"#utility.yul\":426:490   */\n      tag_40\n        /* \"#utility.yul\":482:489   */\n      dup5\n        /* \"#utility.yul\":473:479   */\n      dup3\n        /* \"#utility.yul\":462:471   */\n      dup6\n        /* \"#utility.yul\":458:480   */\n      add\n        /* \"#utility.yul\":426:490   */\n      tag_32\n      jump\t// in\n    tag_40:\n        /* \"#utility.yul\":416:490   */\n      swap2\n      pop\n        /* \"#utility.yul\":372:500   */\n      pop\n        /* \"#utility.yul\":156:507   */\n      swap3\n      swap2\n      pop\n      pop\n      jump\t// out\n        /* \"#utility.yul\":513:879   */\n    tag_41:\n        /* \"#utility.yul\":655:658   */\n      0x00\n        /* \"#utility.yul\":676:743   */\n      tag_43\n        /* \"#utility.yul\":740:742   */\n      0x12\n        /* \"#utility.yul\":735:738   */\n      dup4\n        /* \"#utility.yul\":676:743   */\n      tag_44\n      jump\t// in\n    tag_43:\n        /* \"#utility.yul\":669:743   */\n      swap2\n      pop\n        /* \"#utility.yul\":752:845   */\n      tag_45\n        /* \"#utility.yul\":841:844   */\n      dup3\n        /* \"#utility.yul\":752:845   */\n      tag_46\n      jump\t// in\n    tag_45:\n        /* \"#utility.yul\":870:872   */\n      0x20\n        /* \"#utility.yul\":865:868   */\n      dup3\n        /* \"#utility.yul\":861:873   */\n      add\n        /* \"#utility.yul\":854:873   */\n      swap1\n      pop\n        /* \"#utility.yul\":513:879   */\n      swap2\n      swap1\n      pop\n      jump\t// out\n        /* \"#utility.yul\":885:1003   */\n    tag_47:\n        /* \"#utility.yul\":972:996   */\n      tag_49\n        /* \"#utility.yul\":990:995   */\n      dup2\n        /* \"#utility.yul\":972:996   */\n      tag_50\n      jump\t// in\n    tag_49:\n        /* \"#utility.yul\":967:970   */\n      dup3\n        /* \"#utility.yul\":960:997   */\n      mstore\n        /* \"#utility.yul\":885:1003   */\n      pop\n      pop\n      jump\t// out\n        /* \"#utility.yul\":1009:1428   */\n    tag_29:\n        /* \"#utility.yul\":1175:1179   */\n      0x00\n        /* \"#utility.yul\":1213:1215   */\n      0x20\n        /* \"#utility.yul\":1202:1211   */\n      dup3\n        /* \"#utility.yul\":1198:1216   */\n      add\n        /* \"#utility.yul\":1190:1216   */\n      swap1\n      pop\n        /* \"#utility.yul\":1262:1271   */\n      dup2\n        /* \"#utility.yul\":1256:1260   */\n      dup2\n        /* \"#utility.yul\":1252:1272   */\n      sub\n        /* \"#utility.yul\":1248:1249   */\n      0x00\n        /* \"#utility.yul\":1237:1246   */\n      dup4\n        /* \"#utility.yul\":1233:1250   */\n      add\n        /* \"#utility.yul\":1226:1273   */\n      mstore\n        /* \"#utility.yul\":1290:1421   */\n      tag_52\n        /* \"#utility.yul\":1416:1420   */\n      dup2\n        /* \"#utility.yul\":1290:1421   */\n      tag_41\n      jump\t// in\n    tag_52:\n        /* \"#utility.yul\":1282:1421   */\n      swap1\n      pop\n        /* \"#utility.yul\":1009:1428   */\n      swap2\n      swap1\n      pop\n      jump\t// out\n        /* \"#utility.yul\":1434:1656   */\n    tag_10:\n        /* \"#utility.yul\":1527:1531   */\n      0x00\n        /* \"#utility.yul\":1565:1567   */\n      0x20\n        /* \"#utility.yul\":1554:1563   */\n      dup3\n        /* \"#utility.yul\":1550:1568   */\n      add\n        /* \"#utility.yul\":1542:1568   */\n      swap1\n      pop\n        /* \"#utility.yul\":1578:1649   */\n      tag_54\n        /* \"#utility.yul\":1646:1647   */\n      0x00\n        /* \"#utility.yul\":1635:1644   */\n      dup4\n        /* \"#utility.yul\":1631:1648   */\n      add\n        /* \"#utility.yul\":1622:1628   */\n      dup5\n        /* \"#utility.yul\":1578:1649   */\n      tag_47\n      jump\t// in\n    tag_54:\n        /* \"#utility.yul\":1434:1656   */\n      swap3\n      swap2\n      pop\n      pop\n      jump\t// out\n        /* \"#utility.yul\":1743:1912   */\n    tag_44:\n        /* \"#utility.yul\":1827:1838   */\n      0x00\n        /* \"#utility.yul\":1861:1867   */\n      dup3\n        /* \"#utility.yul\":1856:1859   */\n      dup3\n        /* \"#utility.yul\":1849:1868   */\n      mstore\n        /* \"#utility.yul\":1901:1905   */\n      0x20\n        /* \"#utility.yul\":1896:1899   */\n      dup3\n        /* \"#utility.yul\":1892:1906   */\n      add\n        /* \"#utility.yul\":1877:1906   */\n      swap1\n      pop\n        /* \"#utility.yul\":1743:1912   */\n      swap3\n      swap2\n      pop\n      pop\n      jump\t// out\n        /* \"#utility.yul\":1918:1995   */\n    tag_50:\n        /* \"#utility.yul\":1955:1962   */\n      0x00\n        /* \"#utility.yul\":1984:1989   */\n      dup2\n        /* \"#utility.yul\":1973:1989   */\n      swap1\n      pop\n        /* \"#utility.yul\":1918:1995   */\n      swap2\n      swap1\n      pop\n      jump\t// out\n        /* \"#utility.yul\":2124:2241   */\n    tag_39:\n        /* \"#utility.yul\":2233:2234   */\n      0x00\n        /* \"#utility.yul\":2230:2231   */\n      dup1\n        /* \"#utility.yul\":2223:2235   */\n      revert\n        /* \"#utility.yul\":2247:2415   */\n    tag_46:\n        /* \"#utility.yul\":2387:2407   */\n      0x4469646e27742073656e6420656e6f7567680000000000000000000000000000\n        /* \"#utility.yul\":2383:2384   */\n      0x00\n        /* \"#utility.yul\":2375:2381   */\n      dup3\n        /* \"#utility.yul\":2371:2385   */\n      add\n        /* \"#utility.yul\":2364:2408   */\n      mstore\n        /* \"#utility.yul\":2247:2415   */\n      pop\n      jump\t// out\n        /* \"#utility.yul\":2421:2543   */\n    tag_35:\n        /* \"#utility.yul\":2494:2518   */\n      tag_64\n        /* \"#utility.yul\":2512:2517   */\n      dup2\n        /* \"#utility.yul\":2494:2518   */\n      tag_50\n      jump\t// in\n    tag_64:\n        /* \"#utility.yul\":2487:2492   */\n      dup2\n        /* \"#utility.yul\":2484:2519   */\n      eq\n        /* \"#utility.yul\":2474:2537   */\n      tag_65\n      jumpi\n        /* \"#utility.yul\":2533:2534   */\n      0x00\n        /* \"#utility.yul\":2530:2531   */\n      dup1\n        /* \"#utility.yul\":2523:2535   */\n      revert\n        /* \"#utility.yul\":2474:2537   */\n    tag_65:\n        /* \"#utility.yul\":2421:2543   */\n      pop\n      jump\t// out\n\n    auxdata: 0xa264697066735822122035f66e218256d5d823dcf07700d8ee92ad138bac54bb26f093880a613032d65264736f6c63430008070033\n}\n",
				"bytecode": {
					"linkReferences": {},
					"object": "6080604052603260005534801561001557600080fd5b506102d5806100256000396000f3fe60806040526004361061003f5760003560e01c80630d8e6e2c1461004457806398d5fdca1461006f578063b60d428814610086578063f36089ec14610090575b600080fd5b34801561005057600080fd5b506100596100a7565b6040516100669190610224565b60405180910390f35b34801561007b57600080fd5b50610084610145565b005b61008e610147565b005b34801561009c57600080fd5b506100a561018e565b005b600080738a753747a1fa494ec906ce90e9f37563a8af630e90508073ffffffffffffffffffffffffffffffffffffffff166354fd4d506040518163ffffffff1660e01b815260040160206040518083038186803b15801561010757600080fd5b505afa15801561011b573d6000803e3d6000fd5b505050506040513d601f19601f8201168201806040525081019061013f91906101a5565b91505090565b565b60005434101561018c576040517f08c379a000000000000000000000000000000000000000000000000000000000815260040161018390610204565b60405180910390fd5b565b565b60008151905061019f81610288565b92915050565b6000602082840312156101bb576101ba61025a565b5b60006101c984828501610190565b91505092915050565b60006101df60128361023f565b91506101ea8261025f565b602082019050919050565b6101fe81610250565b82525050565b6000602082019050818103600083015261021d816101d2565b9050919050565b600060208201905061023960008301846101f5565b92915050565b600082825260208201905092915050565b6000819050919050565b600080fd5b7f4469646e27742073656e6420656e6f7567680000000000000000000000000000600082015250565b61029181610250565b811461029c57600080fd5b5056fea264697066735822122035f66e218256d5d823dcf07700d8ee92ad138bac54bb26f093880a613032d65264736f6c63430008070033",
					"opcodes": "PUSH1 0x80 PUSH1 0x40 MSTORE PUSH1 0x32 PUSH1 0x0 SSTORE CALLVALUE DUP1 ISZERO PUSH2 0x15 JUMPI PUSH1 0x0 DUP1 REVERT JUMPDEST POP PUSH2 0x2D5 DUP1 PUSH2 0x25 PUSH1 0x0 CODECOPY PUSH1 0x0 RETURN INVALID PUSH1 0x80 PUSH1 0x40 MSTORE PUSH1 0x4 CALLDATASIZE LT PUSH2 0x3F JUMPI PUSH1 0x0 CALLDATALOAD PUSH1 0xE0 SHR DUP1 PUSH4 0xD8E6E2C EQ PUSH2 0x44 JUMPI DUP1 PUSH4 0x98D5FDCA EQ PUSH2 0x6F JUMPI DUP1 PUSH4 0xB60D4288 EQ PUSH2 0x86 JUMPI DUP1 PUSH4 0xF36089EC EQ PUSH2 0x90 JUMPI JUMPDEST PUSH1 0x0 DUP1 REVERT JUMPDEST CALLVALUE DUP1 ISZERO PUSH2 0x50 JUMPI PUSH1 0x0 DUP1 REVERT JUMPDEST POP PUSH2 0x59 PUSH2 0xA7 JUMP JUMPDEST PUSH1 0x40 MLOAD PUSH2 0x66 SWAP2 SWAP1 PUSH2 0x224 JUMP JUMPDEST PUSH1 0x40 MLOAD DUP1 SWAP2 SUB SWAP1 RETURN JUMPDEST CALLVALUE DUP1 ISZERO PUSH2 0x7B JUMPI PUSH1 0x0 DUP1 REVERT JUMPDEST POP PUSH2 0x84 PUSH2 0x145 JUMP JUMPDEST STOP JUMPDEST PUSH2 0x8E PUSH2 0x147 JUMP JUMPDEST STOP JUMPDEST CALLVALUE DUP1 ISZERO PUSH2 0x9C JUMPI PUSH1 0x0 DUP1 REVERT JUMPDEST POP PUSH2 0xA5 PUSH2 0x18E JUMP JUMPDEST STOP JUMPDEST PUSH1 0x0 DUP1 PUSH20 0x8A753747A1FA494EC906CE90E9F37563A8AF630E SWAP1 POP DUP1 PUSH20 0xFFFFFFFFFFFFFFFFFFFFFFFFFFFFFFFFFFFFFFFF AND PUSH4 0x54FD4D50 PUSH1 0x40 MLOAD DUP2 PUSH4 0xFFFFFFFF AND PUSH1 0xE0 SHL DUP2 MSTORE PUSH1 0x4 ADD PUSH1 0x20 PUSH1 0x40 MLOAD DUP1 DUP4 SUB DUP2 DUP7 DUP1 EXTCODESIZE ISZERO DUP1 ISZERO PUSH2 0x107 JUMPI PUSH1 0x0 DUP1 REVERT JUMPDEST POP GAS STATICCALL ISZERO DUP1 ISZERO PUSH2 0x11B JUMPI RETURNDATASIZE PUSH1 0x0 DUP1 RETURNDATACOPY RETURNDATASIZE PUSH1 0x0 REVERT JUMPDEST POP POP POP POP PUSH1 0x40 MLOAD RETURNDATASIZE PUSH1 0x1F NOT PUSH1 0x1F DUP3 ADD AND DUP3 ADD DUP1 PUSH1 0x40 MSTORE POP DUP2 ADD SWAP1 PUSH2 0x13F SWAP2 SWAP1 PUSH2 0x1A5 JUMP JUMPDEST SWAP2 POP POP SWAP1 JUMP JUMPDEST JUMP JUMPDEST PUSH1 0x0 SLOAD CALLVALUE LT ISZERO PUSH2 0x18C JUMPI PUSH1 0x40 MLOAD PUSH32 0x8C379A000000000000000000000000000000000000000000000000000000000 DUP2 MSTORE PUSH1 0x4 ADD PUSH2 0x183 SWAP1 PUSH2 0x204 JUMP JUMPDEST PUSH1 0x40 MLOAD DUP1 SWAP2 SUB SWAP1 REVERT JUMPDEST JUMP JUMPDEST JUMP JUMPDEST PUSH1 0x0 DUP2 MLOAD SWAP1 POP PUSH2 0x19F DUP2 PUSH2 0x288 JUMP JUMPDEST SWAP3 SWAP2 POP POP JUMP JUMPDEST PUSH1 0x0 PUSH1 0x20 DUP3 DUP5 SUB SLT ISZERO PUSH2 0x1BB JUMPI PUSH2 0x1BA PUSH2 0x25A JUMP JUMPDEST JUMPDEST PUSH1 0x0 PUSH2 0x1C9 DUP5 DUP3 DUP6 ADD PUSH2 0x190 JUMP JUMPDEST SWAP2 POP POP SWAP3 SWAP2 POP POP JUMP JUMPDEST PUSH1 0x0 PUSH2 0x1DF PUSH1 0x12 DUP4 PUSH2 0x23F JUMP JUMPDEST SWAP2 POP PUSH2 0x1EA DUP3 PUSH2 0x25F JUMP JUMPDEST PUSH1 0x20 DUP3 ADD SWAP1 POP SWAP2 SWAP1 POP JUMP JUMPDEST PUSH2 0x1FE DUP2 PUSH2 0x250 JUMP JUMPDEST DUP3 MSTORE POP POP JUMP JUMPDEST PUSH1 0x0 PUSH1 0x20 DUP3 ADD SWAP1 POP DUP2 DUP2 SUB PUSH1 0x0 DUP4 ADD MSTORE PUSH2 0x21D DUP2 PUSH2 0x1D2 JUMP JUMPDEST SWAP1 POP SWAP2 SWAP1 POP JUMP JUMPDEST PUSH1 0x0 PUSH1 0x20 DUP3 ADD SWAP1 POP PUSH2 0x239 PUSH1 0x0 DUP4 ADD DUP5 PUSH2 0x1F5 JUMP JUMPDEST SWAP3 SWAP2 POP POP JUMP JUMPDEST PUSH1 0x0 DUP3 DUP3 MSTORE PUSH1 0x20 DUP3 ADD SWAP1 POP SWAP3 SWAP2 POP POP JUMP JUMPDEST PUSH1 0x0 DUP2 SWAP1 POP SWAP2 SWAP1 POP JUMP JUMPDEST PUSH1 0x0 DUP1 REVERT JUMPDEST PUSH32 0x4469646E27742073656E6420656E6F7567680000000000000000000000000000 PUSH1 0x0 DUP3 ADD MSTORE POP JUMP JUMPDEST PUSH2 0x291 DUP2 PUSH2 0x250 JUMP JUMPDEST DUP2 EQ PUSH2 0x29C JUMPI PUSH1 0x0 DUP1 REVERT JUMPDEST POP JUMP INVALID LOG2 PUSH5 0x6970667358 0x22 SLT KECCAK256 CALLDATALOAD 0xF6 PUSH15 0x218256D5D823DCF07700D8EE92AD13 DUP12 0xAC SLOAD 0xBB 0x26 CREATE SWAP4 DUP9 EXP PUSH2 0x3032 0xD6 MSTORE PUSH5 0x736F6C6343 STOP ADDMOD SMOD STOP CALLER "
				},
				"gasEstimates": {
					"creation": {
						"codeDepositCost": "145000",
						"executionCost": "22296",
						"totalCost": "167296"
					},
					"external": {
						"fund()": "2556",
						"getConversionRate()": "188",
						"getPrice()": "144",
						"getVersion()": "infinite"
					}
				},
				"methodIdentifiers": {
					"fund()": "b60d4288",
					"getConversionRate()": "f36089ec",
					"getPrice()": "98d5fdca",
					"getVersion()": "0d8e6e2c"
				}
			},
			"storageLayout": {
				"storage": [
					{
						"astId": 48,
						"contract": "FundMe.sol:FundMe",
						"label": "minimumUsd",
						"offset": 0,
						"slot": "0",
						"type": "t_uint256"
					}
				],
				"types": {
					"t_uint256": {
						"encoding": "inplace",
						"label": "uint256",
						"numberOfBytes": "32"
					}
				}
			},
			"userdoc": {
				"kind": "user",
				"methods": {},
				"version": 1
			}
		}
	}
}