{
	"FundMe.sol": {
		"FundMe": {
			"abi": [
				{
					"inputs": [],
					"name": "fund",
					"outputs": [],
					"stateMutability": "payable",
					"type": "function"
				},
				{
					"inputs": [],
					"name": "getConversionRate",
					"outputs": [],
					"stateMutability": "nonpayable",
					"type": "function"
				},
				{
					"inputs": [],
					"name": "getPrice",
					"outputs": [],
					"stateMutability": "nonpayable",
					"type": "function"
				}
			],
			"devdoc": {
				"kind": "dev",
				"methods": {},
				"version": 1
			},
			"evm": {
				"assembly": "    /* \"FundMe.sol\":964:1570  contract FundMe {... */\n  mstore(0x40, 0x80)\n    /* \"FundMe.sol\":1007:1009  50 */\n  0x32\n    /* \"FundMe.sol\":986:1009  uint256 minimumUsd = 50 */\n  0x00\n  sstore\n    /* \"FundMe.sol\":964:1570  contract FundMe {... */\n  callvalue\n  dup1\n  iszero\n  tag_1\n  jumpi\n  0x00\n  dup1\n  revert\ntag_1:\n  pop\n  dataSize(sub_0)\n  dup1\n  dataOffset(sub_0)\n  0x00\n  codecopy\n  0x00\n  return\nstop\n\nsub_0: assembly {\n        /* \"FundMe.sol\":964:1570  contract FundMe {... */\n      mstore(0x40, 0x80)\n      jumpi(tag_1, lt(calldatasize, 0x04))\n      shr(0xe0, calldataload(0x00))\n      dup1\n      0x98d5fdca\n      eq\n      tag_2\n      jumpi\n      dup1\n      0xb60d4288\n      eq\n      tag_3\n      jumpi\n      dup1\n      0xf36089ec\n      eq\n      tag_4\n      jumpi\n    tag_1:\n      0x00\n      dup1\n      revert\n        /* \"FundMe.sol\":1246:1477  function getPrice() public {... */\n    tag_2:\n      callvalue\n      dup1\n      iszero\n      tag_5\n      jumpi\n      0x00\n      dup1\n      revert\n    tag_5:\n      pop\n      tag_6\n      tag_7\n      jump\t// in\n    tag_6:\n      stop\n        /* \"FundMe.sol\":1018:1240  function fund() public payable {... */\n    tag_3:\n      tag_8\n      tag_9\n      jump\t// in\n    tag_8:\n      stop\n        /* \"FundMe.sol\":1483:1527  function getConversionRate() public {... */\n    tag_4:\n      callvalue\n      dup1\n      iszero\n      tag_10\n      jumpi\n      0x00\n      dup1\n      revert\n    tag_10:\n      pop\n      tag_11\n      tag_12\n      jump\t// in\n    tag_11:\n      stop\n        /* \"FundMe.sol\":1246:1477  function getPrice() public {... */\n    tag_7:\n        /* \"FundMe.sol\":1417:1459  0x8A753747A1Fa494EC906cE90E9f37563A8AF630e */\n      0x8a753747a1fa494ec906ce90e9f37563a8af630e\n        /* \"FundMe.sol\":1395:1468  AggregatorV3Interface(0x8A753747A1Fa494EC906cE90E9f37563A8AF630e).version */\n      0xffffffffffffffffffffffffffffffffffffffff\n      and\n      0x54fd4d50\n        /* \"FundMe.sol\":1395:1470  AggregatorV3Interface(0x8A753747A1Fa494EC906cE90E9f37563A8AF630e).version() */\n      mload(0x40)\n      dup2\n      0xffffffff\n      and\n      0xe0\n      shl\n      dup2\n      mstore\n      0x04\n      add\n      0x20\n      mload(0x40)\n      dup1\n      dup4\n      sub\n      dup2\n      dup7\n      dup1\n      extcodesize\n      iszero\n      dup1\n      iszero\n      tag_14\n      jumpi\n      0x00\n      dup1\n      revert\n    tag_14:\n      pop\n      gas\n      staticcall\n      iszero\n      dup1\n      iszero\n      tag_16\n      jumpi\n      returndatasize\n      0x00\n      dup1\n      returndatacopy\n      revert(0x00, returndatasize)\n    tag_16:\n      pop\n      pop\n      pop\n      pop\n      mload(0x40)\n      returndatasize\n      not(0x1f)\n      0x1f\n      dup3\n      add\n      and\n      dup3\n      add\n      dup1\n      0x40\n      mstore\n      pop\n      dup2\n      add\n      swap1\n      tag_17\n      swap2\n      swap1\n      tag_18\n      jump\t// in\n    tag_17:\n      pop\n        /* \"FundMe.sol\":1246:1477  function getPrice() public {... */\n      jump\t// out\n        /* \"FundMe.sol\":1018:1240  function fund() public payable {... */\n    tag_9:\n        /* \"FundMe.sol\":1200:1210  minimumUsd */\n      sload(0x00)\n        /* \"FundMe.sol\":1187:1196  msg.value */\n      callvalue\n        /* \"FundMe.sol\":1187:1210  msg.value >= minimumUsd */\n      lt\n      iszero\n        /* \"FundMe.sol\":1178:1233  require (msg.value >= minimumUsd, \"Didn't send enough\") */\n      tag_20\n      jumpi\n      mload(0x40)\n      0x08c379a000000000000000000000000000000000000000000000000000000000\n      dup2\n      mstore\n      0x04\n      add\n      tag_21\n      swap1\n      tag_22\n      jump\t// in\n    tag_21:\n      mload(0x40)\n      dup1\n      swap2\n      sub\n      swap1\n      revert\n    tag_20:\n        /* \"FundMe.sol\":1018:1240  function fund() public payable {... */\n      jump\t// out\n        /* \"FundMe.sol\":1483:1527  function getConversionRate() public {... */\n    tag_12:\n      jump\t// out\n        /* \"#utility.yul\":7:150   */\n    tag_25:\n        /* \"#utility.yul\":64:69   */\n      0x00\n        /* \"#utility.yul\":95:101   */\n      dup2\n        /* \"#utility.yul\":89:102   */\n      mload\n        /* \"#utility.yul\":80:102   */\n      swap1\n      pop\n        /* \"#utility.yul\":111:144   */\n      tag_27\n        /* \"#utility.yul\":138:143   */\n      dup2\n        /* \"#utility.yul\":111:144   */\n      tag_28\n      jump\t// in\n    tag_27:\n        /* \"#utility.yul\":7:150   */\n      swap3\n      swap2\n      pop\n      pop\n      jump\t// out\n        /* \"#utility.yul\":156:507   */\n    tag_18:\n        /* \"#utility.yul\":226:232   */\n      0x00\n        /* \"#utility.yul\":275:277   */\n      0x20\n        /* \"#utility.yul\":263:272   */\n      dup3\n        /* \"#utility.yul\":254:261   */\n      dup5\n        /* \"#utility.yul\":250:273   */\n      sub\n        /* \"#utility.yul\":246:278   */\n      slt\n        /* \"#utility.yul\":243:362   */\n      iszero\n      tag_30\n      jumpi\n        /* \"#utility.yul\":281:360   */\n      tag_31\n      tag_32\n      jump\t// in\n    tag_31:\n        /* \"#utility.yul\":243:362   */\n    tag_30:\n        /* \"#utility.yul\":401:402   */\n      0x00\n        /* \"#utility.yul\":426:490   */\n      tag_33\n        /* \"#utility.yul\":482:489   */\n      dup5\n        /* \"#utility.yul\":473:479   */\n      dup3\n        /* \"#utility.yul\":462:471   */\n      dup6\n        /* \"#utility.yul\":458:480   */\n      add\n        /* \"#utility.yul\":426:490   */\n      tag_25\n      jump\t// in\n    tag_33:\n        /* \"#utility.yul\":416:490   */\n      swap2\n      pop\n        /* \"#utility.yul\":372:500   */\n      pop\n        /* \"#utility.yul\":156:507   */\n      swap3\n      swap2\n      pop\n      pop\n      jump\t// out\n        /* \"#utility.yul\":513:879   */\n    tag_34:\n        /* \"#utility.yul\":655:658   */\n      0x00\n        /* \"#utility.yul\":676:743   */\n      tag_36\n        /* \"#utility.yul\":740:742   */\n      0x12\n        /* \"#utility.yul\":735:738   */\n      dup4\n        /* \"#utility.yul\":676:743   */\n      tag_37\n      jump\t// in\n    tag_36:\n        /* \"#utility.yul\":669:743   */\n      swap2\n      pop\n        /* \"#utility.yul\":752:845   */\n      tag_38\n        /* \"#utility.yul\":841:844   */\n      dup3\n        /* \"#utility.yul\":752:845   */\n      tag_39\n      jump\t// in\n    tag_38:\n        /* \"#utility.yul\":870:872   */\n      0x20\n        /* \"#utility.yul\":865:868   */\n      dup3\n        /* \"#utility.yul\":861:873   */\n      add\n        /* \"#utility.yul\":854:873   */\n      swap1\n      pop\n        /* \"#utility.yul\":513:879   */\n      swap2\n      swap1\n      pop\n      jump\t// out\n        /* \"#utility.yul\":885:1304   */\n    tag_22:\n        /* \"#utility.yul\":1051:1055   */\n      0x00\n        /* \"#utility.yul\":1089:1091   */\n      0x20\n        /* \"#utility.yul\":1078:1087   */\n      dup3\n        /* \"#utility.yul\":1074:1092   */\n      add\n        /* \"#utility.yul\":1066:1092   */\n      swap1\n      pop\n        /* \"#utility.yul\":1138:1147   */\n      dup2\n        /* \"#utility.yul\":1132:1136   */\n      dup2\n        /* \"#utility.yul\":1128:1148   */\n      sub\n        /* \"#utility.yul\":1124:1125   */\n      0x00\n        /* \"#utility.yul\":1113:1122   */\n      dup4\n        /* \"#utility.yul\":1109:1126   */\n      add\n        /* \"#utility.yul\":1102:1149   */\n      mstore\n        /* \"#utility.yul\":1166:1297   */\n      tag_41\n        /* \"#utility.yul\":1292:1296   */\n      dup2\n        /* \"#utility.yul\":1166:1297   */\n      tag_34\n      jump\t// in\n    tag_41:\n        /* \"#utility.yul\":1158:1297   */\n      swap1\n      pop\n        /* \"#utility.yul\":885:1304   */\n      swap2\n      swap1\n      pop\n      jump\t// out\n        /* \"#utility.yul\":1391:1560   */\n    tag_37:\n        /* \"#utility.yul\":1475:1486   */\n      0x00\n        /* \"#utility.yul\":1509:1515   */\n      dup3\n        /* \"#utility.yul\":1504:1507   */\n      dup3\n        /* \"#utility.yul\":1497:1516   */\n      mstore\n        /* \"#utility.yul\":1549:1553   */\n      0x20\n        /* \"#utility.yul\":1544:1547   */\n      dup3\n        /* \"#utility.yul\":1540:1554   */\n      add\n        /* \"#utility.yul\":1525:1554   */\n      swap1\n      pop\n        /* \"#utility.yul\":1391:1560   */\n      swap3\n      swap2\n      pop\n      pop\n      jump\t// out\n        /* \"#utility.yul\":1566:1643   */\n    tag_45:\n        /* \"#utility.yul\":1603:1610   */\n      0x00\n        /* \"#utility.yul\":1632:1637   */\n      dup2\n        /* \"#utility.yul\":1621:1637   */\n      swap1\n      pop\n        /* \"#utility.yul\":1566:1643   */\n      swap2\n      swap1\n      pop\n      jump\t// out\n        /* \"#utility.yul\":1772:1889   */\n    tag_32:\n        /* \"#utility.yul\":1881:1882   */\n      0x00\n        /* \"#utility.yul\":1878:1879   */\n      dup1\n        /* \"#utility.yul\":1871:1883   */\n      revert\n        /* \"#utility.yul\":1895:2063   */\n    tag_39:\n        /* \"#utility.yul\":2035:2055   */\n      0x4469646e27742073656e6420656e6f7567680000000000000000000000000000\n        /* \"#utility.yul\":2031:2032   */\n      0x00\n        /* \"#utility.yul\":2023:2029   */\n      dup3\n        /* \"#utility.yul\":2019:2033   */\n      add\n        /* \"#utility.yul\":2012:2056   */\n      mstore\n        /* \"#utility.yul\":1895:2063   */\n      pop\n      jump\t// out\n        /* \"#utility.yul\":2069:2191   */\n    tag_28:\n        /* \"#utility.yul\":2142:2166   */\n      tag_52\n        /* \"#utility.yul\":2160:2165   */\n      dup2\n        /* \"#utility.yul\":2142:2166   */\n      tag_45\n      jump\t// in\n    tag_52:\n        /* \"#utility.yul\":2135:2140   */\n      dup2\n        /* \"#utility.yul\":2132:2167   */\n      eq\n        /* \"#utility.yul\":2122:2185   */\n      tag_53\n      jumpi\n        /* \"#utility.yul\":2181:2182   */\n      0x00\n        /* \"#utility.yul\":2178:2179   */\n      dup1\n        /* \"#utility.yul\":2171:2183   */\n      revert\n        /* \"#utility.yul\":2122:2185   */\n    tag_53:\n        /* \"#utility.yul\":2069:2191   */\n      pop\n      jump\t// out\n\n    auxdata: 0xa2646970667358221220cec823834ace9800abc6fcd0a7a1f55ccdc8e0306367008076c55d11992a2bf064736f6c63430008070033\n}\n",
				"bytecode": {
					"linkReferences": {},
					"object": "6080604052603260005534801561001557600080fd5b5061026a806100256000396000f3fe6080604052600436106100345760003560e01c806398d5fdca14610039578063b60d428814610050578063f36089ec1461005a575b600080fd5b34801561004557600080fd5b5061004e610071565b005b610058610106565b005b34801561006657600080fd5b5061006f61014d565b005b738a753747a1fa494ec906ce90e9f37563a8af630e73ffffffffffffffffffffffffffffffffffffffff166354fd4d506040518163ffffffff1660e01b815260040160206040518083038186803b1580156100cb57600080fd5b505afa1580156100df573d6000803e3d6000fd5b505050506040513d601f19601f820116820180604052508101906101039190610164565b50565b60005434101561014b576040517f08c379a0000000000000000000000000000000000000000000000000000000008152600401610142906101b4565b60405180910390fd5b565b565b60008151905061015e8161021d565b92915050565b60006020828403121561017a576101796101ef565b5b60006101888482850161014f565b91505092915050565b600061019e6012836101d4565b91506101a9826101f4565b602082019050919050565b600060208201905081810360008301526101cd81610191565b9050919050565b600082825260208201905092915050565b6000819050919050565b600080fd5b7f4469646e27742073656e6420656e6f7567680000000000000000000000000000600082015250565b610226816101e5565b811461023157600080fd5b5056fea2646970667358221220cec823834ace9800abc6fcd0a7a1f55ccdc8e0306367008076c55d11992a2bf064736f6c63430008070033",
					"opcodes": "PUSH1 0x80 PUSH1 0x40 MSTORE PUSH1 0x32 PUSH1 0x0 SSTORE CALLVALUE DUP1 ISZERO PUSH2 0x15 JUMPI PUSH1 0x0 DUP1 REVERT JUMPDEST POP PUSH2 0x26A DUP1 PUSH2 0x25 PUSH1 0x0 CODECOPY PUSH1 0x0 RETURN INVALID PUSH1 0x80 PUSH1 0x40 MSTORE PUSH1 0x4 CALLDATASIZE LT PUSH2 0x34 JUMPI PUSH1 0x0 CALLDATALOAD PUSH1 0xE0 SHR DUP1 PUSH4 0x98D5FDCA EQ PUSH2 0x39 JUMPI DUP1 PUSH4 0xB60D4288 EQ PUSH2 0x50 JUMPI DUP1 PUSH4 0xF36089EC EQ PUSH2 0x5A JUMPI JUMPDEST PUSH1 0x0 DUP1 REVERT JUMPDEST CALLVALUE DUP1 ISZERO PUSH2 0x45 JUMPI PUSH1 0x0 DUP1 REVERT JUMPDEST POP PUSH2 0x4E PUSH2 0x71 JUMP JUMPDEST STOP JUMPDEST PUSH2 0x58 PUSH2 0x106 JUMP JUMPDEST STOP JUMPDEST CALLVALUE DUP1 ISZERO PUSH2 0x66 JUMPI PUSH1 0x0 DUP1 REVERT JUMPDEST POP PUSH2 0x6F PUSH2 0x14D JUMP JUMPDEST STOP JUMPDEST PUSH20 0x8A753747A1FA494EC906CE90E9F37563A8AF630E PUSH20 0xFFFFFFFFFFFFFFFFFFFFFFFFFFFFFFFFFFFFFFFF AND PUSH4 0x54FD4D50 PUSH1 0x40 MLOAD DUP2 PUSH4 0xFFFFFFFF AND PUSH1 0xE0 SHL DUP2 MSTORE PUSH1 0x4 ADD PUSH1 0x20 PUSH1 0x40 MLOAD DUP1 DUP4 SUB DUP2 DUP7 DUP1 EXTCODESIZE ISZERO DUP1 ISZERO PUSH2 0xCB JUMPI PUSH1 0x0 DUP1 REVERT JUMPDEST POP GAS STATICCALL ISZERO DUP1 ISZERO PUSH2 0xDF JUMPI RETURNDATASIZE PUSH1 0x0 DUP1 RETURNDATACOPY RETURNDATASIZE PUSH1 0x0 REVERT JUMPDEST POP POP POP POP PUSH1 0x40 MLOAD RETURNDATASIZE PUSH1 0x1F NOT PUSH1 0x1F DUP3 ADD AND DUP3 ADD DUP1 PUSH1 0x40 MSTORE POP DUP2 ADD SWAP1 PUSH2 0x103 SWAP2 SWAP1 PUSH2 0x164 JUMP JUMPDEST POP JUMP JUMPDEST PUSH1 0x0 SLOAD CALLVALUE LT ISZERO PUSH2 0x14B JUMPI PUSH1 0x40 MLOAD PUSH32 0x8C379A000000000000000000000000000000000000000000000000000000000 DUP2 MSTORE PUSH1 0x4 ADD PUSH2 0x142 SWAP1 PUSH2 0x1B4 JUMP JUMPDEST PUSH1 0x40 MLOAD DUP1 SWAP2 SUB SWAP1 REVERT JUMPDEST JUMP JUMPDEST JUMP JUMPDEST PUSH1 0x0 DUP2 MLOAD SWAP1 POP PUSH2 0x15E DUP2 PUSH2 0x21D JUMP JUMPDEST SWAP3 SWAP2 POP POP JUMP JUMPDEST PUSH1 0x0 PUSH1 0x20 DUP3 DUP5 SUB SLT ISZERO PUSH2 0x17A JUMPI PUSH2 0x179 PUSH2 0x1EF JUMP JUMPDEST JUMPDEST PUSH1 0x0 PUSH2 0x188 DUP5 DUP3 DUP6 ADD PUSH2 0x14F JUMP JUMPDEST SWAP2 POP POP SWAP3 SWAP2 POP POP JUMP JUMPDEST PUSH1 0x0 PUSH2 0x19E PUSH1 0x12 DUP4 PUSH2 0x1D4 JUMP JUMPDEST SWAP2 POP PUSH2 0x1A9 DUP3 PUSH2 0x1F4 JUMP JUMPDEST PUSH1 0x20 DUP3 ADD SWAP1 POP SWAP2 SWAP1 POP JUMP JUMPDEST PUSH1 0x0 PUSH1 0x20 DUP3 ADD SWAP1 POP DUP2 DUP2 SUB PUSH1 0x0 DUP4 ADD MSTORE PUSH2 0x1CD DUP2 PUSH2 0x191 JUMP JUMPDEST SWAP1 POP SWAP2 SWAP1 POP JUMP JUMPDEST PUSH1 0x0 DUP3 DUP3 MSTORE PUSH1 0x20 DUP3 ADD SWAP1 POP SWAP3 SWAP2 POP POP JUMP JUMPDEST PUSH1 0x0 DUP2 SWAP1 POP SWAP2 SWAP1 POP JUMP JUMPDEST PUSH1 0x0 DUP1 REVERT JUMPDEST PUSH32 0x4469646E27742073656E6420656E6F7567680000000000000000000000000000 PUSH1 0x0 DUP3 ADD MSTORE POP JUMP JUMPDEST PUSH2 0x226 DUP2 PUSH2 0x1E5 JUMP JUMPDEST DUP2 EQ PUSH2 0x231 JUMPI PUSH1 0x0 DUP1 REVERT JUMPDEST POP JUMP INVALID LOG2 PUSH5 0x6970667358 0x22 SLT KECCAK256 0xCE 0xC8 0x23 DUP4 0x4A 0xCE SWAP9 STOP 0xAB 0xC6 0xFC 0xD0 0xA7 LOG1 CREATE2 0x5C 0xCD 0xC8 0xE0 ADDRESS PUSH4 0x67008076 0xC5 0x5D GT SWAP10 0x2A 0x2B CREATE PUSH5 0x736F6C6343 STOP ADDMOD SMOD STOP CALLER "
				},
				"gasEstimates": {
					"creation": {
						"codeDepositCost": "123600",
						"executionCost": "22277",
						"totalCost": "145877"
					},
					"external": {
						"fund()": "2534",
						"getConversionRate()": "166",
						"getPrice()": "infinite"
					}
				},
				"methodIdentifiers": {
					"fund()": "b60d4288",
					"getConversionRate()": "f36089ec",
					"getPrice()": "98d5fdca"
				}
			},
			"storageLayout": {
				"storage": [
					{
						"astId": 48,
						"contract": "FundMe.sol:FundMe",
						"label": "minimumUsd",
						"offset": 0,
						"slot": "0",
						"type": "t_uint256"
					}
				],
				"types": {
					"t_uint256": {
						"encoding": "inplace",
						"label": "uint256",
						"numberOfBytes": "32"
					}
				}
			},
			"userdoc": {
				"kind": "user",
				"methods": {},
				"version": 1
			}
		}
	}
}