{
	"FundMe.sol": {
		"FundMe": {
			"abi": [
				{
					"inputs": [
						{
							"internalType": "address",
							"name": "",
							"type": "address"
						}
					],
					"name": "addressToAmountFunded",
					"outputs": [
						{
							"internalType": "uint256",
							"name": "",
							"type": "uint256"
						}
					],
					"stateMutability": "view",
					"type": "function"
				},
				{
					"inputs": [],
					"name": "fund",
					"outputs": [],
					"stateMutability": "payable",
					"type": "function"
				},
				{
					"inputs": [
						{
							"internalType": "uint256",
							"name": "",
							"type": "uint256"
						}
					],
					"name": "funders",
					"outputs": [
						{
							"internalType": "address",
							"name": "",
							"type": "address"
						}
					],
					"stateMutability": "view",
					"type": "function"
				},
				{
					"inputs": [],
					"name": "withdraw",
					"outputs": [],
					"stateMutability": "nonpayable",
					"type": "function"
				}
			],
			"devdoc": {
				"kind": "dev",
				"methods": {},
				"version": 1
			},
			"evm": {
				"assembly": "    /* \"FundMe.sol\":170:1454  contract FundMe {... */\n  mstore(0x40, 0x80)\n    /* \"FundMe.sol\":251:260  50 * 1e18 */\n  0x02b5e3af16b1880000\n    /* \"FundMe.sol\":230:260  uint256 minimumUsd = 50 * 1e18 */\n  0x00\n  sstore\n    /* \"FundMe.sol\":170:1454  contract FundMe {... */\n  callvalue\n  dup1\n  iszero\n  tag_1\n  jumpi\n  0x00\n  dup1\n  revert\ntag_1:\n  pop\n  dataSize(sub_0)\n  dup1\n  dataOffset(sub_0)\n  0x00\n  codecopy\n  0x00\n  return\nstop\n\nsub_0: assembly {\n        /* \"FundMe.sol\":170:1454  contract FundMe {... */\n      mstore(0x40, 0x80)\n      jumpi(tag_1, lt(calldatasize, 0x04))\n      shr(0xe0, calldataload(0x00))\n      dup1\n      0x3ccfd60b\n      eq\n      tag_2\n      jumpi\n      dup1\n      0x3e47d6f3\n      eq\n      tag_3\n      jumpi\n      dup1\n      0xb60d4288\n      eq\n      tag_4\n      jumpi\n      dup1\n      0xdc0d3dff\n      eq\n      tag_5\n      jumpi\n    tag_1:\n      0x00\n      dup1\n      revert\n        /* \"FundMe.sol\":744:1452  function withdraw() public {... */\n    tag_2:\n      callvalue\n      dup1\n      iszero\n      tag_6\n      jumpi\n      0x00\n      dup1\n      revert\n    tag_6:\n      pop\n      tag_7\n      tag_8\n      jump\t// in\n    tag_7:\n      stop\n        /* \"FundMe.sol\":298:354  mapping(address => uint256) public addressToAmountFunded */\n    tag_3:\n      callvalue\n      dup1\n      iszero\n      tag_9\n      jumpi\n      0x00\n      dup1\n      revert\n    tag_9:\n      pop\n      tag_10\n      0x04\n      dup1\n      calldatasize\n      sub\n      dup2\n      add\n      swap1\n      tag_11\n      swap2\n      swap1\n      tag_12\n      jump\t// in\n    tag_11:\n      tag_13\n      jump\t// in\n    tag_10:\n      mload(0x40)\n      tag_14\n      swap2\n      swap1\n      tag_15\n      jump\t// in\n    tag_14:\n      mload(0x40)\n      dup1\n      swap2\n      sub\n      swap1\n      return\n        /* \"FundMe.sol\":362:737  function fund() public payable {... */\n    tag_4:\n      tag_16\n      tag_17\n      jump\t// in\n    tag_16:\n      stop\n        /* \"FundMe.sol\":268:292  address[] public funders */\n    tag_5:\n      callvalue\n      dup1\n      iszero\n      tag_18\n      jumpi\n      0x00\n      dup1\n      revert\n    tag_18:\n      pop\n      tag_19\n      0x04\n      dup1\n      calldatasize\n      sub\n      dup2\n      add\n      swap1\n      tag_20\n      swap2\n      swap1\n      tag_21\n      jump\t// in\n    tag_20:\n      tag_22\n      jump\t// in\n    tag_19:\n      mload(0x40)\n      tag_23\n      swap2\n      swap1\n      tag_24\n      jump\t// in\n    tag_23:\n      mload(0x40)\n      dup1\n      swap2\n      sub\n      swap1\n      return\n        /* \"FundMe.sol\":744:1452  function withdraw() public {... */\n    tag_8:\n        /* \"FundMe.sol\":786:795  uint256 i */\n      0x00\n        /* \"FundMe.sol\":781:926  for (uint256 i = 0; i < funders.length; i++) {... */\n    tag_26:\n        /* \"FundMe.sol\":805:812  funders */\n      0x01\n        /* \"FundMe.sol\":805:819  funders.length */\n      dup1\n      sload\n      swap1\n      pop\n        /* \"FundMe.sol\":801:802  i */\n      dup2\n        /* \"FundMe.sol\":801:819  i < funders.length */\n      lt\n        /* \"FundMe.sol\":781:926  for (uint256 i = 0; i < funders.length; i++) {... */\n      iszero\n      tag_27\n      jumpi\n        /* \"FundMe.sol\":840:854  address funder */\n      0x00\n        /* \"FundMe.sol\":857:864  funders */\n      0x01\n        /* \"FundMe.sol\":865:866  i */\n      dup3\n        /* \"FundMe.sol\":857:867  funders[i] */\n      dup2\n      sload\n      dup2\n      lt\n      tag_29\n      jumpi\n      tag_30\n      tag_31\n      jump\t// in\n    tag_30:\n    tag_29:\n      swap1\n      0x00\n      mstore\n      keccak256(0x00, 0x20)\n      add\n      0x00\n      swap1\n      sload\n      swap1\n      0x0100\n      exp\n      swap1\n      div\n      0xffffffffffffffffffffffffffffffffffffffff\n      and\n        /* \"FundMe.sol\":840:867  address funder = funders[i] */\n      swap1\n      pop\n        /* \"FundMe.sol\":913:914  0 */\n      0x00\n        /* \"FundMe.sol\":881:902  addressToAmountFunded */\n      0x02\n        /* \"FundMe.sol\":881:910  addressToAmountFunded[funder] */\n      0x00\n        /* \"FundMe.sol\":903:909  funder */\n      dup4\n        /* \"FundMe.sol\":881:910  addressToAmountFunded[funder] */\n      0xffffffffffffffffffffffffffffffffffffffff\n      and\n      0xffffffffffffffffffffffffffffffffffffffff\n      and\n      dup2\n      mstore\n      0x20\n      add\n      swap1\n      dup2\n      mstore\n      0x20\n      add\n      0x00\n      keccak256\n        /* \"FundMe.sol\":881:914  addressToAmountFunded[funder] = 0 */\n      dup2\n      swap1\n      sstore\n      pop\n        /* \"FundMe.sol\":826:926  {... */\n      pop\n        /* \"FundMe.sol\":821:824  i++ */\n      dup1\n      dup1\n      tag_33\n      swap1\n      tag_34\n      jump\t// in\n    tag_33:\n      swap2\n      pop\n      pop\n        /* \"FundMe.sol\":781:926  for (uint256 i = 0; i < funders.length; i++) {... */\n      jump(tag_26)\n    tag_27:\n      pop\n        /* \"FundMe.sol\":987:988  0 */\n      0x00\n        /* \"FundMe.sol\":973:989  new address[](0) */\n      0xffffffffffffffff\n      dup2\n      gt\n      iszero\n      tag_35\n      jumpi\n      tag_36\n      tag_37\n      jump\t// in\n    tag_36:\n    tag_35:\n      mload(0x40)\n      swap1\n      dup1\n      dup3\n      mstore\n      dup1\n      0x20\n      mul\n      0x20\n      add\n      dup3\n      add\n      0x40\n      mstore\n      dup1\n      iszero\n      tag_38\n      jumpi\n      dup2\n      0x20\n      add\n      0x20\n      dup3\n      mul\n      dup1\n      calldatasize\n      dup4\n      calldatacopy\n      dup1\n      dup3\n      add\n      swap2\n      pop\n      pop\n      swap1\n      pop\n    tag_38:\n      pop\n        /* \"FundMe.sol\":963:970  funders */\n      0x01\n        /* \"FundMe.sol\":963:989  funders = new address[](0) */\n      swap1\n      dup1\n      mload\n      swap1\n      0x20\n      add\n      swap1\n      tag_39\n      swap3\n      swap2\n      swap1\n      tag_40\n      jump\t// in\n    tag_39:\n      pop\n        /* \"FundMe.sol\":1100:1110  msg.sender */\n      caller\n        /* \"FundMe.sol\":1092:1120  payable(msg.sender).transfer */\n      0xffffffffffffffffffffffffffffffffffffffff\n      and\n        /* \"FundMe.sol\":1092:1143  payable(msg.sender).transfer(address(this).balance) */\n      0x08fc\n        /* \"FundMe.sol\":1121:1142  address(this).balance */\n      selfbalance\n        /* \"FundMe.sol\":1092:1143  payable(msg.sender).transfer(address(this).balance) */\n      swap1\n      dup2\n      iszero\n      mul\n      swap1\n      mload(0x40)\n      0x00\n      mload(0x40)\n      dup1\n      dup4\n      sub\n      dup2\n      dup6\n      dup9\n      dup9\n      call\n      swap4\n      pop\n      pop\n      pop\n      pop\n      iszero\n      dup1\n      iszero\n      tag_42\n      jumpi\n      returndatasize\n      0x00\n      dup1\n      returndatacopy\n      revert(0x00, returndatasize)\n    tag_42:\n      pop\n        /* \"FundMe.sol\":1172:1188  bool sendSuccess */\n      0x00\n        /* \"FundMe.sol\":1199:1209  msg.sender */\n      caller\n        /* \"FundMe.sol\":1191:1215  payable(msg.sender).send */\n      0xffffffffffffffffffffffffffffffffffffffff\n      and\n        /* \"FundMe.sol\":1191:1238  payable(msg.sender).send(address(this).balance) */\n      0x08fc\n        /* \"FundMe.sol\":1216:1237  address(this).balance */\n      selfbalance\n        /* \"FundMe.sol\":1191:1238  payable(msg.sender).send(address(this).balance) */\n      swap1\n      dup2\n      iszero\n      mul\n      swap1\n      mload(0x40)\n      0x00\n      mload(0x40)\n      dup1\n      dup4\n      sub\n      dup2\n      dup6\n      dup9\n      dup9\n      call\n      swap4\n      pop\n      pop\n      pop\n      pop\n        /* \"FundMe.sol\":1172:1238  bool sendSuccess = payable(msg.sender).send(address(this).balance) */\n      swap1\n      pop\n        /* \"FundMe.sol\":1256:1267  sendSuccess */\n      dup1\n        /* \"FundMe.sol\":1248:1283  require(sendSuccess, \"Send failed\") */\n      tag_44\n      jumpi\n      mload(0x40)\n      0x08c379a000000000000000000000000000000000000000000000000000000000\n      dup2\n      mstore\n      0x04\n      add\n      tag_45\n      swap1\n      tag_46\n      jump\t// in\n    tag_45:\n      mload(0x40)\n      dup1\n      swap2\n      sub\n      swap1\n      revert\n    tag_44:\n        /* \"FundMe.sol\":1311:1327  bool callSuccess */\n      0x00\n        /* \"FundMe.sol\":1340:1350  msg.sender */\n      caller\n        /* \"FundMe.sol\":1332:1356  payable(msg.sender).call */\n      0xffffffffffffffffffffffffffffffffffffffff\n      and\n        /* \"FundMe.sol\":1364:1385  address(this).balance */\n      selfbalance\n        /* \"FundMe.sol\":1332:1390  payable(msg.sender).call{value: address(this).balance}(\"\") */\n      mload(0x40)\n      tag_47\n      swap1\n      tag_48\n      jump\t// in\n    tag_47:\n      0x00\n      mload(0x40)\n      dup1\n      dup4\n      sub\n      dup2\n      dup6\n      dup8\n      gas\n      call\n      swap3\n      pop\n      pop\n      pop\n      returndatasize\n      dup1\n      0x00\n      dup2\n      eq\n      tag_51\n      jumpi\n      mload(0x40)\n      swap2\n      pop\n      and(add(returndatasize, 0x3f), not(0x1f))\n      dup3\n      add\n      0x40\n      mstore\n      returndatasize\n      dup3\n      mstore\n      returndatasize\n      0x00\n      0x20\n      dup5\n      add\n      returndatacopy\n      jump(tag_50)\n    tag_51:\n      0x60\n      swap2\n      pop\n    tag_50:\n      pop\n        /* \"FundMe.sol\":1310:1390  (bool callSuccess,) = payable(msg.sender).call{value: address(this).balance}(\"\") */\n      pop\n      swap1\n      pop\n        /* \"FundMe.sol\":1409:1420  callSuccess */\n      dup1\n        /* \"FundMe.sol\":1400:1436  require (callSuccess, \"Call failed\") */\n      tag_52\n      jumpi\n      mload(0x40)\n      0x08c379a000000000000000000000000000000000000000000000000000000000\n      dup2\n      mstore\n      0x04\n      add\n      tag_53\n      swap1\n      tag_54\n      jump\t// in\n    tag_53:\n      mload(0x40)\n      dup1\n      swap2\n      sub\n      swap1\n      revert\n    tag_52:\n        /* \"FundMe.sol\":771:1452  {... */\n      pop\n      pop\n        /* \"FundMe.sol\":744:1452  function withdraw() public {... */\n      jump\t// out\n        /* \"FundMe.sol\":298:354  mapping(address => uint256) public addressToAmountFunded */\n    tag_13:\n      mstore(0x20, 0x02)\n      dup1\n      0x00\n      mstore\n      keccak256(0x00, 0x40)\n      0x00\n      swap2\n      pop\n      swap1\n      pop\n      sload\n      dup2\n      jump\t// out\n        /* \"FundMe.sol\":362:737  function fund() public payable {... */\n    tag_17:\n        /* \"FundMe.sol\":564:574  minimumUsd */\n      sload(0x00)\n        /* \"FundMe.sol\":531:560  msg.value.getConversionRate() */\n      tag_56\n        /* \"FundMe.sol\":531:540  msg.value */\n      callvalue\n        /* \"FundMe.sol\":531:558  msg.value.getConversionRate */\n      tag_57\n        /* \"FundMe.sol\":531:560  msg.value.getConversionRate() */\n      jump\t// in\n    tag_56:\n        /* \"FundMe.sol\":531:574  msg.value.getConversionRate() >= minimumUsd */\n      lt\n      iszero\n        /* \"FundMe.sol\":522:597  require (msg.value.getConversionRate() >= minimumUsd, \"Didn't send enough\") */\n      tag_58\n      jumpi\n      mload(0x40)\n      0x08c379a000000000000000000000000000000000000000000000000000000000\n      dup2\n      mstore\n      0x04\n      add\n      tag_59\n      swap1\n      tag_60\n      jump\t// in\n    tag_59:\n      mload(0x40)\n      dup1\n      swap2\n      sub\n      swap1\n      revert\n    tag_58:\n        /* \"FundMe.sol\":650:657  funders */\n      0x01\n        /* \"FundMe.sol\":663:673  msg.sender */\n      caller\n        /* \"FundMe.sol\":650:674  funders.push(msg.sender) */\n      swap1\n      dup1\n      0x01\n      dup2\n      sload\n      add\n      dup1\n      dup3\n      sstore\n      dup1\n      swap2\n      pop\n      pop\n      0x01\n      swap1\n      sub\n      swap1\n      0x00\n      mstore\n      keccak256(0x00, 0x20)\n      add\n      0x00\n      swap1\n      swap2\n      swap1\n      swap2\n      swap1\n      swap2\n      0x0100\n      exp\n      dup2\n      sload\n      dup2\n      0xffffffffffffffffffffffffffffffffffffffff\n      mul\n      not\n      and\n      swap1\n      dup4\n      0xffffffffffffffffffffffffffffffffffffffff\n      and\n      mul\n      or\n      swap1\n      sstore\n      pop\n        /* \"FundMe.sol\":720:729  msg.value */\n      callvalue\n        /* \"FundMe.sol\":684:705  addressToAmountFunded */\n      0x02\n        /* \"FundMe.sol\":684:717  addressToAmountFunded[msg.sender] */\n      0x00\n        /* \"FundMe.sol\":706:716  msg.sender */\n      caller\n        /* \"FundMe.sol\":684:717  addressToAmountFunded[msg.sender] */\n      0xffffffffffffffffffffffffffffffffffffffff\n      and\n      0xffffffffffffffffffffffffffffffffffffffff\n      and\n      dup2\n      mstore\n      0x20\n      add\n      swap1\n      dup2\n      mstore\n      0x20\n      add\n      0x00\n      keccak256\n        /* \"FundMe.sol\":684:729  addressToAmountFunded[msg.sender] = msg.value */\n      dup2\n      swap1\n      sstore\n      pop\n        /* \"FundMe.sol\":362:737  function fund() public payable {... */\n      jump\t// out\n        /* \"FundMe.sol\":268:292  address[] public funders */\n    tag_22:\n      0x01\n      dup2\n      dup2\n      sload\n      dup2\n      lt\n      tag_62\n      jumpi\n      0x00\n      dup1\n      revert\n    tag_62:\n      swap1\n      0x00\n      mstore\n      keccak256(0x00, 0x20)\n      add\n      0x00\n      swap2\n      pop\n      sload\n      swap1\n      0x0100\n      exp\n      swap1\n      div\n      0xffffffffffffffffffffffffffffffffffffffff\n      and\n      dup2\n      jump\t// out\n        /* \"PriceConverter.sol\":823:1045  function getConversionRate(uint256 ethAmount) internal view returns (uint256) {... */\n    tag_57:\n        /* \"PriceConverter.sol\":892:899  uint256 */\n      0x00\n        /* \"PriceConverter.sol\":911:927  uint256 ethPrice */\n      dup1\n        /* \"PriceConverter.sol\":930:940  getPrice() */\n      tag_65\n        /* \"PriceConverter.sol\":930:938  getPrice */\n      tag_66\n        /* \"PriceConverter.sol\":930:940  getPrice() */\n      jump\t// in\n    tag_65:\n        /* \"PriceConverter.sol\":911:940  uint256 ethPrice = getPrice() */\n      swap1\n      pop\n        /* \"PriceConverter.sol\":950:972  uint256 ethAmountInUsd */\n      0x00\n        /* \"PriceConverter.sol\":1000:1004  1e18 */\n      0x0de0b6b3a7640000\n        /* \"PriceConverter.sol\":987:996  ethAmount */\n      dup5\n        /* \"PriceConverter.sol\":976:984  ethPrice */\n      dup4\n        /* \"PriceConverter.sol\":976:996  ethPrice * ethAmount */\n      tag_67\n      swap2\n      swap1\n      tag_68\n      jump\t// in\n    tag_67:\n        /* \"PriceConverter.sol\":975:1004  (ethPrice * ethAmount) / 1e18 */\n      tag_69\n      swap2\n      swap1\n      tag_70\n      jump\t// in\n    tag_69:\n        /* \"PriceConverter.sol\":950:1004  uint256 ethAmountInUsd = (ethPrice * ethAmount) / 1e18 */\n      swap1\n      pop\n        /* \"PriceConverter.sol\":1023:1037  ethAmountInUsd */\n      dup1\n        /* \"PriceConverter.sol\":1016:1037  return ethAmountInUsd */\n      swap3\n      pop\n      pop\n      pop\n        /* \"PriceConverter.sol\":823:1045  function getConversionRate(uint256 ethAmount) internal view returns (uint256) {... */\n      swap2\n      swap1\n      pop\n      jump\t// out\n        /* \"PriceConverter.sol\":164:605  function getPrice() internal view returns (uint256) {... */\n    tag_66:\n        /* \"PriceConverter.sol\":207:214  uint256 */\n      0x00\n        /* \"PriceConverter.sol\":336:367  AggregatorV3Interface priceFeed */\n      dup1\n        /* \"PriceConverter.sol\":392:434  0x8A753747A1Fa494EC906cE90E9f37563A8AF630e */\n      0x8a753747a1fa494ec906ce90e9f37563a8af630e\n        /* \"PriceConverter.sol\":336:435  AggregatorV3Interface priceFeed = AggregatorV3Interface(0x8A753747A1Fa494EC906cE90E9f37563A8AF630e) */\n      swap1\n      pop\n        /* \"PriceConverter.sol\":446:455  int price */\n      0x00\n        /* \"PriceConverter.sol\":462:471  priceFeed */\n      dup2\n        /* \"PriceConverter.sol\":462:487  priceFeed.latestRoundData */\n      0xffffffffffffffffffffffffffffffffffffffff\n      and\n      0xfeaf968c\n        /* \"PriceConverter.sol\":462:489  priceFeed.latestRoundData() */\n      mload(0x40)\n      dup2\n      0xffffffff\n      and\n      0xe0\n      shl\n      dup2\n      mstore\n      0x04\n      add\n      0xa0\n      mload(0x40)\n      dup1\n      dup4\n      sub\n      dup2\n      dup7\n      dup1\n      extcodesize\n      iszero\n      dup1\n      iszero\n      tag_72\n      jumpi\n      0x00\n      dup1\n      revert\n    tag_72:\n      pop\n      gas\n      staticcall\n      iszero\n      dup1\n      iszero\n      tag_74\n      jumpi\n      returndatasize\n      0x00\n      dup1\n      returndatacopy\n      revert(0x00, returndatasize)\n    tag_74:\n      pop\n      pop\n      pop\n      pop\n      mload(0x40)\n      returndatasize\n      not(0x1f)\n      0x1f\n      dup3\n      add\n      and\n      dup3\n      add\n      dup1\n      0x40\n      mstore\n      pop\n      dup2\n      add\n      swap1\n      tag_75\n      swap2\n      swap1\n      tag_76\n      jump\t// in\n    tag_75:\n        /* \"PriceConverter.sol\":444:489  (,int price,,,) = priceFeed.latestRoundData() */\n      pop\n      pop\n      pop\n      swap2\n      pop\n      pop\n        /* \"PriceConverter.sol\":592:596  1e10 */\n      0x02540be400\n        /* \"PriceConverter.sol\":584:589  price */\n      dup2\n        /* \"PriceConverter.sol\":584:596  price * 1e10 */\n      tag_77\n      swap2\n      swap1\n      tag_78\n      jump\t// in\n    tag_77:\n        /* \"PriceConverter.sol\":569:597  return uint256(price * 1e10) */\n      swap3\n      pop\n      pop\n      pop\n        /* \"PriceConverter.sol\":164:605  function getPrice() internal view returns (uint256) {... */\n      swap1\n      jump\t// out\n    tag_40:\n      dup3\n      dup1\n      sload\n      dup3\n      dup3\n      sstore\n      swap1\n      0x00\n      mstore\n      keccak256(0x00, 0x20)\n      swap1\n      dup2\n      add\n      swap3\n      dup3\n      iszero\n      tag_79\n      jumpi\n      swap2\n      0x20\n      mul\n      dup3\n      add\n    tag_80:\n      dup3\n      dup2\n      gt\n      iszero\n      tag_81\n      jumpi\n      dup3\n      mload\n      dup3\n      exp(0x0100, 0x00)\n      dup2\n      sload\n      dup2\n      0xffffffffffffffffffffffffffffffffffffffff\n      mul\n      not\n      and\n      swap1\n      dup4\n      0xffffffffffffffffffffffffffffffffffffffff\n      and\n      mul\n      or\n      swap1\n      sstore\n      pop\n      swap2\n      0x20\n      add\n      swap2\n      swap1\n      0x01\n      add\n      swap1\n      jump(tag_80)\n    tag_81:\n    tag_79:\n      pop\n      swap1\n      pop\n      tag_82\n      swap2\n      swap1\n      tag_83\n      jump\t// in\n    tag_82:\n      pop\n      swap1\n      jump\t// out\n    tag_83:\n    tag_84:\n      dup1\n      dup3\n      gt\n      iszero\n      tag_85\n      jumpi\n      0x00\n      dup2\n      0x00\n      swap1\n      sstore\n      pop\n      0x01\n      add\n      jump(tag_84)\n    tag_85:\n      pop\n      swap1\n      jump\t// out\n        /* \"#utility.yul\":7:146   */\n    tag_87:\n        /* \"#utility.yul\":53:58   */\n      0x00\n        /* \"#utility.yul\":91:97   */\n      dup2\n        /* \"#utility.yul\":78:98   */\n      calldataload\n        /* \"#utility.yul\":69:98   */\n      swap1\n      pop\n        /* \"#utility.yul\":107:140   */\n      tag_89\n        /* \"#utility.yul\":134:139   */\n      dup2\n        /* \"#utility.yul\":107:140   */\n      tag_90\n      jump\t// in\n    tag_89:\n        /* \"#utility.yul\":7:146   */\n      swap3\n      swap2\n      pop\n      pop\n      jump\t// out\n        /* \"#utility.yul\":152:293   */\n    tag_91:\n        /* \"#utility.yul\":208:213   */\n      0x00\n        /* \"#utility.yul\":239:245   */\n      dup2\n        /* \"#utility.yul\":233:246   */\n      mload\n        /* \"#utility.yul\":224:246   */\n      swap1\n      pop\n        /* \"#utility.yul\":255:287   */\n      tag_93\n        /* \"#utility.yul\":281:286   */\n      dup2\n        /* \"#utility.yul\":255:287   */\n      tag_94\n      jump\t// in\n    tag_93:\n        /* \"#utility.yul\":152:293   */\n      swap3\n      swap2\n      pop\n      pop\n      jump\t// out\n        /* \"#utility.yul\":299:438   */\n    tag_95:\n        /* \"#utility.yul\":345:350   */\n      0x00\n        /* \"#utility.yul\":383:389   */\n      dup2\n        /* \"#utility.yul\":370:390   */\n      calldataload\n        /* \"#utility.yul\":361:390   */\n      swap1\n      pop\n        /* \"#utility.yul\":399:432   */\n      tag_97\n        /* \"#utility.yul\":426:431   */\n      dup2\n        /* \"#utility.yul\":399:432   */\n      tag_98\n      jump\t// in\n    tag_97:\n        /* \"#utility.yul\":299:438   */\n      swap3\n      swap2\n      pop\n      pop\n      jump\t// out\n        /* \"#utility.yul\":444:587   */\n    tag_99:\n        /* \"#utility.yul\":501:506   */\n      0x00\n        /* \"#utility.yul\":532:538   */\n      dup2\n        /* \"#utility.yul\":526:539   */\n      mload\n        /* \"#utility.yul\":517:539   */\n      swap1\n      pop\n        /* \"#utility.yul\":548:581   */\n      tag_101\n        /* \"#utility.yul\":575:580   */\n      dup2\n        /* \"#utility.yul\":548:581   */\n      tag_98\n      jump\t// in\n    tag_101:\n        /* \"#utility.yul\":444:587   */\n      swap3\n      swap2\n      pop\n      pop\n      jump\t// out\n        /* \"#utility.yul\":593:734   */\n    tag_102:\n        /* \"#utility.yul\":649:654   */\n      0x00\n        /* \"#utility.yul\":680:686   */\n      dup2\n        /* \"#utility.yul\":674:687   */\n      mload\n        /* \"#utility.yul\":665:687   */\n      swap1\n      pop\n        /* \"#utility.yul\":696:728   */\n      tag_104\n        /* \"#utility.yul\":722:727   */\n      dup2\n        /* \"#utility.yul\":696:728   */\n      tag_105\n      jump\t// in\n    tag_104:\n        /* \"#utility.yul\":593:734   */\n      swap3\n      swap2\n      pop\n      pop\n      jump\t// out\n        /* \"#utility.yul\":740:1069   */\n    tag_12:\n        /* \"#utility.yul\":799:805   */\n      0x00\n        /* \"#utility.yul\":848:850   */\n      0x20\n        /* \"#utility.yul\":836:845   */\n      dup3\n        /* \"#utility.yul\":827:834   */\n      dup5\n        /* \"#utility.yul\":823:846   */\n      sub\n        /* \"#utility.yul\":819:851   */\n      slt\n        /* \"#utility.yul\":816:935   */\n      iszero\n      tag_107\n      jumpi\n        /* \"#utility.yul\":854:933   */\n      tag_108\n      tag_109\n      jump\t// in\n    tag_108:\n        /* \"#utility.yul\":816:935   */\n    tag_107:\n        /* \"#utility.yul\":974:975   */\n      0x00\n        /* \"#utility.yul\":999:1052   */\n      tag_110\n        /* \"#utility.yul\":1044:1051   */\n      dup5\n        /* \"#utility.yul\":1035:1041   */\n      dup3\n        /* \"#utility.yul\":1024:1033   */\n      dup6\n        /* \"#utility.yul\":1020:1042   */\n      add\n        /* \"#utility.yul\":999:1052   */\n      tag_87\n      jump\t// in\n    tag_110:\n        /* \"#utility.yul\":989:1052   */\n      swap2\n      pop\n        /* \"#utility.yul\":945:1062   */\n      pop\n        /* \"#utility.yul\":740:1069   */\n      swap3\n      swap2\n      pop\n      pop\n      jump\t// out\n        /* \"#utility.yul\":1075:1404   */\n    tag_21:\n        /* \"#utility.yul\":1134:1140   */\n      0x00\n        /* \"#utility.yul\":1183:1185   */\n      0x20\n        /* \"#utility.yul\":1171:1180   */\n      dup3\n        /* \"#utility.yul\":1162:1169   */\n      dup5\n        /* \"#utility.yul\":1158:1181   */\n      sub\n        /* \"#utility.yul\":1154:1186   */\n      slt\n        /* \"#utility.yul\":1151:1270   */\n      iszero\n      tag_112\n      jumpi\n        /* \"#utility.yul\":1189:1268   */\n      tag_113\n      tag_109\n      jump\t// in\n    tag_113:\n        /* \"#utility.yul\":1151:1270   */\n    tag_112:\n        /* \"#utility.yul\":1309:1310   */\n      0x00\n        /* \"#utility.yul\":1334:1387   */\n      tag_114\n        /* \"#utility.yul\":1379:1386   */\n      dup5\n        /* \"#utility.yul\":1370:1376   */\n      dup3\n        /* \"#utility.yul\":1359:1368   */\n      dup6\n        /* \"#utility.yul\":1355:1377   */\n      add\n        /* \"#utility.yul\":1334:1387   */\n      tag_95\n      jump\t// in\n    tag_114:\n        /* \"#utility.yul\":1324:1387   */\n      swap2\n      pop\n        /* \"#utility.yul\":1280:1397   */\n      pop\n        /* \"#utility.yul\":1075:1404   */\n      swap3\n      swap2\n      pop\n      pop\n      jump\t// out\n        /* \"#utility.yul\":1410:2381   */\n    tag_76:\n        /* \"#utility.yul\":1513:1519   */\n      0x00\n        /* \"#utility.yul\":1521:1527   */\n      dup1\n        /* \"#utility.yul\":1529:1535   */\n      0x00\n        /* \"#utility.yul\":1537:1543   */\n      dup1\n        /* \"#utility.yul\":1545:1551   */\n      0x00\n        /* \"#utility.yul\":1594:1597   */\n      0xa0\n        /* \"#utility.yul\":1582:1591   */\n      dup7\n        /* \"#utility.yul\":1573:1580   */\n      dup9\n        /* \"#utility.yul\":1569:1592   */\n      sub\n        /* \"#utility.yul\":1565:1598   */\n      slt\n        /* \"#utility.yul\":1562:1682   */\n      iszero\n      tag_116\n      jumpi\n        /* \"#utility.yul\":1601:1680   */\n      tag_117\n      tag_109\n      jump\t// in\n    tag_117:\n        /* \"#utility.yul\":1562:1682   */\n    tag_116:\n        /* \"#utility.yul\":1721:1722   */\n      0x00\n        /* \"#utility.yul\":1746:1809   */\n      tag_118\n        /* \"#utility.yul\":1801:1808   */\n      dup9\n        /* \"#utility.yul\":1792:1798   */\n      dup3\n        /* \"#utility.yul\":1781:1790   */\n      dup10\n        /* \"#utility.yul\":1777:1799   */\n      add\n        /* \"#utility.yul\":1746:1809   */\n      tag_102\n      jump\t// in\n    tag_118:\n        /* \"#utility.yul\":1736:1809   */\n      swap6\n      pop\n        /* \"#utility.yul\":1692:1819   */\n      pop\n        /* \"#utility.yul\":1858:1860   */\n      0x20\n        /* \"#utility.yul\":1884:1947   */\n      tag_119\n        /* \"#utility.yul\":1939:1946   */\n      dup9\n        /* \"#utility.yul\":1930:1936   */\n      dup3\n        /* \"#utility.yul\":1919:1928   */\n      dup10\n        /* \"#utility.yul\":1915:1937   */\n      add\n        /* \"#utility.yul\":1884:1947   */\n      tag_91\n      jump\t// in\n    tag_119:\n        /* \"#utility.yul\":1874:1947   */\n      swap5\n      pop\n        /* \"#utility.yul\":1829:1957   */\n      pop\n        /* \"#utility.yul\":1996:1998   */\n      0x40\n        /* \"#utility.yul\":2022:2086   */\n      tag_120\n        /* \"#utility.yul\":2078:2085   */\n      dup9\n        /* \"#utility.yul\":2069:2075   */\n      dup3\n        /* \"#utility.yul\":2058:2067   */\n      dup10\n        /* \"#utility.yul\":2054:2076   */\n      add\n        /* \"#utility.yul\":2022:2086   */\n      tag_99\n      jump\t// in\n    tag_120:\n        /* \"#utility.yul\":2012:2086   */\n      swap4\n      pop\n        /* \"#utility.yul\":1967:2096   */\n      pop\n        /* \"#utility.yul\":2135:2137   */\n      0x60\n        /* \"#utility.yul\":2161:2225   */\n      tag_121\n        /* \"#utility.yul\":2217:2224   */\n      dup9\n        /* \"#utility.yul\":2208:2214   */\n      dup3\n        /* \"#utility.yul\":2197:2206   */\n      dup10\n        /* \"#utility.yul\":2193:2215   */\n      add\n        /* \"#utility.yul\":2161:2225   */\n      tag_99\n      jump\t// in\n    tag_121:\n        /* \"#utility.yul\":2151:2225   */\n      swap3\n      pop\n        /* \"#utility.yul\":2106:2235   */\n      pop\n        /* \"#utility.yul\":2274:2277   */\n      0x80\n        /* \"#utility.yul\":2301:2364   */\n      tag_122\n        /* \"#utility.yul\":2356:2363   */\n      dup9\n        /* \"#utility.yul\":2347:2353   */\n      dup3\n        /* \"#utility.yul\":2336:2345   */\n      dup10\n        /* \"#utility.yul\":2332:2354   */\n      add\n        /* \"#utility.yul\":2301:2364   */\n      tag_102\n      jump\t// in\n    tag_122:\n        /* \"#utility.yul\":2291:2364   */\n      swap2\n      pop\n        /* \"#utility.yul\":2245:2374   */\n      pop\n        /* \"#utility.yul\":1410:2381   */\n      swap3\n      swap6\n      pop\n      swap3\n      swap6\n      swap1\n      swap4\n      pop\n      jump\t// out\n        /* \"#utility.yul\":2387:2505   */\n    tag_123:\n        /* \"#utility.yul\":2474:2498   */\n      tag_125\n        /* \"#utility.yul\":2492:2497   */\n      dup2\n        /* \"#utility.yul\":2474:2498   */\n      tag_126\n      jump\t// in\n    tag_125:\n        /* \"#utility.yul\":2469:2472   */\n      dup3\n        /* \"#utility.yul\":2462:2499   */\n      mstore\n        /* \"#utility.yul\":2387:2505   */\n      pop\n      pop\n      jump\t// out\n        /* \"#utility.yul\":2511:2877   */\n    tag_127:\n        /* \"#utility.yul\":2653:2656   */\n      0x00\n        /* \"#utility.yul\":2674:2741   */\n      tag_129\n        /* \"#utility.yul\":2738:2740   */\n      0x0b\n        /* \"#utility.yul\":2733:2736   */\n      dup4\n        /* \"#utility.yul\":2674:2741   */\n      tag_130\n      jump\t// in\n    tag_129:\n        /* \"#utility.yul\":2667:2741   */\n      swap2\n      pop\n        /* \"#utility.yul\":2750:2843   */\n      tag_131\n        /* \"#utility.yul\":2839:2842   */\n      dup3\n        /* \"#utility.yul\":2750:2843   */\n      tag_132\n      jump\t// in\n    tag_131:\n        /* \"#utility.yul\":2868:2870   */\n      0x20\n        /* \"#utility.yul\":2863:2866   */\n      dup3\n        /* \"#utility.yul\":2859:2871   */\n      add\n        /* \"#utility.yul\":2852:2871   */\n      swap1\n      pop\n        /* \"#utility.yul\":2511:2877   */\n      swap2\n      swap1\n      pop\n      jump\t// out\n        /* \"#utility.yul\":2883:3249   */\n    tag_133:\n        /* \"#utility.yul\":3025:3028   */\n      0x00\n        /* \"#utility.yul\":3046:3113   */\n      tag_135\n        /* \"#utility.yul\":3110:3112   */\n      0x12\n        /* \"#utility.yul\":3105:3108   */\n      dup4\n        /* \"#utility.yul\":3046:3113   */\n      tag_130\n      jump\t// in\n    tag_135:\n        /* \"#utility.yul\":3039:3113   */\n      swap2\n      pop\n        /* \"#utility.yul\":3122:3215   */\n      tag_136\n        /* \"#utility.yul\":3211:3214   */\n      dup3\n        /* \"#utility.yul\":3122:3215   */\n      tag_137\n      jump\t// in\n    tag_136:\n        /* \"#utility.yul\":3240:3242   */\n      0x20\n        /* \"#utility.yul\":3235:3238   */\n      dup3\n        /* \"#utility.yul\":3231:3243   */\n      add\n        /* \"#utility.yul\":3224:3243   */\n      swap1\n      pop\n        /* \"#utility.yul\":2883:3249   */\n      swap2\n      swap1\n      pop\n      jump\t// out\n        /* \"#utility.yul\":3255:3621   */\n    tag_138:\n        /* \"#utility.yul\":3397:3400   */\n      0x00\n        /* \"#utility.yul\":3418:3485   */\n      tag_140\n        /* \"#utility.yul\":3482:3484   */\n      0x0b\n        /* \"#utility.yul\":3477:3480   */\n      dup4\n        /* \"#utility.yul\":3418:3485   */\n      tag_130\n      jump\t// in\n    tag_140:\n        /* \"#utility.yul\":3411:3485   */\n      swap2\n      pop\n        /* \"#utility.yul\":3494:3587   */\n      tag_141\n        /* \"#utility.yul\":3583:3586   */\n      dup3\n        /* \"#utility.yul\":3494:3587   */\n      tag_142\n      jump\t// in\n    tag_141:\n        /* \"#utility.yul\":3612:3614   */\n      0x20\n        /* \"#utility.yul\":3607:3610   */\n      dup3\n        /* \"#utility.yul\":3603:3615   */\n      add\n        /* \"#utility.yul\":3596:3615   */\n      swap1\n      pop\n        /* \"#utility.yul\":3255:3621   */\n      swap2\n      swap1\n      pop\n      jump\t// out\n        /* \"#utility.yul\":3627:4025   */\n    tag_143:\n        /* \"#utility.yul\":3786:3789   */\n      0x00\n        /* \"#utility.yul\":3807:3890   */\n      tag_145\n        /* \"#utility.yul\":3888:3889   */\n      0x00\n        /* \"#utility.yul\":3883:3886   */\n      dup4\n        /* \"#utility.yul\":3807:3890   */\n      tag_146\n      jump\t// in\n    tag_145:\n        /* \"#utility.yul\":3800:3890   */\n      swap2\n      pop\n        /* \"#utility.yul\":3899:3992   */\n      tag_147\n        /* \"#utility.yul\":3988:3991   */\n      dup3\n        /* \"#utility.yul\":3899:3992   */\n      tag_148\n      jump\t// in\n    tag_147:\n        /* \"#utility.yul\":4017:4018   */\n      0x00\n        /* \"#utility.yul\":4012:4015   */\n      dup3\n        /* \"#utility.yul\":4008:4019   */\n      add\n        /* \"#utility.yul\":4001:4019   */\n      swap1\n      pop\n        /* \"#utility.yul\":3627:4025   */\n      swap2\n      swap1\n      pop\n      jump\t// out\n        /* \"#utility.yul\":4031:4149   */\n    tag_149:\n        /* \"#utility.yul\":4118:4142   */\n      tag_151\n        /* \"#utility.yul\":4136:4141   */\n      dup2\n        /* \"#utility.yul\":4118:4142   */\n      tag_152\n      jump\t// in\n    tag_151:\n        /* \"#utility.yul\":4113:4116   */\n      dup3\n        /* \"#utility.yul\":4106:4143   */\n      mstore\n        /* \"#utility.yul\":4031:4149   */\n      pop\n      pop\n      jump\t// out\n        /* \"#utility.yul\":4155:4534   */\n    tag_48:\n        /* \"#utility.yul\":4339:4342   */\n      0x00\n        /* \"#utility.yul\":4361:4508   */\n      tag_154\n        /* \"#utility.yul\":4504:4507   */\n      dup3\n        /* \"#utility.yul\":4361:4508   */\n      tag_143\n      jump\t// in\n    tag_154:\n        /* \"#utility.yul\":4354:4508   */\n      swap2\n      pop\n        /* \"#utility.yul\":4525:4528   */\n      dup2\n        /* \"#utility.yul\":4518:4528   */\n      swap1\n      pop\n        /* \"#utility.yul\":4155:4534   */\n      swap2\n      swap1\n      pop\n      jump\t// out\n        /* \"#utility.yul\":4540:4762   */\n    tag_24:\n        /* \"#utility.yul\":4633:4637   */\n      0x00\n        /* \"#utility.yul\":4671:4673   */\n      0x20\n        /* \"#utility.yul\":4660:4669   */\n      dup3\n        /* \"#utility.yul\":4656:4674   */\n      add\n        /* \"#utility.yul\":4648:4674   */\n      swap1\n      pop\n        /* \"#utility.yul\":4684:4755   */\n      tag_156\n        /* \"#utility.yul\":4752:4753   */\n      0x00\n        /* \"#utility.yul\":4741:4750   */\n      dup4\n        /* \"#utility.yul\":4737:4754   */\n      add\n        /* \"#utility.yul\":4728:4734   */\n      dup5\n        /* \"#utility.yul\":4684:4755   */\n      tag_123\n      jump\t// in\n    tag_156:\n        /* \"#utility.yul\":4540:4762   */\n      swap3\n      swap2\n      pop\n      pop\n      jump\t// out\n        /* \"#utility.yul\":4768:5187   */\n    tag_54:\n        /* \"#utility.yul\":4934:4938   */\n      0x00\n        /* \"#utility.yul\":4972:4974   */\n      0x20\n        /* \"#utility.yul\":4961:4970   */\n      dup3\n        /* \"#utility.yul\":4957:4975   */\n      add\n        /* \"#utility.yul\":4949:4975   */\n      swap1\n      pop\n        /* \"#utility.yul\":5021:5030   */\n      dup2\n        /* \"#utility.yul\":5015:5019   */\n      dup2\n        /* \"#utility.yul\":5011:5031   */\n      sub\n        /* \"#utility.yul\":5007:5008   */\n      0x00\n        /* \"#utility.yul\":4996:5005   */\n      dup4\n        /* \"#utility.yul\":4992:5009   */\n      add\n        /* \"#utility.yul\":4985:5032   */\n      mstore\n        /* \"#utility.yul\":5049:5180   */\n      tag_158\n        /* \"#utility.yul\":5175:5179   */\n      dup2\n        /* \"#utility.yul\":5049:5180   */\n      tag_127\n      jump\t// in\n    tag_158:\n        /* \"#utility.yul\":5041:5180   */\n      swap1\n      pop\n        /* \"#utility.yul\":4768:5187   */\n      swap2\n      swap1\n      pop\n      jump\t// out\n        /* \"#utility.yul\":5193:5612   */\n    tag_60:\n        /* \"#utility.yul\":5359:5363   */\n      0x00\n        /* \"#utility.yul\":5397:5399   */\n      0x20\n        /* \"#utility.yul\":5386:5395   */\n      dup3\n        /* \"#utility.yul\":5382:5400   */\n      add\n        /* \"#utility.yul\":5374:5400   */\n      swap1\n      pop\n        /* \"#utility.yul\":5446:5455   */\n      dup2\n        /* \"#utility.yul\":5440:5444   */\n      dup2\n        /* \"#utility.yul\":5436:5456   */\n      sub\n        /* \"#utility.yul\":5432:5433   */\n      0x00\n        /* \"#utility.yul\":5421:5430   */\n      dup4\n        /* \"#utility.yul\":5417:5434   */\n      add\n        /* \"#utility.yul\":5410:5457   */\n      mstore\n        /* \"#utility.yul\":5474:5605   */\n      tag_160\n        /* \"#utility.yul\":5600:5604   */\n      dup2\n        /* \"#utility.yul\":5474:5605   */\n      tag_133\n      jump\t// in\n    tag_160:\n        /* \"#utility.yul\":5466:5605   */\n      swap1\n      pop\n        /* \"#utility.yul\":5193:5612   */\n      swap2\n      swap1\n      pop\n      jump\t// out\n        /* \"#utility.yul\":5618:6037   */\n    tag_46:\n        /* \"#utility.yul\":5784:5788   */\n      0x00\n        /* \"#utility.yul\":5822:5824   */\n      0x20\n        /* \"#utility.yul\":5811:5820   */\n      dup3\n        /* \"#utility.yul\":5807:5825   */\n      add\n        /* \"#utility.yul\":5799:5825   */\n      swap1\n      pop\n        /* \"#utility.yul\":5871:5880   */\n      dup2\n        /* \"#utility.yul\":5865:5869   */\n      dup2\n        /* \"#utility.yul\":5861:5881   */\n      sub\n        /* \"#utility.yul\":5857:5858   */\n      0x00\n        /* \"#utility.yul\":5846:5855   */\n      dup4\n        /* \"#utility.yul\":5842:5859   */\n      add\n        /* \"#utility.yul\":5835:5882   */\n      mstore\n        /* \"#utility.yul\":5899:6030   */\n      tag_162\n        /* \"#utility.yul\":6025:6029   */\n      dup2\n        /* \"#utility.yul\":5899:6030   */\n      tag_138\n      jump\t// in\n    tag_162:\n        /* \"#utility.yul\":5891:6030   */\n      swap1\n      pop\n        /* \"#utility.yul\":5618:6037   */\n      swap2\n      swap1\n      pop\n      jump\t// out\n        /* \"#utility.yul\":6043:6265   */\n    tag_15:\n        /* \"#utility.yul\":6136:6140   */\n      0x00\n        /* \"#utility.yul\":6174:6176   */\n      0x20\n        /* \"#utility.yul\":6163:6172   */\n      dup3\n        /* \"#utility.yul\":6159:6177   */\n      add\n        /* \"#utility.yul\":6151:6177   */\n      swap1\n      pop\n        /* \"#utility.yul\":6187:6258   */\n      tag_164\n        /* \"#utility.yul\":6255:6256   */\n      0x00\n        /* \"#utility.yul\":6244:6253   */\n      dup4\n        /* \"#utility.yul\":6240:6257   */\n      add\n        /* \"#utility.yul\":6231:6237   */\n      dup5\n        /* \"#utility.yul\":6187:6258   */\n      tag_149\n      jump\t// in\n    tag_164:\n        /* \"#utility.yul\":6043:6265   */\n      swap3\n      swap2\n      pop\n      pop\n      jump\t// out\n        /* \"#utility.yul\":6352:6499   */\n    tag_146:\n        /* \"#utility.yul\":6453:6464   */\n      0x00\n        /* \"#utility.yul\":6490:6493   */\n      dup2\n        /* \"#utility.yul\":6475:6493   */\n      swap1\n      pop\n        /* \"#utility.yul\":6352:6499   */\n      swap3\n      swap2\n      pop\n      pop\n      jump\t// out\n        /* \"#utility.yul\":6505:6674   */\n    tag_130:\n        /* \"#utility.yul\":6589:6600   */\n      0x00\n        /* \"#utility.yul\":6623:6629   */\n      dup3\n        /* \"#utility.yul\":6618:6621   */\n      dup3\n        /* \"#utility.yul\":6611:6630   */\n      mstore\n        /* \"#utility.yul\":6663:6667   */\n      0x20\n        /* \"#utility.yul\":6658:6661   */\n      dup3\n        /* \"#utility.yul\":6654:6668   */\n      add\n        /* \"#utility.yul\":6639:6668   */\n      swap1\n      pop\n        /* \"#utility.yul\":6505:6674   */\n      swap3\n      swap2\n      pop\n      pop\n      jump\t// out\n        /* \"#utility.yul\":6680:6865   */\n    tag_70:\n        /* \"#utility.yul\":6720:6721   */\n      0x00\n        /* \"#utility.yul\":6737:6757   */\n      tag_170\n        /* \"#utility.yul\":6755:6756   */\n      dup3\n        /* \"#utility.yul\":6737:6757   */\n      tag_152\n      jump\t// in\n    tag_170:\n        /* \"#utility.yul\":6732:6757   */\n      swap2\n      pop\n        /* \"#utility.yul\":6771:6791   */\n      tag_171\n        /* \"#utility.yul\":6789:6790   */\n      dup4\n        /* \"#utility.yul\":6771:6791   */\n      tag_152\n      jump\t// in\n    tag_171:\n        /* \"#utility.yul\":6766:6791   */\n      swap3\n      pop\n        /* \"#utility.yul\":6810:6811   */\n      dup3\n        /* \"#utility.yul\":6800:6835   */\n      tag_172\n      jumpi\n        /* \"#utility.yul\":6815:6833   */\n      tag_173\n      tag_174\n      jump\t// in\n    tag_173:\n        /* \"#utility.yul\":6800:6835   */\n    tag_172:\n        /* \"#utility.yul\":6857:6858   */\n      dup3\n        /* \"#utility.yul\":6854:6855   */\n      dup3\n        /* \"#utility.yul\":6850:6859   */\n      div\n        /* \"#utility.yul\":6845:6859   */\n      swap1\n      pop\n        /* \"#utility.yul\":6680:6865   */\n      swap3\n      swap2\n      pop\n      pop\n      jump\t// out\n        /* \"#utility.yul\":6871:7862   */\n    tag_78:\n        /* \"#utility.yul\":6910:6917   */\n      0x00\n        /* \"#utility.yul\":6933:6952   */\n      tag_176\n        /* \"#utility.yul\":6950:6951   */\n      dup3\n        /* \"#utility.yul\":6933:6952   */\n      tag_177\n      jump\t// in\n    tag_176:\n        /* \"#utility.yul\":6928:6952   */\n      swap2\n      pop\n        /* \"#utility.yul\":6966:6985   */\n      tag_178\n        /* \"#utility.yul\":6983:6984   */\n      dup4\n        /* \"#utility.yul\":6966:6985   */\n      tag_177\n      jump\t// in\n    tag_178:\n        /* \"#utility.yul\":6961:6985   */\n      swap3\n      pop\n        /* \"#utility.yul\":7167:7168   */\n      dup3\n        /* \"#utility.yul\":7099:7165   */\n      0x7fffffffffffffffffffffffffffffffffffffffffffffffffffffffffffffff\n        /* \"#utility.yul\":7095:7169   */\n      div\n        /* \"#utility.yul\":7092:7093   */\n      dup3\n        /* \"#utility.yul\":7089:7170   */\n      gt\n        /* \"#utility.yul\":7084:7085   */\n      0x00\n        /* \"#utility.yul\":7081:7082   */\n      dup5\n        /* \"#utility.yul\":7077:7086   */\n      sgt\n        /* \"#utility.yul\":7073:7074   */\n      0x00\n        /* \"#utility.yul\":7070:7071   */\n      dup5\n        /* \"#utility.yul\":7066:7075   */\n      sgt\n        /* \"#utility.yul\":7062:7087   */\n      and\n        /* \"#utility.yul\":7058:7171   */\n      and\n        /* \"#utility.yul\":7055:7194   */\n      iszero\n      tag_179\n      jumpi\n        /* \"#utility.yul\":7174:7192   */\n      tag_180\n      tag_181\n      jump\t// in\n    tag_180:\n        /* \"#utility.yul\":7055:7194   */\n    tag_179:\n        /* \"#utility.yul\":7378:7379   */\n      dup2\n        /* \"#utility.yul\":7310:7376   */\n      0x8000000000000000000000000000000000000000000000000000000000000000\n        /* \"#utility.yul\":7305:7380   */\n      sdiv\n        /* \"#utility.yul\":7302:7303   */\n      dup4\n        /* \"#utility.yul\":7298:7381   */\n      slt\n        /* \"#utility.yul\":7293:7294   */\n      0x00\n        /* \"#utility.yul\":7290:7291   */\n      dup5\n        /* \"#utility.yul\":7286:7295   */\n      slt\n        /* \"#utility.yul\":7282:7283   */\n      0x00\n        /* \"#utility.yul\":7279:7280   */\n      dup5\n        /* \"#utility.yul\":7275:7284   */\n      sgt\n        /* \"#utility.yul\":7271:7296   */\n      and\n        /* \"#utility.yul\":7267:7382   */\n      and\n        /* \"#utility.yul\":7264:7405   */\n      iszero\n      tag_182\n      jumpi\n        /* \"#utility.yul\":7385:7403   */\n      tag_183\n      tag_181\n      jump\t// in\n    tag_183:\n        /* \"#utility.yul\":7264:7405   */\n    tag_182:\n        /* \"#utility.yul\":7589:7590   */\n      dup3\n        /* \"#utility.yul\":7521:7587   */\n      0x8000000000000000000000000000000000000000000000000000000000000000\n        /* \"#utility.yul\":7516:7591   */\n      sdiv\n        /* \"#utility.yul\":7513:7514   */\n      dup3\n        /* \"#utility.yul\":7509:7592   */\n      slt\n        /* \"#utility.yul\":7504:7505   */\n      0x00\n        /* \"#utility.yul\":7501:7502   */\n      dup5\n        /* \"#utility.yul\":7497:7506   */\n      sgt\n        /* \"#utility.yul\":7493:7494   */\n      0x00\n        /* \"#utility.yul\":7490:7491   */\n      dup5\n        /* \"#utility.yul\":7486:7495   */\n      slt\n        /* \"#utility.yul\":7482:7507   */\n      and\n        /* \"#utility.yul\":7478:7593   */\n      and\n        /* \"#utility.yul\":7475:7616   */\n      iszero\n      tag_184\n      jumpi\n        /* \"#utility.yul\":7596:7614   */\n      tag_185\n      tag_181\n      jump\t// in\n    tag_185:\n        /* \"#utility.yul\":7475:7616   */\n    tag_184:\n        /* \"#utility.yul\":7799:7800   */\n      dup3\n        /* \"#utility.yul\":7731:7797   */\n      0x7fffffffffffffffffffffffffffffffffffffffffffffffffffffffffffffff\n        /* \"#utility.yul\":7726:7801   */\n      sdiv\n        /* \"#utility.yul\":7723:7724   */\n      dup3\n        /* \"#utility.yul\":7719:7802   */\n      slt\n        /* \"#utility.yul\":7714:7715   */\n      0x00\n        /* \"#utility.yul\":7711:7712   */\n      dup5\n        /* \"#utility.yul\":7707:7716   */\n      slt\n        /* \"#utility.yul\":7703:7704   */\n      0x00\n        /* \"#utility.yul\":7700:7701   */\n      dup5\n        /* \"#utility.yul\":7696:7705   */\n      slt\n        /* \"#utility.yul\":7692:7717   */\n      and\n        /* \"#utility.yul\":7688:7803   */\n      and\n        /* \"#utility.yul\":7685:7826   */\n      iszero\n      tag_186\n      jumpi\n        /* \"#utility.yul\":7806:7824   */\n      tag_187\n      tag_181\n      jump\t// in\n    tag_187:\n        /* \"#utility.yul\":7685:7826   */\n    tag_186:\n        /* \"#utility.yul\":7854:7855   */\n      dup3\n        /* \"#utility.yul\":7851:7852   */\n      dup3\n        /* \"#utility.yul\":7847:7856   */\n      mul\n        /* \"#utility.yul\":7836:7856   */\n      swap1\n      pop\n        /* \"#utility.yul\":6871:7862   */\n      swap3\n      swap2\n      pop\n      pop\n      jump\t// out\n        /* \"#utility.yul\":7868:8216   */\n    tag_68:\n        /* \"#utility.yul\":7908:7915   */\n      0x00\n        /* \"#utility.yul\":7931:7951   */\n      tag_189\n        /* \"#utility.yul\":7949:7950   */\n      dup3\n        /* \"#utility.yul\":7931:7951   */\n      tag_152\n      jump\t// in\n    tag_189:\n        /* \"#utility.yul\":7926:7951   */\n      swap2\n      pop\n        /* \"#utility.yul\":7965:7985   */\n      tag_190\n        /* \"#utility.yul\":7983:7984   */\n      dup4\n        /* \"#utility.yul\":7965:7985   */\n      tag_152\n      jump\t// in\n    tag_190:\n        /* \"#utility.yul\":7960:7985   */\n      swap3\n      pop\n        /* \"#utility.yul\":8153:8154   */\n      dup2\n        /* \"#utility.yul\":8085:8151   */\n      0xffffffffffffffffffffffffffffffffffffffffffffffffffffffffffffffff\n        /* \"#utility.yul\":8081:8155   */\n      div\n        /* \"#utility.yul\":8078:8079   */\n      dup4\n        /* \"#utility.yul\":8075:8156   */\n      gt\n        /* \"#utility.yul\":8070:8071   */\n      dup3\n        /* \"#utility.yul\":8063:8072   */\n      iszero\n        /* \"#utility.yul\":8056:8073   */\n      iszero\n        /* \"#utility.yul\":8052:8157   */\n      and\n        /* \"#utility.yul\":8049:8180   */\n      iszero\n      tag_191\n      jumpi\n        /* \"#utility.yul\":8160:8178   */\n      tag_192\n      tag_181\n      jump\t// in\n    tag_192:\n        /* \"#utility.yul\":8049:8180   */\n    tag_191:\n        /* \"#utility.yul\":8208:8209   */\n      dup3\n        /* \"#utility.yul\":8205:8206   */\n      dup3\n        /* \"#utility.yul\":8201:8210   */\n      mul\n        /* \"#utility.yul\":8190:8210   */\n      swap1\n      pop\n        /* \"#utility.yul\":7868:8216   */\n      swap3\n      swap2\n      pop\n      pop\n      jump\t// out\n        /* \"#utility.yul\":8222:8318   */\n    tag_126:\n        /* \"#utility.yul\":8259:8266   */\n      0x00\n        /* \"#utility.yul\":8288:8312   */\n      tag_194\n        /* \"#utility.yul\":8306:8311   */\n      dup3\n        /* \"#utility.yul\":8288:8312   */\n      tag_195\n      jump\t// in\n    tag_194:\n        /* \"#utility.yul\":8277:8312   */\n      swap1\n      pop\n        /* \"#utility.yul\":8222:8318   */\n      swap2\n      swap1\n      pop\n      jump\t// out\n        /* \"#utility.yul\":8324:8400   */\n    tag_177:\n        /* \"#utility.yul\":8360:8367   */\n      0x00\n        /* \"#utility.yul\":8389:8394   */\n      dup2\n        /* \"#utility.yul\":8378:8394   */\n      swap1\n      pop\n        /* \"#utility.yul\":8324:8400   */\n      swap2\n      swap1\n      pop\n      jump\t// out\n        /* \"#utility.yul\":8406:8532   */\n    tag_195:\n        /* \"#utility.yul\":8443:8450   */\n      0x00\n        /* \"#utility.yul\":8483:8525   */\n      0xffffffffffffffffffffffffffffffffffffffff\n        /* \"#utility.yul\":8476:8481   */\n      dup3\n        /* \"#utility.yul\":8472:8526   */\n      and\n        /* \"#utility.yul\":8461:8526   */\n      swap1\n      pop\n        /* \"#utility.yul\":8406:8532   */\n      swap2\n      swap1\n      pop\n      jump\t// out\n        /* \"#utility.yul\":8538:8615   */\n    tag_152:\n        /* \"#utility.yul\":8575:8582   */\n      0x00\n        /* \"#utility.yul\":8604:8609   */\n      dup2\n        /* \"#utility.yul\":8593:8609   */\n      swap1\n      pop\n        /* \"#utility.yul\":8538:8615   */\n      swap2\n      swap1\n      pop\n      jump\t// out\n        /* \"#utility.yul\":8621:8726   */\n    tag_199:\n        /* \"#utility.yul\":8657:8664   */\n      0x00\n        /* \"#utility.yul\":8697:8719   */\n      0xffffffffffffffffffff\n        /* \"#utility.yul\":8690:8695   */\n      dup3\n        /* \"#utility.yul\":8686:8720   */\n      and\n        /* \"#utility.yul\":8675:8720   */\n      swap1\n      pop\n        /* \"#utility.yul\":8621:8726   */\n      swap2\n      swap1\n      pop\n      jump\t// out\n        /* \"#utility.yul\":8732:8965   */\n    tag_34:\n        /* \"#utility.yul\":8771:8774   */\n      0x00\n        /* \"#utility.yul\":8794:8818   */\n      tag_202\n        /* \"#utility.yul\":8812:8817   */\n      dup3\n        /* \"#utility.yul\":8794:8818   */\n      tag_152\n      jump\t// in\n    tag_202:\n        /* \"#utility.yul\":8785:8818   */\n      swap2\n      pop\n        /* \"#utility.yul\":8840:8906   */\n      0xffffffffffffffffffffffffffffffffffffffffffffffffffffffffffffffff\n        /* \"#utility.yul\":8833:8838   */\n      dup3\n        /* \"#utility.yul\":8830:8907   */\n      eq\n        /* \"#utility.yul\":8827:8930   */\n      iszero\n      tag_203\n      jumpi\n        /* \"#utility.yul\":8910:8928   */\n      tag_204\n      tag_181\n      jump\t// in\n    tag_204:\n        /* \"#utility.yul\":8827:8930   */\n    tag_203:\n        /* \"#utility.yul\":8957:8958   */\n      0x01\n        /* \"#utility.yul\":8950:8955   */\n      dup3\n        /* \"#utility.yul\":8946:8959   */\n      add\n        /* \"#utility.yul\":8939:8959   */\n      swap1\n      pop\n        /* \"#utility.yul\":8732:8965   */\n      swap2\n      swap1\n      pop\n      jump\t// out\n        /* \"#utility.yul\":8971:9151   */\n    tag_181:\n        /* \"#utility.yul\":9019:9096   */\n      0x4e487b7100000000000000000000000000000000000000000000000000000000\n        /* \"#utility.yul\":9016:9017   */\n      0x00\n        /* \"#utility.yul\":9009:9097   */\n      mstore\n        /* \"#utility.yul\":9116:9120   */\n      0x11\n        /* \"#utility.yul\":9113:9114   */\n      0x04\n        /* \"#utility.yul\":9106:9121   */\n      mstore\n        /* \"#utility.yul\":9140:9144   */\n      0x24\n        /* \"#utility.yul\":9137:9138   */\n      0x00\n        /* \"#utility.yul\":9130:9145   */\n      revert\n        /* \"#utility.yul\":9157:9337   */\n    tag_174:\n        /* \"#utility.yul\":9205:9282   */\n      0x4e487b7100000000000000000000000000000000000000000000000000000000\n        /* \"#utility.yul\":9202:9203   */\n      0x00\n        /* \"#utility.yul\":9195:9283   */\n      mstore\n        /* \"#utility.yul\":9302:9306   */\n      0x12\n        /* \"#utility.yul\":9299:9300   */\n      0x04\n        /* \"#utility.yul\":9292:9307   */\n      mstore\n        /* \"#utility.yul\":9326:9330   */\n      0x24\n        /* \"#utility.yul\":9323:9324   */\n      0x00\n        /* \"#utility.yul\":9316:9331   */\n      revert\n        /* \"#utility.yul\":9343:9523   */\n    tag_31:\n        /* \"#utility.yul\":9391:9468   */\n      0x4e487b7100000000000000000000000000000000000000000000000000000000\n        /* \"#utility.yul\":9388:9389   */\n      0x00\n        /* \"#utility.yul\":9381:9469   */\n      mstore\n        /* \"#utility.yul\":9488:9492   */\n      0x32\n        /* \"#utility.yul\":9485:9486   */\n      0x04\n        /* \"#utility.yul\":9478:9493   */\n      mstore\n        /* \"#utility.yul\":9512:9516   */\n      0x24\n        /* \"#utility.yul\":9509:9510   */\n      0x00\n        /* \"#utility.yul\":9502:9517   */\n      revert\n        /* \"#utility.yul\":9529:9709   */\n    tag_37:\n        /* \"#utility.yul\":9577:9654   */\n      0x4e487b7100000000000000000000000000000000000000000000000000000000\n        /* \"#utility.yul\":9574:9575   */\n      0x00\n        /* \"#utility.yul\":9567:9655   */\n      mstore\n        /* \"#utility.yul\":9674:9678   */\n      0x41\n        /* \"#utility.yul\":9671:9672   */\n      0x04\n        /* \"#utility.yul\":9664:9679   */\n      mstore\n        /* \"#utility.yul\":9698:9702   */\n      0x24\n        /* \"#utility.yul\":9695:9696   */\n      0x00\n        /* \"#utility.yul\":9688:9703   */\n      revert\n        /* \"#utility.yul\":9838:9955   */\n    tag_109:\n        /* \"#utility.yul\":9947:9948   */\n      0x00\n        /* \"#utility.yul\":9944:9945   */\n      dup1\n        /* \"#utility.yul\":9937:9949   */\n      revert\n        /* \"#utility.yul\":9961:10122   */\n    tag_132:\n        /* \"#utility.yul\":10101:10114   */\n      0x43616c6c206661696c6564000000000000000000000000000000000000000000\n        /* \"#utility.yul\":10097:10098   */\n      0x00\n        /* \"#utility.yul\":10089:10095   */\n      dup3\n        /* \"#utility.yul\":10085:10099   */\n      add\n        /* \"#utility.yul\":10078:10115   */\n      mstore\n        /* \"#utility.yul\":9961:10122   */\n      pop\n      jump\t// out\n        /* \"#utility.yul\":10128:10296   */\n    tag_137:\n        /* \"#utility.yul\":10268:10288   */\n      0x4469646e27742073656e6420656e6f7567680000000000000000000000000000\n        /* \"#utility.yul\":10264:10265   */\n      0x00\n        /* \"#utility.yul\":10256:10262   */\n      dup3\n        /* \"#utility.yul\":10252:10266   */\n      add\n        /* \"#utility.yul\":10245:10289   */\n      mstore\n        /* \"#utility.yul\":10128:10296   */\n      pop\n      jump\t// out\n        /* \"#utility.yul\":10302:10463   */\n    tag_142:\n        /* \"#utility.yul\":10442:10455   */\n      0x53656e64206661696c6564000000000000000000000000000000000000000000\n        /* \"#utility.yul\":10438:10439   */\n      0x00\n        /* \"#utility.yul\":10430:10436   */\n      dup3\n        /* \"#utility.yul\":10426:10440   */\n      add\n        /* \"#utility.yul\":10419:10456   */\n      mstore\n        /* \"#utility.yul\":10302:10463   */\n      pop\n      jump\t// out\n        /* \"#utility.yul\":10469:10583   */\n    tag_148:\n      pop\n      jump\t// out\n        /* \"#utility.yul\":10589:10711   */\n    tag_90:\n        /* \"#utility.yul\":10662:10686   */\n      tag_217\n        /* \"#utility.yul\":10680:10685   */\n      dup2\n        /* \"#utility.yul\":10662:10686   */\n      tag_126\n      jump\t// in\n    tag_217:\n        /* \"#utility.yul\":10655:10660   */\n      dup2\n        /* \"#utility.yul\":10652:10687   */\n      eq\n        /* \"#utility.yul\":10642:10705   */\n      tag_218\n      jumpi\n        /* \"#utility.yul\":10701:10702   */\n      0x00\n        /* \"#utility.yul\":10698:10699   */\n      dup1\n        /* \"#utility.yul\":10691:10703   */\n      revert\n        /* \"#utility.yul\":10642:10705   */\n    tag_218:\n        /* \"#utility.yul\":10589:10711   */\n      pop\n      jump\t// out\n        /* \"#utility.yul\":10717:10837   */\n    tag_94:\n        /* \"#utility.yul\":10789:10812   */\n      tag_220\n        /* \"#utility.yul\":10806:10811   */\n      dup2\n        /* \"#utility.yul\":10789:10812   */\n      tag_177\n      jump\t// in\n    tag_220:\n        /* \"#utility.yul\":10782:10787   */\n      dup2\n        /* \"#utility.yul\":10779:10813   */\n      eq\n        /* \"#utility.yul\":10769:10831   */\n      tag_221\n      jumpi\n        /* \"#utility.yul\":10827:10828   */\n      0x00\n        /* \"#utility.yul\":10824:10825   */\n      dup1\n        /* \"#utility.yul\":10817:10829   */\n      revert\n        /* \"#utility.yul\":10769:10831   */\n    tag_221:\n        /* \"#utility.yul\":10717:10837   */\n      pop\n      jump\t// out\n        /* \"#utility.yul\":10843:10965   */\n    tag_98:\n        /* \"#utility.yul\":10916:10940   */\n      tag_223\n        /* \"#utility.yul\":10934:10939   */\n      dup2\n        /* \"#utility.yul\":10916:10940   */\n      tag_152\n      jump\t// in\n    tag_223:\n        /* \"#utility.yul\":10909:10914   */\n      dup2\n        /* \"#utility.yul\":10906:10941   */\n      eq\n        /* \"#utility.yul\":10896:10959   */\n      tag_224\n      jumpi\n        /* \"#utility.yul\":10955:10956   */\n      0x00\n        /* \"#utility.yul\":10952:10953   */\n      dup1\n        /* \"#utility.yul\":10945:10957   */\n      revert\n        /* \"#utility.yul\":10896:10959   */\n    tag_224:\n        /* \"#utility.yul\":10843:10965   */\n      pop\n      jump\t// out\n        /* \"#utility.yul\":10971:11091   */\n    tag_105:\n        /* \"#utility.yul\":11043:11066   */\n      tag_226\n        /* \"#utility.yul\":11060:11065   */\n      dup2\n        /* \"#utility.yul\":11043:11066   */\n      tag_199\n      jump\t// in\n    tag_226:\n        /* \"#utility.yul\":11036:11041   */\n      dup2\n        /* \"#utility.yul\":11033:11067   */\n      eq\n        /* \"#utility.yul\":11023:11085   */\n      tag_227\n      jumpi\n        /* \"#utility.yul\":11081:11082   */\n      0x00\n        /* \"#utility.yul\":11078:11079   */\n      dup1\n        /* \"#utility.yul\":11071:11083   */\n      revert\n        /* \"#utility.yul\":11023:11085   */\n    tag_227:\n        /* \"#utility.yul\":10971:11091   */\n      pop\n      jump\t// out\n\n    auxdata: 0xa26469706673582212209ba4e2061fa7e8401c67d856f2f9fa8cdcb7fb39d0db84d8f026c07278bbcf5a64736f6c63430008070033\n}\n",
				"bytecode": {
					"linkReferences": {},
					"object": "60806040526802b5e3af16b188000060005534801561001d57600080fd5b50610d098061002d6000396000f3fe60806040526004361061003f5760003560e01c80633ccfd60b146100445780633e47d6f31461005b578063b60d428814610098578063dc0d3dff146100a2575b600080fd5b34801561005057600080fd5b506100596100df565b005b34801561006757600080fd5b50610082600480360381019061007d91906106ab565b61035c565b60405161008f91906108ba565b60405180910390f35b6100a0610374565b005b3480156100ae57600080fd5b506100c960048036038101906100c491906106d8565b61046a565b6040516100d6919061083f565b60405180910390f35b60005b60018054905081101561018b5760006001828154811061010557610104610b96565b5b9060005260206000200160009054906101000a900473ffffffffffffffffffffffffffffffffffffffff1690506000600260008373ffffffffffffffffffffffffffffffffffffffff1673ffffffffffffffffffffffffffffffffffffffff1681526020019081526020016000208190555050808061018390610aef565b9150506100e2565b50600067ffffffffffffffff8111156101a7576101a6610bc5565b5b6040519080825280602002602001820160405280156101d55781602001602082028036833780820191505090505b50600190805190602001906101eb92919061059b565b503373ffffffffffffffffffffffffffffffffffffffff166108fc479081150290604051600060405180830381858888f19350505050158015610232573d6000803e3d6000fd5b5060003373ffffffffffffffffffffffffffffffffffffffff166108fc479081150290604051600060405180830381858888f193505050509050806102ac576040517f08c379a00000000000000000000000000000000000000000000000000000000081526004016102a39061089a565b60405180910390fd5b60003373ffffffffffffffffffffffffffffffffffffffff16476040516102d29061082a565b60006040518083038185875af1925050503d806000811461030f576040519150601f19603f3d011682016040523d82523d6000602084013e610314565b606091505b5050905080610358576040517f08c379a000000000000000000000000000000000000000000000000000000000815260040161034f9061085a565b60405180910390fd5b5050565b60026020528060005260406000206000915090505481565b600054610380346104a9565b10156103c1576040517f08c379a00000000000000000000000000000000000000000000000000000000081526004016103b89061087a565b60405180910390fd5b6001339080600181540180825580915050600190039060005260206000200160009091909190916101000a81548173ffffffffffffffffffffffffffffffffffffffff021916908373ffffffffffffffffffffffffffffffffffffffff16021790555034600260003373ffffffffffffffffffffffffffffffffffffffff1673ffffffffffffffffffffffffffffffffffffffff16815260200190815260200160002081905550565b6001818154811061047a57600080fd5b906000526020600020016000915054906101000a900473ffffffffffffffffffffffffffffffffffffffff1681565b6000806104b46104e3565b90506000670de0b6b3a764000084836104cd9190610a39565b6104d791906108f1565b90508092505050919050565b600080738a753747a1fa494ec906ce90e9f37563a8af630e905060008173ffffffffffffffffffffffffffffffffffffffff1663feaf968c6040518163ffffffff1660e01b815260040160a06040518083038186803b15801561054557600080fd5b505afa158015610559573d6000803e3d6000fd5b505050506040513d601f19601f8201168201806040525081019061057d9190610705565b5050509150506402540be400816105949190610922565b9250505090565b828054828255906000526020600020908101928215610614579160200282015b828111156106135782518260006101000a81548173ffffffffffffffffffffffffffffffffffffffff021916908373ffffffffffffffffffffffffffffffffffffffff160217905550916020019190600101906105bb565b5b5090506106219190610625565b5090565b5b8082111561063e576000816000905550600101610626565b5090565b60008135905061065181610c77565b92915050565b60008151905061066681610c8e565b92915050565b60008135905061067b81610ca5565b92915050565b60008151905061069081610ca5565b92915050565b6000815190506106a581610cbc565b92915050565b6000602082840312156106c1576106c0610bf4565b5b60006106cf84828501610642565b91505092915050565b6000602082840312156106ee576106ed610bf4565b5b60006106fc8482850161066c565b91505092915050565b600080600080600060a0868803121561072157610720610bf4565b5b600061072f88828901610696565b955050602061074088828901610657565b945050604061075188828901610681565b935050606061076288828901610681565b925050608061077388828901610696565b9150509295509295909350565b61078981610a93565b82525050565b600061079c600b836108e0565b91506107a782610bf9565b602082019050919050565b60006107bf6012836108e0565b91506107ca82610c22565b602082019050919050565b60006107e2600b836108e0565b91506107ed82610c4b565b602082019050919050565b60006108056000836108d5565b915061081082610c74565b600082019050919050565b61082481610acf565b82525050565b6000610835826107f8565b9150819050919050565b60006020820190506108546000830184610780565b92915050565b600060208201905081810360008301526108738161078f565b9050919050565b60006020820190508181036000830152610893816107b2565b9050919050565b600060208201905081810360008301526108b3816107d5565b9050919050565b60006020820190506108cf600083018461081b565b92915050565b600081905092915050565b600082825260208201905092915050565b60006108fc82610acf565b915061090783610acf565b92508261091757610916610b67565b5b828204905092915050565b600061092d82610aa5565b915061093883610aa5565b9250827f7fffffffffffffffffffffffffffffffffffffffffffffffffffffffffffffff048211600084136000841316161561097757610976610b38565b5b817f800000000000000000000000000000000000000000000000000000000000000005831260008412600084131616156109b4576109b3610b38565b5b827f800000000000000000000000000000000000000000000000000000000000000005821260008413600084121616156109f1576109f0610b38565b5b827f7fffffffffffffffffffffffffffffffffffffffffffffffffffffffffffffff0582126000841260008412161615610a2e57610a2d610b38565b5b828202905092915050565b6000610a4482610acf565b9150610a4f83610acf565b9250817fffffffffffffffffffffffffffffffffffffffffffffffffffffffffffffffff0483118215151615610a8857610a87610b38565b5b828202905092915050565b6000610a9e82610aaf565b9050919050565b6000819050919050565b600073ffffffffffffffffffffffffffffffffffffffff82169050919050565b6000819050919050565b600069ffffffffffffffffffff82169050919050565b6000610afa82610acf565b91507fffffffffffffffffffffffffffffffffffffffffffffffffffffffffffffffff821415610b2d57610b2c610b38565b5b600182019050919050565b7f4e487b7100000000000000000000000000000000000000000000000000000000600052601160045260246000fd5b7f4e487b7100000000000000000000000000000000000000000000000000000000600052601260045260246000fd5b7f4e487b7100000000000000000000000000000000000000000000000000000000600052603260045260246000fd5b7f4e487b7100000000000000000000000000000000000000000000000000000000600052604160045260246000fd5b600080fd5b7f43616c6c206661696c6564000000000000000000000000000000000000000000600082015250565b7f4469646e27742073656e6420656e6f7567680000000000000000000000000000600082015250565b7f53656e64206661696c6564000000000000000000000000000000000000000000600082015250565b50565b610c8081610a93565b8114610c8b57600080fd5b50565b610c9781610aa5565b8114610ca257600080fd5b50565b610cae81610acf565b8114610cb957600080fd5b50565b610cc581610ad9565b8114610cd057600080fd5b5056fea26469706673582212209ba4e2061fa7e8401c67d856f2f9fa8cdcb7fb39d0db84d8f026c07278bbcf5a64736f6c63430008070033",
					"opcodes": "PUSH1 0x80 PUSH1 0x40 MSTORE PUSH9 0x2B5E3AF16B1880000 PUSH1 0x0 SSTORE CALLVALUE DUP1 ISZERO PUSH2 0x1D JUMPI PUSH1 0x0 DUP1 REVERT JUMPDEST POP PUSH2 0xD09 DUP1 PUSH2 0x2D PUSH1 0x0 CODECOPY PUSH1 0x0 RETURN INVALID PUSH1 0x80 PUSH1 0x40 MSTORE PUSH1 0x4 CALLDATASIZE LT PUSH2 0x3F JUMPI PUSH1 0x0 CALLDATALOAD PUSH1 0xE0 SHR DUP1 PUSH4 0x3CCFD60B EQ PUSH2 0x44 JUMPI DUP1 PUSH4 0x3E47D6F3 EQ PUSH2 0x5B JUMPI DUP1 PUSH4 0xB60D4288 EQ PUSH2 0x98 JUMPI DUP1 PUSH4 0xDC0D3DFF EQ PUSH2 0xA2 JUMPI JUMPDEST PUSH1 0x0 DUP1 REVERT JUMPDEST CALLVALUE DUP1 ISZERO PUSH2 0x50 JUMPI PUSH1 0x0 DUP1 REVERT JUMPDEST POP PUSH2 0x59 PUSH2 0xDF JUMP JUMPDEST STOP JUMPDEST CALLVALUE DUP1 ISZERO PUSH2 0x67 JUMPI PUSH1 0x0 DUP1 REVERT JUMPDEST POP PUSH2 0x82 PUSH1 0x4 DUP1 CALLDATASIZE SUB DUP2 ADD SWAP1 PUSH2 0x7D SWAP2 SWAP1 PUSH2 0x6AB JUMP JUMPDEST PUSH2 0x35C JUMP JUMPDEST PUSH1 0x40 MLOAD PUSH2 0x8F SWAP2 SWAP1 PUSH2 0x8BA JUMP JUMPDEST PUSH1 0x40 MLOAD DUP1 SWAP2 SUB SWAP1 RETURN JUMPDEST PUSH2 0xA0 PUSH2 0x374 JUMP JUMPDEST STOP JUMPDEST CALLVALUE DUP1 ISZERO PUSH2 0xAE JUMPI PUSH1 0x0 DUP1 REVERT JUMPDEST POP PUSH2 0xC9 PUSH1 0x4 DUP1 CALLDATASIZE SUB DUP2 ADD SWAP1 PUSH2 0xC4 SWAP2 SWAP1 PUSH2 0x6D8 JUMP JUMPDEST PUSH2 0x46A JUMP JUMPDEST PUSH1 0x40 MLOAD PUSH2 0xD6 SWAP2 SWAP1 PUSH2 0x83F JUMP JUMPDEST PUSH1 0x40 MLOAD DUP1 SWAP2 SUB SWAP1 RETURN JUMPDEST PUSH1 0x0 JUMPDEST PUSH1 0x1 DUP1 SLOAD SWAP1 POP DUP2 LT ISZERO PUSH2 0x18B JUMPI PUSH1 0x0 PUSH1 0x1 DUP3 DUP2 SLOAD DUP2 LT PUSH2 0x105 JUMPI PUSH2 0x104 PUSH2 0xB96 JUMP JUMPDEST JUMPDEST SWAP1 PUSH1 0x0 MSTORE PUSH1 0x20 PUSH1 0x0 KECCAK256 ADD PUSH1 0x0 SWAP1 SLOAD SWAP1 PUSH2 0x100 EXP SWAP1 DIV PUSH20 0xFFFFFFFFFFFFFFFFFFFFFFFFFFFFFFFFFFFFFFFF AND SWAP1 POP PUSH1 0x0 PUSH1 0x2 PUSH1 0x0 DUP4 PUSH20 0xFFFFFFFFFFFFFFFFFFFFFFFFFFFFFFFFFFFFFFFF AND PUSH20 0xFFFFFFFFFFFFFFFFFFFFFFFFFFFFFFFFFFFFFFFF AND DUP2 MSTORE PUSH1 0x20 ADD SWAP1 DUP2 MSTORE PUSH1 0x20 ADD PUSH1 0x0 KECCAK256 DUP2 SWAP1 SSTORE POP POP DUP1 DUP1 PUSH2 0x183 SWAP1 PUSH2 0xAEF JUMP JUMPDEST SWAP2 POP POP PUSH2 0xE2 JUMP JUMPDEST POP PUSH1 0x0 PUSH8 0xFFFFFFFFFFFFFFFF DUP2 GT ISZERO PUSH2 0x1A7 JUMPI PUSH2 0x1A6 PUSH2 0xBC5 JUMP JUMPDEST JUMPDEST PUSH1 0x40 MLOAD SWAP1 DUP1 DUP3 MSTORE DUP1 PUSH1 0x20 MUL PUSH1 0x20 ADD DUP3 ADD PUSH1 0x40 MSTORE DUP1 ISZERO PUSH2 0x1D5 JUMPI DUP2 PUSH1 0x20 ADD PUSH1 0x20 DUP3 MUL DUP1 CALLDATASIZE DUP4 CALLDATACOPY DUP1 DUP3 ADD SWAP2 POP POP SWAP1 POP JUMPDEST POP PUSH1 0x1 SWAP1 DUP1 MLOAD SWAP1 PUSH1 0x20 ADD SWAP1 PUSH2 0x1EB SWAP3 SWAP2 SWAP1 PUSH2 0x59B JUMP JUMPDEST POP CALLER PUSH20 0xFFFFFFFFFFFFFFFFFFFFFFFFFFFFFFFFFFFFFFFF AND PUSH2 0x8FC SELFBALANCE SWAP1 DUP2 ISZERO MUL SWAP1 PUSH1 0x40 MLOAD PUSH1 0x0 PUSH1 0x40 MLOAD DUP1 DUP4 SUB DUP2 DUP6 DUP9 DUP9 CALL SWAP4 POP POP POP POP ISZERO DUP1 ISZERO PUSH2 0x232 JUMPI RETURNDATASIZE PUSH1 0x0 DUP1 RETURNDATACOPY RETURNDATASIZE PUSH1 0x0 REVERT JUMPDEST POP PUSH1 0x0 CALLER PUSH20 0xFFFFFFFFFFFFFFFFFFFFFFFFFFFFFFFFFFFFFFFF AND PUSH2 0x8FC SELFBALANCE SWAP1 DUP2 ISZERO MUL SWAP1 PUSH1 0x40 MLOAD PUSH1 0x0 PUSH1 0x40 MLOAD DUP1 DUP4 SUB DUP2 DUP6 DUP9 DUP9 CALL SWAP4 POP POP POP POP SWAP1 POP DUP1 PUSH2 0x2AC JUMPI PUSH1 0x40 MLOAD PUSH32 0x8C379A000000000000000000000000000000000000000000000000000000000 DUP2 MSTORE PUSH1 0x4 ADD PUSH2 0x2A3 SWAP1 PUSH2 0x89A JUMP JUMPDEST PUSH1 0x40 MLOAD DUP1 SWAP2 SUB SWAP1 REVERT JUMPDEST PUSH1 0x0 CALLER PUSH20 0xFFFFFFFFFFFFFFFFFFFFFFFFFFFFFFFFFFFFFFFF AND SELFBALANCE PUSH1 0x40 MLOAD PUSH2 0x2D2 SWAP1 PUSH2 0x82A JUMP JUMPDEST PUSH1 0x0 PUSH1 0x40 MLOAD DUP1 DUP4 SUB DUP2 DUP6 DUP8 GAS CALL SWAP3 POP POP POP RETURNDATASIZE DUP1 PUSH1 0x0 DUP2 EQ PUSH2 0x30F JUMPI PUSH1 0x40 MLOAD SWAP2 POP PUSH1 0x1F NOT PUSH1 0x3F RETURNDATASIZE ADD AND DUP3 ADD PUSH1 0x40 MSTORE RETURNDATASIZE DUP3 MSTORE RETURNDATASIZE PUSH1 0x0 PUSH1 0x20 DUP5 ADD RETURNDATACOPY PUSH2 0x314 JUMP JUMPDEST PUSH1 0x60 SWAP2 POP JUMPDEST POP POP SWAP1 POP DUP1 PUSH2 0x358 JUMPI PUSH1 0x40 MLOAD PUSH32 0x8C379A000000000000000000000000000000000000000000000000000000000 DUP2 MSTORE PUSH1 0x4 ADD PUSH2 0x34F SWAP1 PUSH2 0x85A JUMP JUMPDEST PUSH1 0x40 MLOAD DUP1 SWAP2 SUB SWAP1 REVERT JUMPDEST POP POP JUMP JUMPDEST PUSH1 0x2 PUSH1 0x20 MSTORE DUP1 PUSH1 0x0 MSTORE PUSH1 0x40 PUSH1 0x0 KECCAK256 PUSH1 0x0 SWAP2 POP SWAP1 POP SLOAD DUP2 JUMP JUMPDEST PUSH1 0x0 SLOAD PUSH2 0x380 CALLVALUE PUSH2 0x4A9 JUMP JUMPDEST LT ISZERO PUSH2 0x3C1 JUMPI PUSH1 0x40 MLOAD PUSH32 0x8C379A000000000000000000000000000000000000000000000000000000000 DUP2 MSTORE PUSH1 0x4 ADD PUSH2 0x3B8 SWAP1 PUSH2 0x87A JUMP JUMPDEST PUSH1 0x40 MLOAD DUP1 SWAP2 SUB SWAP1 REVERT JUMPDEST PUSH1 0x1 CALLER SWAP1 DUP1 PUSH1 0x1 DUP2 SLOAD ADD DUP1 DUP3 SSTORE DUP1 SWAP2 POP POP PUSH1 0x1 SWAP1 SUB SWAP1 PUSH1 0x0 MSTORE PUSH1 0x20 PUSH1 0x0 KECCAK256 ADD PUSH1 0x0 SWAP1 SWAP2 SWAP1 SWAP2 SWAP1 SWAP2 PUSH2 0x100 EXP DUP2 SLOAD DUP2 PUSH20 0xFFFFFFFFFFFFFFFFFFFFFFFFFFFFFFFFFFFFFFFF MUL NOT AND SWAP1 DUP4 PUSH20 0xFFFFFFFFFFFFFFFFFFFFFFFFFFFFFFFFFFFFFFFF AND MUL OR SWAP1 SSTORE POP CALLVALUE PUSH1 0x2 PUSH1 0x0 CALLER PUSH20 0xFFFFFFFFFFFFFFFFFFFFFFFFFFFFFFFFFFFFFFFF AND PUSH20 0xFFFFFFFFFFFFFFFFFFFFFFFFFFFFFFFFFFFFFFFF AND DUP2 MSTORE PUSH1 0x20 ADD SWAP1 DUP2 MSTORE PUSH1 0x20 ADD PUSH1 0x0 KECCAK256 DUP2 SWAP1 SSTORE POP JUMP JUMPDEST PUSH1 0x1 DUP2 DUP2 SLOAD DUP2 LT PUSH2 0x47A JUMPI PUSH1 0x0 DUP1 REVERT JUMPDEST SWAP1 PUSH1 0x0 MSTORE PUSH1 0x20 PUSH1 0x0 KECCAK256 ADD PUSH1 0x0 SWAP2 POP SLOAD SWAP1 PUSH2 0x100 EXP SWAP1 DIV PUSH20 0xFFFFFFFFFFFFFFFFFFFFFFFFFFFFFFFFFFFFFFFF AND DUP2 JUMP JUMPDEST PUSH1 0x0 DUP1 PUSH2 0x4B4 PUSH2 0x4E3 JUMP JUMPDEST SWAP1 POP PUSH1 0x0 PUSH8 0xDE0B6B3A7640000 DUP5 DUP4 PUSH2 0x4CD SWAP2 SWAP1 PUSH2 0xA39 JUMP JUMPDEST PUSH2 0x4D7 SWAP2 SWAP1 PUSH2 0x8F1 JUMP JUMPDEST SWAP1 POP DUP1 SWAP3 POP POP POP SWAP2 SWAP1 POP JUMP JUMPDEST PUSH1 0x0 DUP1 PUSH20 0x8A753747A1FA494EC906CE90E9F37563A8AF630E SWAP1 POP PUSH1 0x0 DUP2 PUSH20 0xFFFFFFFFFFFFFFFFFFFFFFFFFFFFFFFFFFFFFFFF AND PUSH4 0xFEAF968C PUSH1 0x40 MLOAD DUP2 PUSH4 0xFFFFFFFF AND PUSH1 0xE0 SHL DUP2 MSTORE PUSH1 0x4 ADD PUSH1 0xA0 PUSH1 0x40 MLOAD DUP1 DUP4 SUB DUP2 DUP7 DUP1 EXTCODESIZE ISZERO DUP1 ISZERO PUSH2 0x545 JUMPI PUSH1 0x0 DUP1 REVERT JUMPDEST POP GAS STATICCALL ISZERO DUP1 ISZERO PUSH2 0x559 JUMPI RETURNDATASIZE PUSH1 0x0 DUP1 RETURNDATACOPY RETURNDATASIZE PUSH1 0x0 REVERT JUMPDEST POP POP POP POP PUSH1 0x40 MLOAD RETURNDATASIZE PUSH1 0x1F NOT PUSH1 0x1F DUP3 ADD AND DUP3 ADD DUP1 PUSH1 0x40 MSTORE POP DUP2 ADD SWAP1 PUSH2 0x57D SWAP2 SWAP1 PUSH2 0x705 JUMP JUMPDEST POP POP POP SWAP2 POP POP PUSH5 0x2540BE400 DUP2 PUSH2 0x594 SWAP2 SWAP1 PUSH2 0x922 JUMP JUMPDEST SWAP3 POP POP POP SWAP1 JUMP JUMPDEST DUP3 DUP1 SLOAD DUP3 DUP3 SSTORE SWAP1 PUSH1 0x0 MSTORE PUSH1 0x20 PUSH1 0x0 KECCAK256 SWAP1 DUP2 ADD SWAP3 DUP3 ISZERO PUSH2 0x614 JUMPI SWAP2 PUSH1 0x20 MUL DUP3 ADD JUMPDEST DUP3 DUP2 GT ISZERO PUSH2 0x613 JUMPI DUP3 MLOAD DUP3 PUSH1 0x0 PUSH2 0x100 EXP DUP2 SLOAD DUP2 PUSH20 0xFFFFFFFFFFFFFFFFFFFFFFFFFFFFFFFFFFFFFFFF MUL NOT AND SWAP1 DUP4 PUSH20 0xFFFFFFFFFFFFFFFFFFFFFFFFFFFFFFFFFFFFFFFF AND MUL OR SWAP1 SSTORE POP SWAP2 PUSH1 0x20 ADD SWAP2 SWAP1 PUSH1 0x1 ADD SWAP1 PUSH2 0x5BB JUMP JUMPDEST JUMPDEST POP SWAP1 POP PUSH2 0x621 SWAP2 SWAP1 PUSH2 0x625 JUMP JUMPDEST POP SWAP1 JUMP JUMPDEST JUMPDEST DUP1 DUP3 GT ISZERO PUSH2 0x63E JUMPI PUSH1 0x0 DUP2 PUSH1 0x0 SWAP1 SSTORE POP PUSH1 0x1 ADD PUSH2 0x626 JUMP JUMPDEST POP SWAP1 JUMP JUMPDEST PUSH1 0x0 DUP2 CALLDATALOAD SWAP1 POP PUSH2 0x651 DUP2 PUSH2 0xC77 JUMP JUMPDEST SWAP3 SWAP2 POP POP JUMP JUMPDEST PUSH1 0x0 DUP2 MLOAD SWAP1 POP PUSH2 0x666 DUP2 PUSH2 0xC8E JUMP JUMPDEST SWAP3 SWAP2 POP POP JUMP JUMPDEST PUSH1 0x0 DUP2 CALLDATALOAD SWAP1 POP PUSH2 0x67B DUP2 PUSH2 0xCA5 JUMP JUMPDEST SWAP3 SWAP2 POP POP JUMP JUMPDEST PUSH1 0x0 DUP2 MLOAD SWAP1 POP PUSH2 0x690 DUP2 PUSH2 0xCA5 JUMP JUMPDEST SWAP3 SWAP2 POP POP JUMP JUMPDEST PUSH1 0x0 DUP2 MLOAD SWAP1 POP PUSH2 0x6A5 DUP2 PUSH2 0xCBC JUMP JUMPDEST SWAP3 SWAP2 POP POP JUMP JUMPDEST PUSH1 0x0 PUSH1 0x20 DUP3 DUP5 SUB SLT ISZERO PUSH2 0x6C1 JUMPI PUSH2 0x6C0 PUSH2 0xBF4 JUMP JUMPDEST JUMPDEST PUSH1 0x0 PUSH2 0x6CF DUP5 DUP3 DUP6 ADD PUSH2 0x642 JUMP JUMPDEST SWAP2 POP POP SWAP3 SWAP2 POP POP JUMP JUMPDEST PUSH1 0x0 PUSH1 0x20 DUP3 DUP5 SUB SLT ISZERO PUSH2 0x6EE JUMPI PUSH2 0x6ED PUSH2 0xBF4 JUMP JUMPDEST JUMPDEST PUSH1 0x0 PUSH2 0x6FC DUP5 DUP3 DUP6 ADD PUSH2 0x66C JUMP JUMPDEST SWAP2 POP POP SWAP3 SWAP2 POP POP JUMP JUMPDEST PUSH1 0x0 DUP1 PUSH1 0x0 DUP1 PUSH1 0x0 PUSH1 0xA0 DUP7 DUP9 SUB SLT ISZERO PUSH2 0x721 JUMPI PUSH2 0x720 PUSH2 0xBF4 JUMP JUMPDEST JUMPDEST PUSH1 0x0 PUSH2 0x72F DUP9 DUP3 DUP10 ADD PUSH2 0x696 JUMP JUMPDEST SWAP6 POP POP PUSH1 0x20 PUSH2 0x740 DUP9 DUP3 DUP10 ADD PUSH2 0x657 JUMP JUMPDEST SWAP5 POP POP PUSH1 0x40 PUSH2 0x751 DUP9 DUP3 DUP10 ADD PUSH2 0x681 JUMP JUMPDEST SWAP4 POP POP PUSH1 0x60 PUSH2 0x762 DUP9 DUP3 DUP10 ADD PUSH2 0x681 JUMP JUMPDEST SWAP3 POP POP PUSH1 0x80 PUSH2 0x773 DUP9 DUP3 DUP10 ADD PUSH2 0x696 JUMP JUMPDEST SWAP2 POP POP SWAP3 SWAP6 POP SWAP3 SWAP6 SWAP1 SWAP4 POP JUMP JUMPDEST PUSH2 0x789 DUP2 PUSH2 0xA93 JUMP JUMPDEST DUP3 MSTORE POP POP JUMP JUMPDEST PUSH1 0x0 PUSH2 0x79C PUSH1 0xB DUP4 PUSH2 0x8E0 JUMP JUMPDEST SWAP2 POP PUSH2 0x7A7 DUP3 PUSH2 0xBF9 JUMP JUMPDEST PUSH1 0x20 DUP3 ADD SWAP1 POP SWAP2 SWAP1 POP JUMP JUMPDEST PUSH1 0x0 PUSH2 0x7BF PUSH1 0x12 DUP4 PUSH2 0x8E0 JUMP JUMPDEST SWAP2 POP PUSH2 0x7CA DUP3 PUSH2 0xC22 JUMP JUMPDEST PUSH1 0x20 DUP3 ADD SWAP1 POP SWAP2 SWAP1 POP JUMP JUMPDEST PUSH1 0x0 PUSH2 0x7E2 PUSH1 0xB DUP4 PUSH2 0x8E0 JUMP JUMPDEST SWAP2 POP PUSH2 0x7ED DUP3 PUSH2 0xC4B JUMP JUMPDEST PUSH1 0x20 DUP3 ADD SWAP1 POP SWAP2 SWAP1 POP JUMP JUMPDEST PUSH1 0x0 PUSH2 0x805 PUSH1 0x0 DUP4 PUSH2 0x8D5 JUMP JUMPDEST SWAP2 POP PUSH2 0x810 DUP3 PUSH2 0xC74 JUMP JUMPDEST PUSH1 0x0 DUP3 ADD SWAP1 POP SWAP2 SWAP1 POP JUMP JUMPDEST PUSH2 0x824 DUP2 PUSH2 0xACF JUMP JUMPDEST DUP3 MSTORE POP POP JUMP JUMPDEST PUSH1 0x0 PUSH2 0x835 DUP3 PUSH2 0x7F8 JUMP JUMPDEST SWAP2 POP DUP2 SWAP1 POP SWAP2 SWAP1 POP JUMP JUMPDEST PUSH1 0x0 PUSH1 0x20 DUP3 ADD SWAP1 POP PUSH2 0x854 PUSH1 0x0 DUP4 ADD DUP5 PUSH2 0x780 JUMP JUMPDEST SWAP3 SWAP2 POP POP JUMP JUMPDEST PUSH1 0x0 PUSH1 0x20 DUP3 ADD SWAP1 POP DUP2 DUP2 SUB PUSH1 0x0 DUP4 ADD MSTORE PUSH2 0x873 DUP2 PUSH2 0x78F JUMP JUMPDEST SWAP1 POP SWAP2 SWAP1 POP JUMP JUMPDEST PUSH1 0x0 PUSH1 0x20 DUP3 ADD SWAP1 POP DUP2 DUP2 SUB PUSH1 0x0 DUP4 ADD MSTORE PUSH2 0x893 DUP2 PUSH2 0x7B2 JUMP JUMPDEST SWAP1 POP SWAP2 SWAP1 POP JUMP JUMPDEST PUSH1 0x0 PUSH1 0x20 DUP3 ADD SWAP1 POP DUP2 DUP2 SUB PUSH1 0x0 DUP4 ADD MSTORE PUSH2 0x8B3 DUP2 PUSH2 0x7D5 JUMP JUMPDEST SWAP1 POP SWAP2 SWAP1 POP JUMP JUMPDEST PUSH1 0x0 PUSH1 0x20 DUP3 ADD SWAP1 POP PUSH2 0x8CF PUSH1 0x0 DUP4 ADD DUP5 PUSH2 0x81B JUMP JUMPDEST SWAP3 SWAP2 POP POP JUMP JUMPDEST PUSH1 0x0 DUP2 SWAP1 POP SWAP3 SWAP2 POP POP JUMP JUMPDEST PUSH1 0x0 DUP3 DUP3 MSTORE PUSH1 0x20 DUP3 ADD SWAP1 POP SWAP3 SWAP2 POP POP JUMP JUMPDEST PUSH1 0x0 PUSH2 0x8FC DUP3 PUSH2 0xACF JUMP JUMPDEST SWAP2 POP PUSH2 0x907 DUP4 PUSH2 0xACF JUMP JUMPDEST SWAP3 POP DUP3 PUSH2 0x917 JUMPI PUSH2 0x916 PUSH2 0xB67 JUMP JUMPDEST JUMPDEST DUP3 DUP3 DIV SWAP1 POP SWAP3 SWAP2 POP POP JUMP JUMPDEST PUSH1 0x0 PUSH2 0x92D DUP3 PUSH2 0xAA5 JUMP JUMPDEST SWAP2 POP PUSH2 0x938 DUP4 PUSH2 0xAA5 JUMP JUMPDEST SWAP3 POP DUP3 PUSH32 0x7FFFFFFFFFFFFFFFFFFFFFFFFFFFFFFFFFFFFFFFFFFFFFFFFFFFFFFFFFFFFFFF DIV DUP3 GT PUSH1 0x0 DUP5 SGT PUSH1 0x0 DUP5 SGT AND AND ISZERO PUSH2 0x977 JUMPI PUSH2 0x976 PUSH2 0xB38 JUMP JUMPDEST JUMPDEST DUP2 PUSH32 0x8000000000000000000000000000000000000000000000000000000000000000 SDIV DUP4 SLT PUSH1 0x0 DUP5 SLT PUSH1 0x0 DUP5 SGT AND AND ISZERO PUSH2 0x9B4 JUMPI PUSH2 0x9B3 PUSH2 0xB38 JUMP JUMPDEST JUMPDEST DUP3 PUSH32 0x8000000000000000000000000000000000000000000000000000000000000000 SDIV DUP3 SLT PUSH1 0x0 DUP5 SGT PUSH1 0x0 DUP5 SLT AND AND ISZERO PUSH2 0x9F1 JUMPI PUSH2 0x9F0 PUSH2 0xB38 JUMP JUMPDEST JUMPDEST DUP3 PUSH32 0x7FFFFFFFFFFFFFFFFFFFFFFFFFFFFFFFFFFFFFFFFFFFFFFFFFFFFFFFFFFFFFFF SDIV DUP3 SLT PUSH1 0x0 DUP5 SLT PUSH1 0x0 DUP5 SLT AND AND ISZERO PUSH2 0xA2E JUMPI PUSH2 0xA2D PUSH2 0xB38 JUMP JUMPDEST JUMPDEST DUP3 DUP3 MUL SWAP1 POP SWAP3 SWAP2 POP POP JUMP JUMPDEST PUSH1 0x0 PUSH2 0xA44 DUP3 PUSH2 0xACF JUMP JUMPDEST SWAP2 POP PUSH2 0xA4F DUP4 PUSH2 0xACF JUMP JUMPDEST SWAP3 POP DUP2 PUSH32 0xFFFFFFFFFFFFFFFFFFFFFFFFFFFFFFFFFFFFFFFFFFFFFFFFFFFFFFFFFFFFFFFF DIV DUP4 GT DUP3 ISZERO ISZERO AND ISZERO PUSH2 0xA88 JUMPI PUSH2 0xA87 PUSH2 0xB38 JUMP JUMPDEST JUMPDEST DUP3 DUP3 MUL SWAP1 POP SWAP3 SWAP2 POP POP JUMP JUMPDEST PUSH1 0x0 PUSH2 0xA9E DUP3 PUSH2 0xAAF JUMP JUMPDEST SWAP1 POP SWAP2 SWAP1 POP JUMP JUMPDEST PUSH1 0x0 DUP2 SWAP1 POP SWAP2 SWAP1 POP JUMP JUMPDEST PUSH1 0x0 PUSH20 0xFFFFFFFFFFFFFFFFFFFFFFFFFFFFFFFFFFFFFFFF DUP3 AND SWAP1 POP SWAP2 SWAP1 POP JUMP JUMPDEST PUSH1 0x0 DUP2 SWAP1 POP SWAP2 SWAP1 POP JUMP JUMPDEST PUSH1 0x0 PUSH10 0xFFFFFFFFFFFFFFFFFFFF DUP3 AND SWAP1 POP SWAP2 SWAP1 POP JUMP JUMPDEST PUSH1 0x0 PUSH2 0xAFA DUP3 PUSH2 0xACF JUMP JUMPDEST SWAP2 POP PUSH32 0xFFFFFFFFFFFFFFFFFFFFFFFFFFFFFFFFFFFFFFFFFFFFFFFFFFFFFFFFFFFFFFFF DUP3 EQ ISZERO PUSH2 0xB2D JUMPI PUSH2 0xB2C PUSH2 0xB38 JUMP JUMPDEST JUMPDEST PUSH1 0x1 DUP3 ADD SWAP1 POP SWAP2 SWAP1 POP JUMP JUMPDEST PUSH32 0x4E487B7100000000000000000000000000000000000000000000000000000000 PUSH1 0x0 MSTORE PUSH1 0x11 PUSH1 0x4 MSTORE PUSH1 0x24 PUSH1 0x0 REVERT JUMPDEST PUSH32 0x4E487B7100000000000000000000000000000000000000000000000000000000 PUSH1 0x0 MSTORE PUSH1 0x12 PUSH1 0x4 MSTORE PUSH1 0x24 PUSH1 0x0 REVERT JUMPDEST PUSH32 0x4E487B7100000000000000000000000000000000000000000000000000000000 PUSH1 0x0 MSTORE PUSH1 0x32 PUSH1 0x4 MSTORE PUSH1 0x24 PUSH1 0x0 REVERT JUMPDEST PUSH32 0x4E487B7100000000000000000000000000000000000000000000000000000000 PUSH1 0x0 MSTORE PUSH1 0x41 PUSH1 0x4 MSTORE PUSH1 0x24 PUSH1 0x0 REVERT JUMPDEST PUSH1 0x0 DUP1 REVERT JUMPDEST PUSH32 0x43616C6C206661696C6564000000000000000000000000000000000000000000 PUSH1 0x0 DUP3 ADD MSTORE POP JUMP JUMPDEST PUSH32 0x4469646E27742073656E6420656E6F7567680000000000000000000000000000 PUSH1 0x0 DUP3 ADD MSTORE POP JUMP JUMPDEST PUSH32 0x53656E64206661696C6564000000000000000000000000000000000000000000 PUSH1 0x0 DUP3 ADD MSTORE POP JUMP JUMPDEST POP JUMP JUMPDEST PUSH2 0xC80 DUP2 PUSH2 0xA93 JUMP JUMPDEST DUP2 EQ PUSH2 0xC8B JUMPI PUSH1 0x0 DUP1 REVERT JUMPDEST POP JUMP JUMPDEST PUSH2 0xC97 DUP2 PUSH2 0xAA5 JUMP JUMPDEST DUP2 EQ PUSH2 0xCA2 JUMPI PUSH1 0x0 DUP1 REVERT JUMPDEST POP JUMP JUMPDEST PUSH2 0xCAE DUP2 PUSH2 0xACF JUMP JUMPDEST DUP2 EQ PUSH2 0xCB9 JUMPI PUSH1 0x0 DUP1 REVERT JUMPDEST POP JUMP JUMPDEST PUSH2 0xCC5 DUP2 PUSH2 0xAD9 JUMP JUMPDEST DUP2 EQ PUSH2 0xCD0 JUMPI PUSH1 0x0 DUP1 REVERT JUMPDEST POP JUMP INVALID LOG2 PUSH5 0x6970667358 0x22 SLT KECCAK256 SWAP12 LOG4 0xE2 MOD 0x1F 0xA7 0xE8 BLOCKHASH SHR PUSH8 0xD856F2F9FA8CDCB7 0xFB CODECOPY 0xD0 0xDB DUP5 0xD8 CREATE 0x26 0xC0 PUSH19 0x78BBCF5A64736F6C6343000807003300000000 "
				},
				"gasEstimates": {
					"creation": {
						"codeDepositCost": "667400",
						"executionCost": "22808",
						"totalCost": "690208"
					},
					"external": {
						"addressToAmountFunded(address)": "2814",
						"fund()": "infinite",
						"funders(uint256)": "5000",
						"withdraw()": "infinite"
					}
				},
				"methodIdentifiers": {
					"addressToAmountFunded(address)": "3e47d6f3",
					"fund()": "b60d4288",
					"funders(uint256)": "dc0d3dff",
					"withdraw()": "3ccfd60b"
				}
			},
			"storageLayout": {
				"storage": [
					{
						"astId": 56,
						"contract": "FundMe.sol:FundMe",
						"label": "minimumUsd",
						"offset": 0,
						"slot": "0",
						"type": "t_uint256"
					},
					{
						"astId": 59,
						"contract": "FundMe.sol:FundMe",
						"label": "funders",
						"offset": 0,
						"slot": "1",
						"type": "t_array(t_address)dyn_storage"
					},
					{
						"astId": 63,
						"contract": "FundMe.sol:FundMe",
						"label": "addressToAmountFunded",
						"offset": 0,
						"slot": "2",
						"type": "t_mapping(t_address,t_uint256)"
					}
				],
				"types": {
					"t_address": {
						"encoding": "inplace",
						"label": "address",
						"numberOfBytes": "20"
					},
					"t_array(t_address)dyn_storage": {
						"base": "t_address",
						"encoding": "dynamic_array",
						"label": "address[]",
						"numberOfBytes": "32"
					},
					"t_mapping(t_address,t_uint256)": {
						"encoding": "mapping",
						"key": "t_address",
						"label": "mapping(address => uint256)",
						"numberOfBytes": "32",
						"value": "t_uint256"
					},
					"t_uint256": {
						"encoding": "inplace",
						"label": "uint256",
						"numberOfBytes": "32"
					}
				}
			},
			"userdoc": {
				"kind": "user",
				"methods": {},
				"version": 1
			}
		}
	}
}