{
	"FundMe.sol": {
		"FundMe": {
			"abi": [
				{
					"inputs": [],
					"stateMutability": "nonpayable",
					"type": "constructor"
				},
				{
					"inputs": [],
					"name": "MINIMUM_USD",
					"outputs": [
						{
							"internalType": "uint256",
							"name": "",
							"type": "uint256"
						}
					],
					"stateMutability": "view",
					"type": "function"
				},
				{
					"inputs": [
						{
							"internalType": "address",
							"name": "",
							"type": "address"
						}
					],
					"name": "addressToAmountFunded",
					"outputs": [
						{
							"internalType": "uint256",
							"name": "",
							"type": "uint256"
						}
					],
					"stateMutability": "view",
					"type": "function"
				},
				{
					"inputs": [],
					"name": "fund",
					"outputs": [],
					"stateMutability": "payable",
					"type": "function"
				},
				{
					"inputs": [
						{
							"internalType": "uint256",
							"name": "",
							"type": "uint256"
						}
					],
					"name": "funders",
					"outputs": [
						{
							"internalType": "address",
							"name": "",
							"type": "address"
						}
					],
					"stateMutability": "view",
					"type": "function"
				},
				{
					"inputs": [],
					"name": "owner",
					"outputs": [
						{
							"internalType": "address",
							"name": "",
							"type": "address"
						}
					],
					"stateMutability": "view",
					"type": "function"
				},
				{
					"inputs": [],
					"name": "withdraw",
					"outputs": [],
					"stateMutability": "nonpayable",
					"type": "function"
				}
			],
			"devdoc": {
				"kind": "dev",
				"methods": {},
				"version": 1
			},
			"evm": {
				"assembly": "    /* \"FundMe.sol\":189:1880  contract FundMe {... */\n  mstore(0x40, 0xa0)\n    /* \"FundMe.sol\":435:534  constructor() {... */\n  callvalue\n  dup1\n  iszero\n  tag_1\n  jumpi\n  0x00\n  dup1\n  revert\ntag_1:\n  pop\n    /* \"FundMe.sol\":517:527  msg.sender */\n  caller\n    /* \"FundMe.sol\":509:527  owner = msg.sender */\n  0xffffffffffffffffffffffffffffffffffffffff\n  and\n  0x80\n  dup2\n  0xffffffffffffffffffffffffffffffffffffffff\n  and\n  0x60\n  shl\n  dup2\n  mstore\n  pop\n  pop\n    /* \"FundMe.sol\":189:1880  contract FundMe {... */\n  shr(0x60, mload(0x80))\n  codecopy(0x00, dataOffset(sub_0), dataSize(sub_0))\n  0x00\n  assignImmutable(\"0xeafa31dc210956fc0884ec5660eba9405197797219cbbda41b6aaf7118c651d8\")\n  return(0x00, dataSize(sub_0))\nstop\n\nsub_0: assembly {\n        /* \"FundMe.sol\":189:1880  contract FundMe {... */\n      mstore(0x40, 0x80)\n      jumpi(tag_1, lt(calldatasize, 0x04))\n      shr(0xe0, calldataload(0x00))\n      dup1\n      0x3ccfd60b\n      eq\n      tag_2\n      jumpi\n      dup1\n      0x3e47d6f3\n      eq\n      tag_3\n      jumpi\n      dup1\n      0x6b69a592\n      eq\n      tag_4\n      jumpi\n      dup1\n      0x8da5cb5b\n      eq\n      tag_5\n      jumpi\n      dup1\n      0xb60d4288\n      eq\n      tag_6\n      jumpi\n      dup1\n      0xdc0d3dff\n      eq\n      tag_7\n      jumpi\n    tag_1:\n      0x00\n      dup1\n      revert\n        /* \"FundMe.sol\":922:1636  function withdraw() public {... */\n    tag_2:\n      callvalue\n      dup1\n      iszero\n      tag_8\n      jumpi\n      0x00\n      dup1\n      revert\n    tag_8:\n      pop\n      tag_9\n      tag_10\n      jump\t// in\n    tag_9:\n      stop\n        /* \"FundMe.sol\":334:390  mapping(address => uint256) public addressToAmountFunded */\n    tag_3:\n      callvalue\n      dup1\n      iszero\n      tag_11\n      jumpi\n      0x00\n      dup1\n      revert\n    tag_11:\n      pop\n      tag_12\n      0x04\n      dup1\n      calldatasize\n      sub\n      dup2\n      add\n      swap1\n      tag_13\n      swap2\n      swap1\n      tag_14\n      jump\t// in\n    tag_13:\n      tag_15\n      jump\t// in\n    tag_12:\n      mload(0x40)\n      tag_16\n      swap2\n      swap1\n      tag_17\n      jump\t// in\n    tag_16:\n      mload(0x40)\n      dup1\n      swap2\n      sub\n      swap1\n      return\n        /* \"FundMe.sol\":249:296  uint256 public constant MINIMUM_USD = 50 * 1e18 */\n    tag_4:\n      callvalue\n      dup1\n      iszero\n      tag_18\n      jumpi\n      0x00\n      dup1\n      revert\n    tag_18:\n      pop\n      tag_19\n      tag_20\n      jump\t// in\n    tag_19:\n      mload(0x40)\n      tag_21\n      swap2\n      swap1\n      tag_17\n      jump\t// in\n    tag_21:\n      mload(0x40)\n      dup1\n      swap2\n      sub\n      swap1\n      return\n        /* \"FundMe.sol\":398:428  address public immutable owner */\n    tag_5:\n      callvalue\n      dup1\n      iszero\n      tag_22\n      jumpi\n      0x00\n      dup1\n      revert\n    tag_22:\n      pop\n      tag_23\n      tag_24\n      jump\t// in\n    tag_23:\n      mload(0x40)\n      tag_25\n      swap2\n      swap1\n      tag_26\n      jump\t// in\n    tag_25:\n      mload(0x40)\n      dup1\n      swap2\n      sub\n      swap1\n      return\n        /* \"FundMe.sol\":540:916  function fund() public payable {... */\n    tag_6:\n      tag_27\n      tag_28\n      jump\t// in\n    tag_27:\n      stop\n        /* \"FundMe.sol\":304:328  address[] public funders */\n    tag_7:\n      callvalue\n      dup1\n      iszero\n      tag_29\n      jumpi\n      0x00\n      dup1\n      revert\n    tag_29:\n      pop\n      tag_30\n      0x04\n      dup1\n      calldatasize\n      sub\n      dup2\n      add\n      swap1\n      tag_31\n      swap2\n      swap1\n      tag_32\n      jump\t// in\n    tag_31:\n      tag_33\n      jump\t// in\n    tag_30:\n      mload(0x40)\n      tag_34\n      swap2\n      swap1\n      tag_26\n      jump\t// in\n    tag_34:\n      mload(0x40)\n      dup1\n      swap2\n      sub\n      swap1\n      return\n        /* \"FundMe.sol\":922:1636  function withdraw() public {... */\n    tag_10:\n        /* \"FundMe.sol\":964:973  uint256 i */\n      0x00\n        /* \"FundMe.sol\":959:1104  for (uint256 i = 0; i < funders.length; i++) {... */\n    tag_36:\n        /* \"FundMe.sol\":983:990  funders */\n      0x00\n        /* \"FundMe.sol\":983:997  funders.length */\n      dup1\n      sload\n      swap1\n      pop\n        /* \"FundMe.sol\":979:980  i */\n      dup2\n        /* \"FundMe.sol\":979:997  i < funders.length */\n      lt\n        /* \"FundMe.sol\":959:1104  for (uint256 i = 0; i < funders.length; i++) {... */\n      iszero\n      tag_37\n      jumpi\n        /* \"FundMe.sol\":1018:1032  address funder */\n      0x00\n        /* \"FundMe.sol\":1035:1042  funders */\n      dup1\n        /* \"FundMe.sol\":1043:1044  i */\n      dup3\n        /* \"FundMe.sol\":1035:1045  funders[i] */\n      dup2\n      sload\n      dup2\n      lt\n      tag_39\n      jumpi\n      tag_40\n      tag_41\n      jump\t// in\n    tag_40:\n    tag_39:\n      swap1\n      0x00\n      mstore\n      keccak256(0x00, 0x20)\n      add\n      0x00\n      swap1\n      sload\n      swap1\n      0x0100\n      exp\n      swap1\n      div\n      0xffffffffffffffffffffffffffffffffffffffff\n      and\n        /* \"FundMe.sol\":1018:1045  address funder = funders[i] */\n      swap1\n      pop\n        /* \"FundMe.sol\":1091:1092  0 */\n      0x00\n        /* \"FundMe.sol\":1059:1080  addressToAmountFunded */\n      0x01\n        /* \"FundMe.sol\":1059:1088  addressToAmountFunded[funder] */\n      0x00\n        /* \"FundMe.sol\":1081:1087  funder */\n      dup4\n        /* \"FundMe.sol\":1059:1088  addressToAmountFunded[funder] */\n      0xffffffffffffffffffffffffffffffffffffffff\n      and\n      0xffffffffffffffffffffffffffffffffffffffff\n      and\n      dup2\n      mstore\n      0x20\n      add\n      swap1\n      dup2\n      mstore\n      0x20\n      add\n      0x00\n      keccak256\n        /* \"FundMe.sol\":1059:1092  addressToAmountFunded[funder] = 0 */\n      dup2\n      swap1\n      sstore\n      pop\n        /* \"FundMe.sol\":1004:1104  {... */\n      pop\n        /* \"FundMe.sol\":999:1002  i++ */\n      dup1\n      dup1\n      tag_43\n      swap1\n      tag_44\n      jump\t// in\n    tag_43:\n      swap2\n      pop\n      pop\n        /* \"FundMe.sol\":959:1104  for (uint256 i = 0; i < funders.length; i++) {... */\n      jump(tag_36)\n    tag_37:\n      pop\n        /* \"FundMe.sol\":1165:1166  0 */\n      0x00\n        /* \"FundMe.sol\":1151:1167  new address[](0) */\n      0xffffffffffffffff\n      dup2\n      gt\n      iszero\n      tag_45\n      jumpi\n      tag_46\n      tag_47\n      jump\t// in\n    tag_46:\n    tag_45:\n      mload(0x40)\n      swap1\n      dup1\n      dup3\n      mstore\n      dup1\n      0x20\n      mul\n      0x20\n      add\n      dup3\n      add\n      0x40\n      mstore\n      dup1\n      iszero\n      tag_48\n      jumpi\n      dup2\n      0x20\n      add\n      0x20\n      dup3\n      mul\n      dup1\n      calldatasize\n      dup4\n      calldatacopy\n      dup1\n      dup3\n      add\n      swap2\n      pop\n      pop\n      swap1\n      pop\n    tag_48:\n      pop\n        /* \"FundMe.sol\":1141:1148  funders */\n      0x00\n        /* \"FundMe.sol\":1141:1167  funders = new address[](0) */\n      swap1\n      dup1\n      mload\n      swap1\n      0x20\n      add\n      swap1\n      tag_49\n      swap3\n      swap2\n      swap1\n      tag_50\n      jump\t// in\n    tag_49:\n      pop\n        /* \"FundMe.sol\":1504:1520  bool callSuccess */\n      0x00\n        /* \"FundMe.sol\":1533:1543  msg.sender */\n      caller\n        /* \"FundMe.sol\":1525:1549  payable(msg.sender).call */\n      0xffffffffffffffffffffffffffffffffffffffff\n      and\n        /* \"FundMe.sol\":1557:1578  address(this).balance */\n      selfbalance\n        /* \"FundMe.sol\":1525:1583  payable(msg.sender).call{value: address(this).balance}(\"\") */\n      mload(0x40)\n      tag_51\n      swap1\n      tag_52\n      jump\t// in\n    tag_51:\n      0x00\n      mload(0x40)\n      dup1\n      dup4\n      sub\n      dup2\n      dup6\n      dup8\n      gas\n      call\n      swap3\n      pop\n      pop\n      pop\n      returndatasize\n      dup1\n      0x00\n      dup2\n      eq\n      tag_55\n      jumpi\n      mload(0x40)\n      swap2\n      pop\n      and(add(returndatasize, 0x3f), not(0x1f))\n      dup3\n      add\n      0x40\n      mstore\n      returndatasize\n      dup3\n      mstore\n      returndatasize\n      0x00\n      0x20\n      dup5\n      add\n      returndatacopy\n      jump(tag_54)\n    tag_55:\n      0x60\n      swap2\n      pop\n    tag_54:\n      pop\n        /* \"FundMe.sol\":1503:1583  (bool callSuccess,) = payable(msg.sender).call{value: address(this).balance}(\"\") */\n      pop\n      swap1\n      pop\n        /* \"FundMe.sol\":1602:1613  callSuccess */\n      dup1\n        /* \"FundMe.sol\":1593:1629  require (callSuccess, \"Call failed\") */\n      tag_56\n      jumpi\n      mload(0x40)\n      0x08c379a000000000000000000000000000000000000000000000000000000000\n      dup2\n      mstore\n      0x04\n      add\n      tag_57\n      swap1\n      tag_58\n      jump\t// in\n    tag_57:\n      mload(0x40)\n      dup1\n      swap2\n      sub\n      swap1\n      revert\n    tag_56:\n        /* \"FundMe.sol\":949:1636  {... */\n      pop\n        /* \"FundMe.sol\":922:1636  function withdraw() public {... */\n      jump\t// out\n        /* \"FundMe.sol\":334:390  mapping(address => uint256) public addressToAmountFunded */\n    tag_15:\n      mstore(0x20, 0x01)\n      dup1\n      0x00\n      mstore\n      keccak256(0x00, 0x40)\n      0x00\n      swap2\n      pop\n      swap1\n      pop\n      sload\n      dup2\n      jump\t// out\n        /* \"FundMe.sol\":249:296  uint256 public constant MINIMUM_USD = 50 * 1e18 */\n    tag_20:\n        /* \"FundMe.sol\":287:296  50 * 1e18 */\n      0x02b5e3af16b1880000\n        /* \"FundMe.sol\":249:296  uint256 public constant MINIMUM_USD = 50 * 1e18 */\n      dup2\n      jump\t// out\n        /* \"FundMe.sol\":398:428  address public immutable owner */\n    tag_24:\n      immutable(\"0xeafa31dc210956fc0884ec5660eba9405197797219cbbda41b6aaf7118c651d8\")\n      dup2\n      jump\t// out\n        /* \"FundMe.sol\":540:916  function fund() public payable {... */\n    tag_28:\n        /* \"FundMe.sol\":287:296  50 * 1e18 */\n      0x02b5e3af16b1880000\n        /* \"FundMe.sol\":709:738  msg.value.getConversionRate() */\n      tag_60\n        /* \"FundMe.sol\":709:718  msg.value */\n      callvalue\n        /* \"FundMe.sol\":709:736  msg.value.getConversionRate */\n      tag_61\n        /* \"FundMe.sol\":709:738  msg.value.getConversionRate() */\n      jump\t// in\n    tag_60:\n        /* \"FundMe.sol\":709:753  msg.value.getConversionRate() >= MINIMUM_USD */\n      lt\n      iszero\n        /* \"FundMe.sol\":700:776  require (msg.value.getConversionRate() >= MINIMUM_USD, \"Didn't send enough\") */\n      tag_62\n      jumpi\n      mload(0x40)\n      0x08c379a000000000000000000000000000000000000000000000000000000000\n      dup2\n      mstore\n      0x04\n      add\n      tag_63\n      swap1\n      tag_64\n      jump\t// in\n    tag_63:\n      mload(0x40)\n      dup1\n      swap2\n      sub\n      swap1\n      revert\n    tag_62:\n        /* \"FundMe.sol\":829:836  funders */\n      0x00\n        /* \"FundMe.sol\":842:852  msg.sender */\n      caller\n        /* \"FundMe.sol\":829:853  funders.push(msg.sender) */\n      swap1\n      dup1\n      0x01\n      dup2\n      sload\n      add\n      dup1\n      dup3\n      sstore\n      dup1\n      swap2\n      pop\n      pop\n      0x01\n      swap1\n      sub\n      swap1\n      0x00\n      mstore\n      keccak256(0x00, 0x20)\n      add\n      0x00\n      swap1\n      swap2\n      swap1\n      swap2\n      swap1\n      swap2\n      0x0100\n      exp\n      dup2\n      sload\n      dup2\n      0xffffffffffffffffffffffffffffffffffffffff\n      mul\n      not\n      and\n      swap1\n      dup4\n      0xffffffffffffffffffffffffffffffffffffffff\n      and\n      mul\n      or\n      swap1\n      sstore\n      pop\n        /* \"FundMe.sol\":899:908  msg.value */\n      callvalue\n        /* \"FundMe.sol\":863:884  addressToAmountFunded */\n      0x01\n        /* \"FundMe.sol\":863:896  addressToAmountFunded[msg.sender] */\n      0x00\n        /* \"FundMe.sol\":885:895  msg.sender */\n      caller\n        /* \"FundMe.sol\":863:896  addressToAmountFunded[msg.sender] */\n      0xffffffffffffffffffffffffffffffffffffffff\n      and\n      0xffffffffffffffffffffffffffffffffffffffff\n      and\n      dup2\n      mstore\n      0x20\n      add\n      swap1\n      dup2\n      mstore\n      0x20\n      add\n      0x00\n      keccak256\n        /* \"FundMe.sol\":863:908  addressToAmountFunded[msg.sender] = msg.value */\n      dup2\n      swap1\n      sstore\n      pop\n        /* \"FundMe.sol\":540:916  function fund() public payable {... */\n      jump\t// out\n        /* \"FundMe.sol\":304:328  address[] public funders */\n    tag_33:\n      0x00\n      dup2\n      dup2\n      sload\n      dup2\n      lt\n      tag_66\n      jumpi\n      0x00\n      dup1\n      revert\n    tag_66:\n      swap1\n      0x00\n      mstore\n      keccak256(0x00, 0x20)\n      add\n      0x00\n      swap2\n      pop\n      sload\n      swap1\n      0x0100\n      exp\n      swap1\n      div\n      0xffffffffffffffffffffffffffffffffffffffff\n      and\n      dup2\n      jump\t// out\n        /* \"PriceConverter.sol\":823:1045  function getConversionRate(uint256 ethAmount) internal view returns (uint256) {... */\n    tag_61:\n        /* \"PriceConverter.sol\":892:899  uint256 */\n      0x00\n        /* \"PriceConverter.sol\":911:927  uint256 ethPrice */\n      dup1\n        /* \"PriceConverter.sol\":930:940  getPrice() */\n      tag_69\n        /* \"PriceConverter.sol\":930:938  getPrice */\n      tag_70\n        /* \"PriceConverter.sol\":930:940  getPrice() */\n      jump\t// in\n    tag_69:\n        /* \"PriceConverter.sol\":911:940  uint256 ethPrice = getPrice() */\n      swap1\n      pop\n        /* \"PriceConverter.sol\":950:972  uint256 ethAmountInUsd */\n      0x00\n        /* \"PriceConverter.sol\":1000:1004  1e18 */\n      0x0de0b6b3a7640000\n        /* \"PriceConverter.sol\":987:996  ethAmount */\n      dup5\n        /* \"PriceConverter.sol\":976:984  ethPrice */\n      dup4\n        /* \"PriceConverter.sol\":976:996  ethPrice * ethAmount */\n      tag_71\n      swap2\n      swap1\n      tag_72\n      jump\t// in\n    tag_71:\n        /* \"PriceConverter.sol\":975:1004  (ethPrice * ethAmount) / 1e18 */\n      tag_73\n      swap2\n      swap1\n      tag_74\n      jump\t// in\n    tag_73:\n        /* \"PriceConverter.sol\":950:1004  uint256 ethAmountInUsd = (ethPrice * ethAmount) / 1e18 */\n      swap1\n      pop\n        /* \"PriceConverter.sol\":1023:1037  ethAmountInUsd */\n      dup1\n        /* \"PriceConverter.sol\":1016:1037  return ethAmountInUsd */\n      swap3\n      pop\n      pop\n      pop\n        /* \"PriceConverter.sol\":823:1045  function getConversionRate(uint256 ethAmount) internal view returns (uint256) {... */\n      swap2\n      swap1\n      pop\n      jump\t// out\n        /* \"PriceConverter.sol\":164:605  function getPrice() internal view returns (uint256) {... */\n    tag_70:\n        /* \"PriceConverter.sol\":207:214  uint256 */\n      0x00\n        /* \"PriceConverter.sol\":336:367  AggregatorV3Interface priceFeed */\n      dup1\n        /* \"PriceConverter.sol\":392:434  0x8A753747A1Fa494EC906cE90E9f37563A8AF630e */\n      0x8a753747a1fa494ec906ce90e9f37563a8af630e\n        /* \"PriceConverter.sol\":336:435  AggregatorV3Interface priceFeed = AggregatorV3Interface(0x8A753747A1Fa494EC906cE90E9f37563A8AF630e) */\n      swap1\n      pop\n        /* \"PriceConverter.sol\":446:455  int price */\n      0x00\n        /* \"PriceConverter.sol\":462:471  priceFeed */\n      dup2\n        /* \"PriceConverter.sol\":462:487  priceFeed.latestRoundData */\n      0xffffffffffffffffffffffffffffffffffffffff\n      and\n      0xfeaf968c\n        /* \"PriceConverter.sol\":462:489  priceFeed.latestRoundData() */\n      mload(0x40)\n      dup2\n      0xffffffff\n      and\n      0xe0\n      shl\n      dup2\n      mstore\n      0x04\n      add\n      0xa0\n      mload(0x40)\n      dup1\n      dup4\n      sub\n      dup2\n      dup7\n      dup1\n      extcodesize\n      iszero\n      dup1\n      iszero\n      tag_76\n      jumpi\n      0x00\n      dup1\n      revert\n    tag_76:\n      pop\n      gas\n      staticcall\n      iszero\n      dup1\n      iszero\n      tag_78\n      jumpi\n      returndatasize\n      0x00\n      dup1\n      returndatacopy\n      revert(0x00, returndatasize)\n    tag_78:\n      pop\n      pop\n      pop\n      pop\n      mload(0x40)\n      returndatasize\n      not(0x1f)\n      0x1f\n      dup3\n      add\n      and\n      dup3\n      add\n      dup1\n      0x40\n      mstore\n      pop\n      dup2\n      add\n      swap1\n      tag_79\n      swap2\n      swap1\n      tag_80\n      jump\t// in\n    tag_79:\n        /* \"PriceConverter.sol\":444:489  (,int price,,,) = priceFeed.latestRoundData() */\n      pop\n      pop\n      pop\n      swap2\n      pop\n      pop\n        /* \"PriceConverter.sol\":592:596  1e10 */\n      0x02540be400\n        /* \"PriceConverter.sol\":584:589  price */\n      dup2\n        /* \"PriceConverter.sol\":584:596  price * 1e10 */\n      tag_81\n      swap2\n      swap1\n      tag_82\n      jump\t// in\n    tag_81:\n        /* \"PriceConverter.sol\":569:597  return uint256(price * 1e10) */\n      swap3\n      pop\n      pop\n      pop\n        /* \"PriceConverter.sol\":164:605  function getPrice() internal view returns (uint256) {... */\n      swap1\n      jump\t// out\n    tag_50:\n      dup3\n      dup1\n      sload\n      dup3\n      dup3\n      sstore\n      swap1\n      0x00\n      mstore\n      keccak256(0x00, 0x20)\n      swap1\n      dup2\n      add\n      swap3\n      dup3\n      iszero\n      tag_83\n      jumpi\n      swap2\n      0x20\n      mul\n      dup3\n      add\n    tag_84:\n      dup3\n      dup2\n      gt\n      iszero\n      tag_85\n      jumpi\n      dup3\n      mload\n      dup3\n      exp(0x0100, 0x00)\n      dup2\n      sload\n      dup2\n      0xffffffffffffffffffffffffffffffffffffffff\n      mul\n      not\n      and\n      swap1\n      dup4\n      0xffffffffffffffffffffffffffffffffffffffff\n      and\n      mul\n      or\n      swap1\n      sstore\n      pop\n      swap2\n      0x20\n      add\n      swap2\n      swap1\n      0x01\n      add\n      swap1\n      jump(tag_84)\n    tag_85:\n    tag_83:\n      pop\n      swap1\n      pop\n      tag_86\n      swap2\n      swap1\n      tag_87\n      jump\t// in\n    tag_86:\n      pop\n      swap1\n      jump\t// out\n    tag_87:\n    tag_88:\n      dup1\n      dup3\n      gt\n      iszero\n      tag_89\n      jumpi\n      0x00\n      dup2\n      0x00\n      swap1\n      sstore\n      pop\n      0x01\n      add\n      jump(tag_88)\n    tag_89:\n      pop\n      swap1\n      jump\t// out\n        /* \"#utility.yul\":7:146   */\n    tag_91:\n        /* \"#utility.yul\":53:58   */\n      0x00\n        /* \"#utility.yul\":91:97   */\n      dup2\n        /* \"#utility.yul\":78:98   */\n      calldataload\n        /* \"#utility.yul\":69:98   */\n      swap1\n      pop\n        /* \"#utility.yul\":107:140   */\n      tag_93\n        /* \"#utility.yul\":134:139   */\n      dup2\n        /* \"#utility.yul\":107:140   */\n      tag_94\n      jump\t// in\n    tag_93:\n        /* \"#utility.yul\":7:146   */\n      swap3\n      swap2\n      pop\n      pop\n      jump\t// out\n        /* \"#utility.yul\":152:293   */\n    tag_95:\n        /* \"#utility.yul\":208:213   */\n      0x00\n        /* \"#utility.yul\":239:245   */\n      dup2\n        /* \"#utility.yul\":233:246   */\n      mload\n        /* \"#utility.yul\":224:246   */\n      swap1\n      pop\n        /* \"#utility.yul\":255:287   */\n      tag_97\n        /* \"#utility.yul\":281:286   */\n      dup2\n        /* \"#utility.yul\":255:287   */\n      tag_98\n      jump\t// in\n    tag_97:\n        /* \"#utility.yul\":152:293   */\n      swap3\n      swap2\n      pop\n      pop\n      jump\t// out\n        /* \"#utility.yul\":299:438   */\n    tag_99:\n        /* \"#utility.yul\":345:350   */\n      0x00\n        /* \"#utility.yul\":383:389   */\n      dup2\n        /* \"#utility.yul\":370:390   */\n      calldataload\n        /* \"#utility.yul\":361:390   */\n      swap1\n      pop\n        /* \"#utility.yul\":399:432   */\n      tag_101\n        /* \"#utility.yul\":426:431   */\n      dup2\n        /* \"#utility.yul\":399:432   */\n      tag_102\n      jump\t// in\n    tag_101:\n        /* \"#utility.yul\":299:438   */\n      swap3\n      swap2\n      pop\n      pop\n      jump\t// out\n        /* \"#utility.yul\":444:587   */\n    tag_103:\n        /* \"#utility.yul\":501:506   */\n      0x00\n        /* \"#utility.yul\":532:538   */\n      dup2\n        /* \"#utility.yul\":526:539   */\n      mload\n        /* \"#utility.yul\":517:539   */\n      swap1\n      pop\n        /* \"#utility.yul\":548:581   */\n      tag_105\n        /* \"#utility.yul\":575:580   */\n      dup2\n        /* \"#utility.yul\":548:581   */\n      tag_102\n      jump\t// in\n    tag_105:\n        /* \"#utility.yul\":444:587   */\n      swap3\n      swap2\n      pop\n      pop\n      jump\t// out\n        /* \"#utility.yul\":593:734   */\n    tag_106:\n        /* \"#utility.yul\":649:654   */\n      0x00\n        /* \"#utility.yul\":680:686   */\n      dup2\n        /* \"#utility.yul\":674:687   */\n      mload\n        /* \"#utility.yul\":665:687   */\n      swap1\n      pop\n        /* \"#utility.yul\":696:728   */\n      tag_108\n        /* \"#utility.yul\":722:727   */\n      dup2\n        /* \"#utility.yul\":696:728   */\n      tag_109\n      jump\t// in\n    tag_108:\n        /* \"#utility.yul\":593:734   */\n      swap3\n      swap2\n      pop\n      pop\n      jump\t// out\n        /* \"#utility.yul\":740:1069   */\n    tag_14:\n        /* \"#utility.yul\":799:805   */\n      0x00\n        /* \"#utility.yul\":848:850   */\n      0x20\n        /* \"#utility.yul\":836:845   */\n      dup3\n        /* \"#utility.yul\":827:834   */\n      dup5\n        /* \"#utility.yul\":823:846   */\n      sub\n        /* \"#utility.yul\":819:851   */\n      slt\n        /* \"#utility.yul\":816:935   */\n      iszero\n      tag_111\n      jumpi\n        /* \"#utility.yul\":854:933   */\n      tag_112\n      tag_113\n      jump\t// in\n    tag_112:\n        /* \"#utility.yul\":816:935   */\n    tag_111:\n        /* \"#utility.yul\":974:975   */\n      0x00\n        /* \"#utility.yul\":999:1052   */\n      tag_114\n        /* \"#utility.yul\":1044:1051   */\n      dup5\n        /* \"#utility.yul\":1035:1041   */\n      dup3\n        /* \"#utility.yul\":1024:1033   */\n      dup6\n        /* \"#utility.yul\":1020:1042   */\n      add\n        /* \"#utility.yul\":999:1052   */\n      tag_91\n      jump\t// in\n    tag_114:\n        /* \"#utility.yul\":989:1052   */\n      swap2\n      pop\n        /* \"#utility.yul\":945:1062   */\n      pop\n        /* \"#utility.yul\":740:1069   */\n      swap3\n      swap2\n      pop\n      pop\n      jump\t// out\n        /* \"#utility.yul\":1075:1404   */\n    tag_32:\n        /* \"#utility.yul\":1134:1140   */\n      0x00\n        /* \"#utility.yul\":1183:1185   */\n      0x20\n        /* \"#utility.yul\":1171:1180   */\n      dup3\n        /* \"#utility.yul\":1162:1169   */\n      dup5\n        /* \"#utility.yul\":1158:1181   */\n      sub\n        /* \"#utility.yul\":1154:1186   */\n      slt\n        /* \"#utility.yul\":1151:1270   */\n      iszero\n      tag_116\n      jumpi\n        /* \"#utility.yul\":1189:1268   */\n      tag_117\n      tag_113\n      jump\t// in\n    tag_117:\n        /* \"#utility.yul\":1151:1270   */\n    tag_116:\n        /* \"#utility.yul\":1309:1310   */\n      0x00\n        /* \"#utility.yul\":1334:1387   */\n      tag_118\n        /* \"#utility.yul\":1379:1386   */\n      dup5\n        /* \"#utility.yul\":1370:1376   */\n      dup3\n        /* \"#utility.yul\":1359:1368   */\n      dup6\n        /* \"#utility.yul\":1355:1377   */\n      add\n        /* \"#utility.yul\":1334:1387   */\n      tag_99\n      jump\t// in\n    tag_118:\n        /* \"#utility.yul\":1324:1387   */\n      swap2\n      pop\n        /* \"#utility.yul\":1280:1397   */\n      pop\n        /* \"#utility.yul\":1075:1404   */\n      swap3\n      swap2\n      pop\n      pop\n      jump\t// out\n        /* \"#utility.yul\":1410:2381   */\n    tag_80:\n        /* \"#utility.yul\":1513:1519   */\n      0x00\n        /* \"#utility.yul\":1521:1527   */\n      dup1\n        /* \"#utility.yul\":1529:1535   */\n      0x00\n        /* \"#utility.yul\":1537:1543   */\n      dup1\n        /* \"#utility.yul\":1545:1551   */\n      0x00\n        /* \"#utility.yul\":1594:1597   */\n      0xa0\n        /* \"#utility.yul\":1582:1591   */\n      dup7\n        /* \"#utility.yul\":1573:1580   */\n      dup9\n        /* \"#utility.yul\":1569:1592   */\n      sub\n        /* \"#utility.yul\":1565:1598   */\n      slt\n        /* \"#utility.yul\":1562:1682   */\n      iszero\n      tag_120\n      jumpi\n        /* \"#utility.yul\":1601:1680   */\n      tag_121\n      tag_113\n      jump\t// in\n    tag_121:\n        /* \"#utility.yul\":1562:1682   */\n    tag_120:\n        /* \"#utility.yul\":1721:1722   */\n      0x00\n        /* \"#utility.yul\":1746:1809   */\n      tag_122\n        /* \"#utility.yul\":1801:1808   */\n      dup9\n        /* \"#utility.yul\":1792:1798   */\n      dup3\n        /* \"#utility.yul\":1781:1790   */\n      dup10\n        /* \"#utility.yul\":1777:1799   */\n      add\n        /* \"#utility.yul\":1746:1809   */\n      tag_106\n      jump\t// in\n    tag_122:\n        /* \"#utility.yul\":1736:1809   */\n      swap6\n      pop\n        /* \"#utility.yul\":1692:1819   */\n      pop\n        /* \"#utility.yul\":1858:1860   */\n      0x20\n        /* \"#utility.yul\":1884:1947   */\n      tag_123\n        /* \"#utility.yul\":1939:1946   */\n      dup9\n        /* \"#utility.yul\":1930:1936   */\n      dup3\n        /* \"#utility.yul\":1919:1928   */\n      dup10\n        /* \"#utility.yul\":1915:1937   */\n      add\n        /* \"#utility.yul\":1884:1947   */\n      tag_95\n      jump\t// in\n    tag_123:\n        /* \"#utility.yul\":1874:1947   */\n      swap5\n      pop\n        /* \"#utility.yul\":1829:1957   */\n      pop\n        /* \"#utility.yul\":1996:1998   */\n      0x40\n        /* \"#utility.yul\":2022:2086   */\n      tag_124\n        /* \"#utility.yul\":2078:2085   */\n      dup9\n        /* \"#utility.yul\":2069:2075   */\n      dup3\n        /* \"#utility.yul\":2058:2067   */\n      dup10\n        /* \"#utility.yul\":2054:2076   */\n      add\n        /* \"#utility.yul\":2022:2086   */\n      tag_103\n      jump\t// in\n    tag_124:\n        /* \"#utility.yul\":2012:2086   */\n      swap4\n      pop\n        /* \"#utility.yul\":1967:2096   */\n      pop\n        /* \"#utility.yul\":2135:2137   */\n      0x60\n        /* \"#utility.yul\":2161:2225   */\n      tag_125\n        /* \"#utility.yul\":2217:2224   */\n      dup9\n        /* \"#utility.yul\":2208:2214   */\n      dup3\n        /* \"#utility.yul\":2197:2206   */\n      dup10\n        /* \"#utility.yul\":2193:2215   */\n      add\n        /* \"#utility.yul\":2161:2225   */\n      tag_103\n      jump\t// in\n    tag_125:\n        /* \"#utility.yul\":2151:2225   */\n      swap3\n      pop\n        /* \"#utility.yul\":2106:2235   */\n      pop\n        /* \"#utility.yul\":2274:2277   */\n      0x80\n        /* \"#utility.yul\":2301:2364   */\n      tag_126\n        /* \"#utility.yul\":2356:2363   */\n      dup9\n        /* \"#utility.yul\":2347:2353   */\n      dup3\n        /* \"#utility.yul\":2336:2345   */\n      dup10\n        /* \"#utility.yul\":2332:2354   */\n      add\n        /* \"#utility.yul\":2301:2364   */\n      tag_106\n      jump\t// in\n    tag_126:\n        /* \"#utility.yul\":2291:2364   */\n      swap2\n      pop\n        /* \"#utility.yul\":2245:2374   */\n      pop\n        /* \"#utility.yul\":1410:2381   */\n      swap3\n      swap6\n      pop\n      swap3\n      swap6\n      swap1\n      swap4\n      pop\n      jump\t// out\n        /* \"#utility.yul\":2387:2505   */\n    tag_127:\n        /* \"#utility.yul\":2474:2498   */\n      tag_129\n        /* \"#utility.yul\":2492:2497   */\n      dup2\n        /* \"#utility.yul\":2474:2498   */\n      tag_130\n      jump\t// in\n    tag_129:\n        /* \"#utility.yul\":2469:2472   */\n      dup3\n        /* \"#utility.yul\":2462:2499   */\n      mstore\n        /* \"#utility.yul\":2387:2505   */\n      pop\n      pop\n      jump\t// out\n        /* \"#utility.yul\":2511:2877   */\n    tag_131:\n        /* \"#utility.yul\":2653:2656   */\n      0x00\n        /* \"#utility.yul\":2674:2741   */\n      tag_133\n        /* \"#utility.yul\":2738:2740   */\n      0x0b\n        /* \"#utility.yul\":2733:2736   */\n      dup4\n        /* \"#utility.yul\":2674:2741   */\n      tag_134\n      jump\t// in\n    tag_133:\n        /* \"#utility.yul\":2667:2741   */\n      swap2\n      pop\n        /* \"#utility.yul\":2750:2843   */\n      tag_135\n        /* \"#utility.yul\":2839:2842   */\n      dup3\n        /* \"#utility.yul\":2750:2843   */\n      tag_136\n      jump\t// in\n    tag_135:\n        /* \"#utility.yul\":2868:2870   */\n      0x20\n        /* \"#utility.yul\":2863:2866   */\n      dup3\n        /* \"#utility.yul\":2859:2871   */\n      add\n        /* \"#utility.yul\":2852:2871   */\n      swap1\n      pop\n        /* \"#utility.yul\":2511:2877   */\n      swap2\n      swap1\n      pop\n      jump\t// out\n        /* \"#utility.yul\":2883:3249   */\n    tag_137:\n        /* \"#utility.yul\":3025:3028   */\n      0x00\n        /* \"#utility.yul\":3046:3113   */\n      tag_139\n        /* \"#utility.yul\":3110:3112   */\n      0x12\n        /* \"#utility.yul\":3105:3108   */\n      dup4\n        /* \"#utility.yul\":3046:3113   */\n      tag_134\n      jump\t// in\n    tag_139:\n        /* \"#utility.yul\":3039:3113   */\n      swap2\n      pop\n        /* \"#utility.yul\":3122:3215   */\n      tag_140\n        /* \"#utility.yul\":3211:3214   */\n      dup3\n        /* \"#utility.yul\":3122:3215   */\n      tag_141\n      jump\t// in\n    tag_140:\n        /* \"#utility.yul\":3240:3242   */\n      0x20\n        /* \"#utility.yul\":3235:3238   */\n      dup3\n        /* \"#utility.yul\":3231:3243   */\n      add\n        /* \"#utility.yul\":3224:3243   */\n      swap1\n      pop\n        /* \"#utility.yul\":2883:3249   */\n      swap2\n      swap1\n      pop\n      jump\t// out\n        /* \"#utility.yul\":3255:3653   */\n    tag_142:\n        /* \"#utility.yul\":3414:3417   */\n      0x00\n        /* \"#utility.yul\":3435:3518   */\n      tag_144\n        /* \"#utility.yul\":3516:3517   */\n      0x00\n        /* \"#utility.yul\":3511:3514   */\n      dup4\n        /* \"#utility.yul\":3435:3518   */\n      tag_145\n      jump\t// in\n    tag_144:\n        /* \"#utility.yul\":3428:3518   */\n      swap2\n      pop\n        /* \"#utility.yul\":3527:3620   */\n      tag_146\n        /* \"#utility.yul\":3616:3619   */\n      dup3\n        /* \"#utility.yul\":3527:3620   */\n      tag_147\n      jump\t// in\n    tag_146:\n        /* \"#utility.yul\":3645:3646   */\n      0x00\n        /* \"#utility.yul\":3640:3643   */\n      dup3\n        /* \"#utility.yul\":3636:3647   */\n      add\n        /* \"#utility.yul\":3629:3647   */\n      swap1\n      pop\n        /* \"#utility.yul\":3255:3653   */\n      swap2\n      swap1\n      pop\n      jump\t// out\n        /* \"#utility.yul\":3659:3777   */\n    tag_148:\n        /* \"#utility.yul\":3746:3770   */\n      tag_150\n        /* \"#utility.yul\":3764:3769   */\n      dup2\n        /* \"#utility.yul\":3746:3770   */\n      tag_151\n      jump\t// in\n    tag_150:\n        /* \"#utility.yul\":3741:3744   */\n      dup3\n        /* \"#utility.yul\":3734:3771   */\n      mstore\n        /* \"#utility.yul\":3659:3777   */\n      pop\n      pop\n      jump\t// out\n        /* \"#utility.yul\":3783:4162   */\n    tag_52:\n        /* \"#utility.yul\":3967:3970   */\n      0x00\n        /* \"#utility.yul\":3989:4136   */\n      tag_153\n        /* \"#utility.yul\":4132:4135   */\n      dup3\n        /* \"#utility.yul\":3989:4136   */\n      tag_142\n      jump\t// in\n    tag_153:\n        /* \"#utility.yul\":3982:4136   */\n      swap2\n      pop\n        /* \"#utility.yul\":4153:4156   */\n      dup2\n        /* \"#utility.yul\":4146:4156   */\n      swap1\n      pop\n        /* \"#utility.yul\":3783:4162   */\n      swap2\n      swap1\n      pop\n      jump\t// out\n        /* \"#utility.yul\":4168:4390   */\n    tag_26:\n        /* \"#utility.yul\":4261:4265   */\n      0x00\n        /* \"#utility.yul\":4299:4301   */\n      0x20\n        /* \"#utility.yul\":4288:4297   */\n      dup3\n        /* \"#utility.yul\":4284:4302   */\n      add\n        /* \"#utility.yul\":4276:4302   */\n      swap1\n      pop\n        /* \"#utility.yul\":4312:4383   */\n      tag_155\n        /* \"#utility.yul\":4380:4381   */\n      0x00\n        /* \"#utility.yul\":4369:4378   */\n      dup4\n        /* \"#utility.yul\":4365:4382   */\n      add\n        /* \"#utility.yul\":4356:4362   */\n      dup5\n        /* \"#utility.yul\":4312:4383   */\n      tag_127\n      jump\t// in\n    tag_155:\n        /* \"#utility.yul\":4168:4390   */\n      swap3\n      swap2\n      pop\n      pop\n      jump\t// out\n        /* \"#utility.yul\":4396:4815   */\n    tag_58:\n        /* \"#utility.yul\":4562:4566   */\n      0x00\n        /* \"#utility.yul\":4600:4602   */\n      0x20\n        /* \"#utility.yul\":4589:4598   */\n      dup3\n        /* \"#utility.yul\":4585:4603   */\n      add\n        /* \"#utility.yul\":4577:4603   */\n      swap1\n      pop\n        /* \"#utility.yul\":4649:4658   */\n      dup2\n        /* \"#utility.yul\":4643:4647   */\n      dup2\n        /* \"#utility.yul\":4639:4659   */\n      sub\n        /* \"#utility.yul\":4635:4636   */\n      0x00\n        /* \"#utility.yul\":4624:4633   */\n      dup4\n        /* \"#utility.yul\":4620:4637   */\n      add\n        /* \"#utility.yul\":4613:4660   */\n      mstore\n        /* \"#utility.yul\":4677:4808   */\n      tag_157\n        /* \"#utility.yul\":4803:4807   */\n      dup2\n        /* \"#utility.yul\":4677:4808   */\n      tag_131\n      jump\t// in\n    tag_157:\n        /* \"#utility.yul\":4669:4808   */\n      swap1\n      pop\n        /* \"#utility.yul\":4396:4815   */\n      swap2\n      swap1\n      pop\n      jump\t// out\n        /* \"#utility.yul\":4821:5240   */\n    tag_64:\n        /* \"#utility.yul\":4987:4991   */\n      0x00\n        /* \"#utility.yul\":5025:5027   */\n      0x20\n        /* \"#utility.yul\":5014:5023   */\n      dup3\n        /* \"#utility.yul\":5010:5028   */\n      add\n        /* \"#utility.yul\":5002:5028   */\n      swap1\n      pop\n        /* \"#utility.yul\":5074:5083   */\n      dup2\n        /* \"#utility.yul\":5068:5072   */\n      dup2\n        /* \"#utility.yul\":5064:5084   */\n      sub\n        /* \"#utility.yul\":5060:5061   */\n      0x00\n        /* \"#utility.yul\":5049:5058   */\n      dup4\n        /* \"#utility.yul\":5045:5062   */\n      add\n        /* \"#utility.yul\":5038:5085   */\n      mstore\n        /* \"#utility.yul\":5102:5233   */\n      tag_159\n        /* \"#utility.yul\":5228:5232   */\n      dup2\n        /* \"#utility.yul\":5102:5233   */\n      tag_137\n      jump\t// in\n    tag_159:\n        /* \"#utility.yul\":5094:5233   */\n      swap1\n      pop\n        /* \"#utility.yul\":4821:5240   */\n      swap2\n      swap1\n      pop\n      jump\t// out\n        /* \"#utility.yul\":5246:5468   */\n    tag_17:\n        /* \"#utility.yul\":5339:5343   */\n      0x00\n        /* \"#utility.yul\":5377:5379   */\n      0x20\n        /* \"#utility.yul\":5366:5375   */\n      dup3\n        /* \"#utility.yul\":5362:5380   */\n      add\n        /* \"#utility.yul\":5354:5380   */\n      swap1\n      pop\n        /* \"#utility.yul\":5390:5461   */\n      tag_161\n        /* \"#utility.yul\":5458:5459   */\n      0x00\n        /* \"#utility.yul\":5447:5456   */\n      dup4\n        /* \"#utility.yul\":5443:5460   */\n      add\n        /* \"#utility.yul\":5434:5440   */\n      dup5\n        /* \"#utility.yul\":5390:5461   */\n      tag_148\n      jump\t// in\n    tag_161:\n        /* \"#utility.yul\":5246:5468   */\n      swap3\n      swap2\n      pop\n      pop\n      jump\t// out\n        /* \"#utility.yul\":5555:5702   */\n    tag_145:\n        /* \"#utility.yul\":5656:5667   */\n      0x00\n        /* \"#utility.yul\":5693:5696   */\n      dup2\n        /* \"#utility.yul\":5678:5696   */\n      swap1\n      pop\n        /* \"#utility.yul\":5555:5702   */\n      swap3\n      swap2\n      pop\n      pop\n      jump\t// out\n        /* \"#utility.yul\":5708:5877   */\n    tag_134:\n        /* \"#utility.yul\":5792:5803   */\n      0x00\n        /* \"#utility.yul\":5826:5832   */\n      dup3\n        /* \"#utility.yul\":5821:5824   */\n      dup3\n        /* \"#utility.yul\":5814:5833   */\n      mstore\n        /* \"#utility.yul\":5866:5870   */\n      0x20\n        /* \"#utility.yul\":5861:5864   */\n      dup3\n        /* \"#utility.yul\":5857:5871   */\n      add\n        /* \"#utility.yul\":5842:5871   */\n      swap1\n      pop\n        /* \"#utility.yul\":5708:5877   */\n      swap3\n      swap2\n      pop\n      pop\n      jump\t// out\n        /* \"#utility.yul\":5883:6068   */\n    tag_74:\n        /* \"#utility.yul\":5923:5924   */\n      0x00\n        /* \"#utility.yul\":5940:5960   */\n      tag_167\n        /* \"#utility.yul\":5958:5959   */\n      dup3\n        /* \"#utility.yul\":5940:5960   */\n      tag_151\n      jump\t// in\n    tag_167:\n        /* \"#utility.yul\":5935:5960   */\n      swap2\n      pop\n        /* \"#utility.yul\":5974:5994   */\n      tag_168\n        /* \"#utility.yul\":5992:5993   */\n      dup4\n        /* \"#utility.yul\":5974:5994   */\n      tag_151\n      jump\t// in\n    tag_168:\n        /* \"#utility.yul\":5969:5994   */\n      swap3\n      pop\n        /* \"#utility.yul\":6013:6014   */\n      dup3\n        /* \"#utility.yul\":6003:6038   */\n      tag_169\n      jumpi\n        /* \"#utility.yul\":6018:6036   */\n      tag_170\n      tag_171\n      jump\t// in\n    tag_170:\n        /* \"#utility.yul\":6003:6038   */\n    tag_169:\n        /* \"#utility.yul\":6060:6061   */\n      dup3\n        /* \"#utility.yul\":6057:6058   */\n      dup3\n        /* \"#utility.yul\":6053:6062   */\n      div\n        /* \"#utility.yul\":6048:6062   */\n      swap1\n      pop\n        /* \"#utility.yul\":5883:6068   */\n      swap3\n      swap2\n      pop\n      pop\n      jump\t// out\n        /* \"#utility.yul\":6074:7065   */\n    tag_82:\n        /* \"#utility.yul\":6113:6120   */\n      0x00\n        /* \"#utility.yul\":6136:6155   */\n      tag_173\n        /* \"#utility.yul\":6153:6154   */\n      dup3\n        /* \"#utility.yul\":6136:6155   */\n      tag_174\n      jump\t// in\n    tag_173:\n        /* \"#utility.yul\":6131:6155   */\n      swap2\n      pop\n        /* \"#utility.yul\":6169:6188   */\n      tag_175\n        /* \"#utility.yul\":6186:6187   */\n      dup4\n        /* \"#utility.yul\":6169:6188   */\n      tag_174\n      jump\t// in\n    tag_175:\n        /* \"#utility.yul\":6164:6188   */\n      swap3\n      pop\n        /* \"#utility.yul\":6370:6371   */\n      dup3\n        /* \"#utility.yul\":6302:6368   */\n      0x7fffffffffffffffffffffffffffffffffffffffffffffffffffffffffffffff\n        /* \"#utility.yul\":6298:6372   */\n      div\n        /* \"#utility.yul\":6295:6296   */\n      dup3\n        /* \"#utility.yul\":6292:6373   */\n      gt\n        /* \"#utility.yul\":6287:6288   */\n      0x00\n        /* \"#utility.yul\":6284:6285   */\n      dup5\n        /* \"#utility.yul\":6280:6289   */\n      sgt\n        /* \"#utility.yul\":6276:6277   */\n      0x00\n        /* \"#utility.yul\":6273:6274   */\n      dup5\n        /* \"#utility.yul\":6269:6278   */\n      sgt\n        /* \"#utility.yul\":6265:6290   */\n      and\n        /* \"#utility.yul\":6261:6374   */\n      and\n        /* \"#utility.yul\":6258:6397   */\n      iszero\n      tag_176\n      jumpi\n        /* \"#utility.yul\":6377:6395   */\n      tag_177\n      tag_178\n      jump\t// in\n    tag_177:\n        /* \"#utility.yul\":6258:6397   */\n    tag_176:\n        /* \"#utility.yul\":6581:6582   */\n      dup2\n        /* \"#utility.yul\":6513:6579   */\n      0x8000000000000000000000000000000000000000000000000000000000000000\n        /* \"#utility.yul\":6508:6583   */\n      sdiv\n        /* \"#utility.yul\":6505:6506   */\n      dup4\n        /* \"#utility.yul\":6501:6584   */\n      slt\n        /* \"#utility.yul\":6496:6497   */\n      0x00\n        /* \"#utility.yul\":6493:6494   */\n      dup5\n        /* \"#utility.yul\":6489:6498   */\n      slt\n        /* \"#utility.yul\":6485:6486   */\n      0x00\n        /* \"#utility.yul\":6482:6483   */\n      dup5\n        /* \"#utility.yul\":6478:6487   */\n      sgt\n        /* \"#utility.yul\":6474:6499   */\n      and\n        /* \"#utility.yul\":6470:6585   */\n      and\n        /* \"#utility.yul\":6467:6608   */\n      iszero\n      tag_179\n      jumpi\n        /* \"#utility.yul\":6588:6606   */\n      tag_180\n      tag_178\n      jump\t// in\n    tag_180:\n        /* \"#utility.yul\":6467:6608   */\n    tag_179:\n        /* \"#utility.yul\":6792:6793   */\n      dup3\n        /* \"#utility.yul\":6724:6790   */\n      0x8000000000000000000000000000000000000000000000000000000000000000\n        /* \"#utility.yul\":6719:6794   */\n      sdiv\n        /* \"#utility.yul\":6716:6717   */\n      dup3\n        /* \"#utility.yul\":6712:6795   */\n      slt\n        /* \"#utility.yul\":6707:6708   */\n      0x00\n        /* \"#utility.yul\":6704:6705   */\n      dup5\n        /* \"#utility.yul\":6700:6709   */\n      sgt\n        /* \"#utility.yul\":6696:6697   */\n      0x00\n        /* \"#utility.yul\":6693:6694   */\n      dup5\n        /* \"#utility.yul\":6689:6698   */\n      slt\n        /* \"#utility.yul\":6685:6710   */\n      and\n        /* \"#utility.yul\":6681:6796   */\n      and\n        /* \"#utility.yul\":6678:6819   */\n      iszero\n      tag_181\n      jumpi\n        /* \"#utility.yul\":6799:6817   */\n      tag_182\n      tag_178\n      jump\t// in\n    tag_182:\n        /* \"#utility.yul\":6678:6819   */\n    tag_181:\n        /* \"#utility.yul\":7002:7003   */\n      dup3\n        /* \"#utility.yul\":6934:7000   */\n      0x7fffffffffffffffffffffffffffffffffffffffffffffffffffffffffffffff\n        /* \"#utility.yul\":6929:7004   */\n      sdiv\n        /* \"#utility.yul\":6926:6927   */\n      dup3\n        /* \"#utility.yul\":6922:7005   */\n      slt\n        /* \"#utility.yul\":6917:6918   */\n      0x00\n        /* \"#utility.yul\":6914:6915   */\n      dup5\n        /* \"#utility.yul\":6910:6919   */\n      slt\n        /* \"#utility.yul\":6906:6907   */\n      0x00\n        /* \"#utility.yul\":6903:6904   */\n      dup5\n        /* \"#utility.yul\":6899:6908   */\n      slt\n        /* \"#utility.yul\":6895:6920   */\n      and\n        /* \"#utility.yul\":6891:7006   */\n      and\n        /* \"#utility.yul\":6888:7029   */\n      iszero\n      tag_183\n      jumpi\n        /* \"#utility.yul\":7009:7027   */\n      tag_184\n      tag_178\n      jump\t// in\n    tag_184:\n        /* \"#utility.yul\":6888:7029   */\n    tag_183:\n        /* \"#utility.yul\":7057:7058   */\n      dup3\n        /* \"#utility.yul\":7054:7055   */\n      dup3\n        /* \"#utility.yul\":7050:7059   */\n      mul\n        /* \"#utility.yul\":7039:7059   */\n      swap1\n      pop\n        /* \"#utility.yul\":6074:7065   */\n      swap3\n      swap2\n      pop\n      pop\n      jump\t// out\n        /* \"#utility.yul\":7071:7419   */\n    tag_72:\n        /* \"#utility.yul\":7111:7118   */\n      0x00\n        /* \"#utility.yul\":7134:7154   */\n      tag_186\n        /* \"#utility.yul\":7152:7153   */\n      dup3\n        /* \"#utility.yul\":7134:7154   */\n      tag_151\n      jump\t// in\n    tag_186:\n        /* \"#utility.yul\":7129:7154   */\n      swap2\n      pop\n        /* \"#utility.yul\":7168:7188   */\n      tag_187\n        /* \"#utility.yul\":7186:7187   */\n      dup4\n        /* \"#utility.yul\":7168:7188   */\n      tag_151\n      jump\t// in\n    tag_187:\n        /* \"#utility.yul\":7163:7188   */\n      swap3\n      pop\n        /* \"#utility.yul\":7356:7357   */\n      dup2\n        /* \"#utility.yul\":7288:7354   */\n      0xffffffffffffffffffffffffffffffffffffffffffffffffffffffffffffffff\n        /* \"#utility.yul\":7284:7358   */\n      div\n        /* \"#utility.yul\":7281:7282   */\n      dup4\n        /* \"#utility.yul\":7278:7359   */\n      gt\n        /* \"#utility.yul\":7273:7274   */\n      dup3\n        /* \"#utility.yul\":7266:7275   */\n      iszero\n        /* \"#utility.yul\":7259:7276   */\n      iszero\n        /* \"#utility.yul\":7255:7360   */\n      and\n        /* \"#utility.yul\":7252:7383   */\n      iszero\n      tag_188\n      jumpi\n        /* \"#utility.yul\":7363:7381   */\n      tag_189\n      tag_178\n      jump\t// in\n    tag_189:\n        /* \"#utility.yul\":7252:7383   */\n    tag_188:\n        /* \"#utility.yul\":7411:7412   */\n      dup3\n        /* \"#utility.yul\":7408:7409   */\n      dup3\n        /* \"#utility.yul\":7404:7413   */\n      mul\n        /* \"#utility.yul\":7393:7413   */\n      swap1\n      pop\n        /* \"#utility.yul\":7071:7419   */\n      swap3\n      swap2\n      pop\n      pop\n      jump\t// out\n        /* \"#utility.yul\":7425:7521   */\n    tag_130:\n        /* \"#utility.yul\":7462:7469   */\n      0x00\n        /* \"#utility.yul\":7491:7515   */\n      tag_191\n        /* \"#utility.yul\":7509:7514   */\n      dup3\n        /* \"#utility.yul\":7491:7515   */\n      tag_192\n      jump\t// in\n    tag_191:\n        /* \"#utility.yul\":7480:7515   */\n      swap1\n      pop\n        /* \"#utility.yul\":7425:7521   */\n      swap2\n      swap1\n      pop\n      jump\t// out\n        /* \"#utility.yul\":7527:7603   */\n    tag_174:\n        /* \"#utility.yul\":7563:7570   */\n      0x00\n        /* \"#utility.yul\":7592:7597   */\n      dup2\n        /* \"#utility.yul\":7581:7597   */\n      swap1\n      pop\n        /* \"#utility.yul\":7527:7603   */\n      swap2\n      swap1\n      pop\n      jump\t// out\n        /* \"#utility.yul\":7609:7735   */\n    tag_192:\n        /* \"#utility.yul\":7646:7653   */\n      0x00\n        /* \"#utility.yul\":7686:7728   */\n      0xffffffffffffffffffffffffffffffffffffffff\n        /* \"#utility.yul\":7679:7684   */\n      dup3\n        /* \"#utility.yul\":7675:7729   */\n      and\n        /* \"#utility.yul\":7664:7729   */\n      swap1\n      pop\n        /* \"#utility.yul\":7609:7735   */\n      swap2\n      swap1\n      pop\n      jump\t// out\n        /* \"#utility.yul\":7741:7818   */\n    tag_151:\n        /* \"#utility.yul\":7778:7785   */\n      0x00\n        /* \"#utility.yul\":7807:7812   */\n      dup2\n        /* \"#utility.yul\":7796:7812   */\n      swap1\n      pop\n        /* \"#utility.yul\":7741:7818   */\n      swap2\n      swap1\n      pop\n      jump\t// out\n        /* \"#utility.yul\":7824:7929   */\n    tag_196:\n        /* \"#utility.yul\":7860:7867   */\n      0x00\n        /* \"#utility.yul\":7900:7922   */\n      0xffffffffffffffffffff\n        /* \"#utility.yul\":7893:7898   */\n      dup3\n        /* \"#utility.yul\":7889:7923   */\n      and\n        /* \"#utility.yul\":7878:7923   */\n      swap1\n      pop\n        /* \"#utility.yul\":7824:7929   */\n      swap2\n      swap1\n      pop\n      jump\t// out\n        /* \"#utility.yul\":7935:8168   */\n    tag_44:\n        /* \"#utility.yul\":7974:7977   */\n      0x00\n        /* \"#utility.yul\":7997:8021   */\n      tag_199\n        /* \"#utility.yul\":8015:8020   */\n      dup3\n        /* \"#utility.yul\":7997:8021   */\n      tag_151\n      jump\t// in\n    tag_199:\n        /* \"#utility.yul\":7988:8021   */\n      swap2\n      pop\n        /* \"#utility.yul\":8043:8109   */\n      0xffffffffffffffffffffffffffffffffffffffffffffffffffffffffffffffff\n        /* \"#utility.yul\":8036:8041   */\n      dup3\n        /* \"#utility.yul\":8033:8110   */\n      eq\n        /* \"#utility.yul\":8030:8133   */\n      iszero\n      tag_200\n      jumpi\n        /* \"#utility.yul\":8113:8131   */\n      tag_201\n      tag_178\n      jump\t// in\n    tag_201:\n        /* \"#utility.yul\":8030:8133   */\n    tag_200:\n        /* \"#utility.yul\":8160:8161   */\n      0x01\n        /* \"#utility.yul\":8153:8158   */\n      dup3\n        /* \"#utility.yul\":8149:8162   */\n      add\n        /* \"#utility.yul\":8142:8162   */\n      swap1\n      pop\n        /* \"#utility.yul\":7935:8168   */\n      swap2\n      swap1\n      pop\n      jump\t// out\n        /* \"#utility.yul\":8174:8354   */\n    tag_178:\n        /* \"#utility.yul\":8222:8299   */\n      0x4e487b7100000000000000000000000000000000000000000000000000000000\n        /* \"#utility.yul\":8219:8220   */\n      0x00\n        /* \"#utility.yul\":8212:8300   */\n      mstore\n        /* \"#utility.yul\":8319:8323   */\n      0x11\n        /* \"#utility.yul\":8316:8317   */\n      0x04\n        /* \"#utility.yul\":8309:8324   */\n      mstore\n        /* \"#utility.yul\":8343:8347   */\n      0x24\n        /* \"#utility.yul\":8340:8341   */\n      0x00\n        /* \"#utility.yul\":8333:8348   */\n      revert\n        /* \"#utility.yul\":8360:8540   */\n    tag_171:\n        /* \"#utility.yul\":8408:8485   */\n      0x4e487b7100000000000000000000000000000000000000000000000000000000\n        /* \"#utility.yul\":8405:8406   */\n      0x00\n        /* \"#utility.yul\":8398:8486   */\n      mstore\n        /* \"#utility.yul\":8505:8509   */\n      0x12\n        /* \"#utility.yul\":8502:8503   */\n      0x04\n        /* \"#utility.yul\":8495:8510   */\n      mstore\n        /* \"#utility.yul\":8529:8533   */\n      0x24\n        /* \"#utility.yul\":8526:8527   */\n      0x00\n        /* \"#utility.yul\":8519:8534   */\n      revert\n        /* \"#utility.yul\":8546:8726   */\n    tag_41:\n        /* \"#utility.yul\":8594:8671   */\n      0x4e487b7100000000000000000000000000000000000000000000000000000000\n        /* \"#utility.yul\":8591:8592   */\n      0x00\n        /* \"#utility.yul\":8584:8672   */\n      mstore\n        /* \"#utility.yul\":8691:8695   */\n      0x32\n        /* \"#utility.yul\":8688:8689   */\n      0x04\n        /* \"#utility.yul\":8681:8696   */\n      mstore\n        /* \"#utility.yul\":8715:8719   */\n      0x24\n        /* \"#utility.yul\":8712:8713   */\n      0x00\n        /* \"#utility.yul\":8705:8720   */\n      revert\n        /* \"#utility.yul\":8732:8912   */\n    tag_47:\n        /* \"#utility.yul\":8780:8857   */\n      0x4e487b7100000000000000000000000000000000000000000000000000000000\n        /* \"#utility.yul\":8777:8778   */\n      0x00\n        /* \"#utility.yul\":8770:8858   */\n      mstore\n        /* \"#utility.yul\":8877:8881   */\n      0x41\n        /* \"#utility.yul\":8874:8875   */\n      0x04\n        /* \"#utility.yul\":8867:8882   */\n      mstore\n        /* \"#utility.yul\":8901:8905   */\n      0x24\n        /* \"#utility.yul\":8898:8899   */\n      0x00\n        /* \"#utility.yul\":8891:8906   */\n      revert\n        /* \"#utility.yul\":9041:9158   */\n    tag_113:\n        /* \"#utility.yul\":9150:9151   */\n      0x00\n        /* \"#utility.yul\":9147:9148   */\n      dup1\n        /* \"#utility.yul\":9140:9152   */\n      revert\n        /* \"#utility.yul\":9164:9325   */\n    tag_136:\n        /* \"#utility.yul\":9304:9317   */\n      0x43616c6c206661696c6564000000000000000000000000000000000000000000\n        /* \"#utility.yul\":9300:9301   */\n      0x00\n        /* \"#utility.yul\":9292:9298   */\n      dup3\n        /* \"#utility.yul\":9288:9302   */\n      add\n        /* \"#utility.yul\":9281:9318   */\n      mstore\n        /* \"#utility.yul\":9164:9325   */\n      pop\n      jump\t// out\n        /* \"#utility.yul\":9331:9499   */\n    tag_141:\n        /* \"#utility.yul\":9471:9491   */\n      0x4469646e27742073656e6420656e6f7567680000000000000000000000000000\n        /* \"#utility.yul\":9467:9468   */\n      0x00\n        /* \"#utility.yul\":9459:9465   */\n      dup3\n        /* \"#utility.yul\":9455:9469   */\n      add\n        /* \"#utility.yul\":9448:9492   */\n      mstore\n        /* \"#utility.yul\":9331:9499   */\n      pop\n      jump\t// out\n        /* \"#utility.yul\":9505:9619   */\n    tag_147:\n      pop\n      jump\t// out\n        /* \"#utility.yul\":9625:9747   */\n    tag_94:\n        /* \"#utility.yul\":9698:9722   */\n      tag_213\n        /* \"#utility.yul\":9716:9721   */\n      dup2\n        /* \"#utility.yul\":9698:9722   */\n      tag_130\n      jump\t// in\n    tag_213:\n        /* \"#utility.yul\":9691:9696   */\n      dup2\n        /* \"#utility.yul\":9688:9723   */\n      eq\n        /* \"#utility.yul\":9678:9741   */\n      tag_214\n      jumpi\n        /* \"#utility.yul\":9737:9738   */\n      0x00\n        /* \"#utility.yul\":9734:9735   */\n      dup1\n        /* \"#utility.yul\":9727:9739   */\n      revert\n        /* \"#utility.yul\":9678:9741   */\n    tag_214:\n        /* \"#utility.yul\":9625:9747   */\n      pop\n      jump\t// out\n        /* \"#utility.yul\":9753:9873   */\n    tag_98:\n        /* \"#utility.yul\":9825:9848   */\n      tag_216\n        /* \"#utility.yul\":9842:9847   */\n      dup2\n        /* \"#utility.yul\":9825:9848   */\n      tag_174\n      jump\t// in\n    tag_216:\n        /* \"#utility.yul\":9818:9823   */\n      dup2\n        /* \"#utility.yul\":9815:9849   */\n      eq\n        /* \"#utility.yul\":9805:9867   */\n      tag_217\n      jumpi\n        /* \"#utility.yul\":9863:9864   */\n      0x00\n        /* \"#utility.yul\":9860:9861   */\n      dup1\n        /* \"#utility.yul\":9853:9865   */\n      revert\n        /* \"#utility.yul\":9805:9867   */\n    tag_217:\n        /* \"#utility.yul\":9753:9873   */\n      pop\n      jump\t// out\n        /* \"#utility.yul\":9879:10001   */\n    tag_102:\n        /* \"#utility.yul\":9952:9976   */\n      tag_219\n        /* \"#utility.yul\":9970:9975   */\n      dup2\n        /* \"#utility.yul\":9952:9976   */\n      tag_151\n      jump\t// in\n    tag_219:\n        /* \"#utility.yul\":9945:9950   */\n      dup2\n        /* \"#utility.yul\":9942:9977   */\n      eq\n        /* \"#utility.yul\":9932:9995   */\n      tag_220\n      jumpi\n        /* \"#utility.yul\":9991:9992   */\n      0x00\n        /* \"#utility.yul\":9988:9989   */\n      dup1\n        /* \"#utility.yul\":9981:9993   */\n      revert\n        /* \"#utility.yul\":9932:9995   */\n    tag_220:\n        /* \"#utility.yul\":9879:10001   */\n      pop\n      jump\t// out\n        /* \"#utility.yul\":10007:10127   */\n    tag_109:\n        /* \"#utility.yul\":10079:10102   */\n      tag_222\n        /* \"#utility.yul\":10096:10101   */\n      dup2\n        /* \"#utility.yul\":10079:10102   */\n      tag_196\n      jump\t// in\n    tag_222:\n        /* \"#utility.yul\":10072:10077   */\n      dup2\n        /* \"#utility.yul\":10069:10103   */\n      eq\n        /* \"#utility.yul\":10059:10121   */\n      tag_223\n      jumpi\n        /* \"#utility.yul\":10117:10118   */\n      0x00\n        /* \"#utility.yul\":10114:10115   */\n      dup1\n        /* \"#utility.yul\":10107:10119   */\n      revert\n        /* \"#utility.yul\":10059:10121   */\n    tag_223:\n        /* \"#utility.yul\":10007:10127   */\n      pop\n      jump\t// out\n\n    auxdata: 0xa26469706673582212208fa0f88461f2a46529c2f3ca15c5c28560548dd6a6ecbd74cdca68bbeb97bc2a64736f6c63430008070033\n}\n",
				"bytecode": {
					"linkReferences": {},
					"object": "60a060405234801561001057600080fd5b503373ffffffffffffffffffffffffffffffffffffffff1660808173ffffffffffffffffffffffffffffffffffffffff1660601b8152505060805160601c610c7f610066600039600061032d0152610c7f6000f3fe6080604052600436106100555760003560e01c80633ccfd60b1461005a5780633e47d6f3146100715780636b69a592146100ae5780638da5cb5b146100d9578063b60d428814610104578063dc0d3dff1461010e575b600080fd5b34801561006657600080fd5b5061006f61014b565b005b34801561007d57600080fd5b506100986004803603810190610093919061068d565b610306565b6040516100a59190610859565b60405180910390f35b3480156100ba57600080fd5b506100c361031e565b6040516100d09190610859565b60405180910390f35b3480156100e557600080fd5b506100ee61032b565b6040516100fb91906107fe565b60405180910390f35b61010c61034f565b005b34801561011a57600080fd5b50610135600480360381019061013091906106ba565b61044c565b60405161014291906107fe565b60405180910390f35b60005b6000805490508110156101f65760008082815481106101705761016f610b35565b5b9060005260206000200160009054906101000a900473ffffffffffffffffffffffffffffffffffffffff1690506000600160008373ffffffffffffffffffffffffffffffffffffffff1673ffffffffffffffffffffffffffffffffffffffff168152602001908152602001600020819055505080806101ee90610a8e565b91505061014e565b50600067ffffffffffffffff81111561021257610211610b64565b5b6040519080825280602002602001820160405280156102405781602001602082028036833780820191505090505b506000908051906020019061025692919061057d565b5060003373ffffffffffffffffffffffffffffffffffffffff164760405161027d906107e9565b60006040518083038185875af1925050503d80600081146102ba576040519150601f19603f3d011682016040523d82523d6000602084013e6102bf565b606091505b5050905080610303576040517f08c379a00000000000000000000000000000000000000000000000000000000081526004016102fa90610819565b60405180910390fd5b50565b60016020528060005260406000206000915090505481565b6802b5e3af16b188000081565b7f000000000000000000000000000000000000000000000000000000000000000081565b6802b5e3af16b18800006103623461048b565b10156103a3576040517f08c379a000000000000000000000000000000000000000000000000000000000815260040161039a90610839565b60405180910390fd5b6000339080600181540180825580915050600190039060005260206000200160009091909190916101000a81548173ffffffffffffffffffffffffffffffffffffffff021916908373ffffffffffffffffffffffffffffffffffffffff16021790555034600160003373ffffffffffffffffffffffffffffffffffffffff1673ffffffffffffffffffffffffffffffffffffffff16815260200190815260200160002081905550565b6000818154811061045c57600080fd5b906000526020600020016000915054906101000a900473ffffffffffffffffffffffffffffffffffffffff1681565b6000806104966104c5565b90506000670de0b6b3a764000084836104af91906109d8565b6104b99190610890565b90508092505050919050565b600080738a753747a1fa494ec906ce90e9f37563a8af630e905060008173ffffffffffffffffffffffffffffffffffffffff1663feaf968c6040518163ffffffff1660e01b815260040160a06040518083038186803b15801561052757600080fd5b505afa15801561053b573d6000803e3d6000fd5b505050506040513d601f19601f8201168201806040525081019061055f91906106e7565b5050509150506402540be4008161057691906108c1565b9250505090565b8280548282559060005260206000209081019282156105f6579160200282015b828111156105f55782518260006101000a81548173ffffffffffffffffffffffffffffffffffffffff021916908373ffffffffffffffffffffffffffffffffffffffff1602179055509160200191906001019061059d565b5b5090506106039190610607565b5090565b5b80821115610620576000816000905550600101610608565b5090565b60008135905061063381610bed565b92915050565b60008151905061064881610c04565b92915050565b60008135905061065d81610c1b565b92915050565b60008151905061067281610c1b565b92915050565b60008151905061068781610c32565b92915050565b6000602082840312156106a3576106a2610b93565b5b60006106b184828501610624565b91505092915050565b6000602082840312156106d0576106cf610b93565b5b60006106de8482850161064e565b91505092915050565b600080600080600060a0868803121561070357610702610b93565b5b600061071188828901610678565b955050602061072288828901610639565b945050604061073388828901610663565b935050606061074488828901610663565b925050608061075588828901610678565b9150509295509295909350565b61076b81610a32565b82525050565b600061077e600b8361087f565b915061078982610b98565b602082019050919050565b60006107a160128361087f565b91506107ac82610bc1565b602082019050919050565b60006107c4600083610874565b91506107cf82610bea565b600082019050919050565b6107e381610a6e565b82525050565b60006107f4826107b7565b9150819050919050565b60006020820190506108136000830184610762565b92915050565b6000602082019050818103600083015261083281610771565b9050919050565b6000602082019050818103600083015261085281610794565b9050919050565b600060208201905061086e60008301846107da565b92915050565b600081905092915050565b600082825260208201905092915050565b600061089b82610a6e565b91506108a683610a6e565b9250826108b6576108b5610b06565b5b828204905092915050565b60006108cc82610a44565b91506108d783610a44565b9250827f7fffffffffffffffffffffffffffffffffffffffffffffffffffffffffffffff048211600084136000841316161561091657610915610ad7565b5b817f8000000000000000000000000000000000000000000000000000000000000000058312600084126000841316161561095357610952610ad7565b5b827f800000000000000000000000000000000000000000000000000000000000000005821260008413600084121616156109905761098f610ad7565b5b827f7fffffffffffffffffffffffffffffffffffffffffffffffffffffffffffffff05821260008412600084121616156109cd576109cc610ad7565b5b828202905092915050565b60006109e382610a6e565b91506109ee83610a6e565b9250817fffffffffffffffffffffffffffffffffffffffffffffffffffffffffffffffff0483118215151615610a2757610a26610ad7565b5b828202905092915050565b6000610a3d82610a4e565b9050919050565b6000819050919050565b600073ffffffffffffffffffffffffffffffffffffffff82169050919050565b6000819050919050565b600069ffffffffffffffffffff82169050919050565b6000610a9982610a6e565b91507fffffffffffffffffffffffffffffffffffffffffffffffffffffffffffffffff821415610acc57610acb610ad7565b5b600182019050919050565b7f4e487b7100000000000000000000000000000000000000000000000000000000600052601160045260246000fd5b7f4e487b7100000000000000000000000000000000000000000000000000000000600052601260045260246000fd5b7f4e487b7100000000000000000000000000000000000000000000000000000000600052603260045260246000fd5b7f4e487b7100000000000000000000000000000000000000000000000000000000600052604160045260246000fd5b600080fd5b7f43616c6c206661696c6564000000000000000000000000000000000000000000600082015250565b7f4469646e27742073656e6420656e6f7567680000000000000000000000000000600082015250565b50565b610bf681610a32565b8114610c0157600080fd5b50565b610c0d81610a44565b8114610c1857600080fd5b50565b610c2481610a6e565b8114610c2f57600080fd5b50565b610c3b81610a78565b8114610c4657600080fd5b5056fea26469706673582212208fa0f88461f2a46529c2f3ca15c5c28560548dd6a6ecbd74cdca68bbeb97bc2a64736f6c63430008070033",
					"opcodes": "PUSH1 0xA0 PUSH1 0x40 MSTORE CALLVALUE DUP1 ISZERO PUSH2 0x10 JUMPI PUSH1 0x0 DUP1 REVERT JUMPDEST POP CALLER PUSH20 0xFFFFFFFFFFFFFFFFFFFFFFFFFFFFFFFFFFFFFFFF AND PUSH1 0x80 DUP2 PUSH20 0xFFFFFFFFFFFFFFFFFFFFFFFFFFFFFFFFFFFFFFFF AND PUSH1 0x60 SHL DUP2 MSTORE POP POP PUSH1 0x80 MLOAD PUSH1 0x60 SHR PUSH2 0xC7F PUSH2 0x66 PUSH1 0x0 CODECOPY PUSH1 0x0 PUSH2 0x32D ADD MSTORE PUSH2 0xC7F PUSH1 0x0 RETURN INVALID PUSH1 0x80 PUSH1 0x40 MSTORE PUSH1 0x4 CALLDATASIZE LT PUSH2 0x55 JUMPI PUSH1 0x0 CALLDATALOAD PUSH1 0xE0 SHR DUP1 PUSH4 0x3CCFD60B EQ PUSH2 0x5A JUMPI DUP1 PUSH4 0x3E47D6F3 EQ PUSH2 0x71 JUMPI DUP1 PUSH4 0x6B69A592 EQ PUSH2 0xAE JUMPI DUP1 PUSH4 0x8DA5CB5B EQ PUSH2 0xD9 JUMPI DUP1 PUSH4 0xB60D4288 EQ PUSH2 0x104 JUMPI DUP1 PUSH4 0xDC0D3DFF EQ PUSH2 0x10E JUMPI JUMPDEST PUSH1 0x0 DUP1 REVERT JUMPDEST CALLVALUE DUP1 ISZERO PUSH2 0x66 JUMPI PUSH1 0x0 DUP1 REVERT JUMPDEST POP PUSH2 0x6F PUSH2 0x14B JUMP JUMPDEST STOP JUMPDEST CALLVALUE DUP1 ISZERO PUSH2 0x7D JUMPI PUSH1 0x0 DUP1 REVERT JUMPDEST POP PUSH2 0x98 PUSH1 0x4 DUP1 CALLDATASIZE SUB DUP2 ADD SWAP1 PUSH2 0x93 SWAP2 SWAP1 PUSH2 0x68D JUMP JUMPDEST PUSH2 0x306 JUMP JUMPDEST PUSH1 0x40 MLOAD PUSH2 0xA5 SWAP2 SWAP1 PUSH2 0x859 JUMP JUMPDEST PUSH1 0x40 MLOAD DUP1 SWAP2 SUB SWAP1 RETURN JUMPDEST CALLVALUE DUP1 ISZERO PUSH2 0xBA JUMPI PUSH1 0x0 DUP1 REVERT JUMPDEST POP PUSH2 0xC3 PUSH2 0x31E JUMP JUMPDEST PUSH1 0x40 MLOAD PUSH2 0xD0 SWAP2 SWAP1 PUSH2 0x859 JUMP JUMPDEST PUSH1 0x40 MLOAD DUP1 SWAP2 SUB SWAP1 RETURN JUMPDEST CALLVALUE DUP1 ISZERO PUSH2 0xE5 JUMPI PUSH1 0x0 DUP1 REVERT JUMPDEST POP PUSH2 0xEE PUSH2 0x32B JUMP JUMPDEST PUSH1 0x40 MLOAD PUSH2 0xFB SWAP2 SWAP1 PUSH2 0x7FE JUMP JUMPDEST PUSH1 0x40 MLOAD DUP1 SWAP2 SUB SWAP1 RETURN JUMPDEST PUSH2 0x10C PUSH2 0x34F JUMP JUMPDEST STOP JUMPDEST CALLVALUE DUP1 ISZERO PUSH2 0x11A JUMPI PUSH1 0x0 DUP1 REVERT JUMPDEST POP PUSH2 0x135 PUSH1 0x4 DUP1 CALLDATASIZE SUB DUP2 ADD SWAP1 PUSH2 0x130 SWAP2 SWAP1 PUSH2 0x6BA JUMP JUMPDEST PUSH2 0x44C JUMP JUMPDEST PUSH1 0x40 MLOAD PUSH2 0x142 SWAP2 SWAP1 PUSH2 0x7FE JUMP JUMPDEST PUSH1 0x40 MLOAD DUP1 SWAP2 SUB SWAP1 RETURN JUMPDEST PUSH1 0x0 JUMPDEST PUSH1 0x0 DUP1 SLOAD SWAP1 POP DUP2 LT ISZERO PUSH2 0x1F6 JUMPI PUSH1 0x0 DUP1 DUP3 DUP2 SLOAD DUP2 LT PUSH2 0x170 JUMPI PUSH2 0x16F PUSH2 0xB35 JUMP JUMPDEST JUMPDEST SWAP1 PUSH1 0x0 MSTORE PUSH1 0x20 PUSH1 0x0 KECCAK256 ADD PUSH1 0x0 SWAP1 SLOAD SWAP1 PUSH2 0x100 EXP SWAP1 DIV PUSH20 0xFFFFFFFFFFFFFFFFFFFFFFFFFFFFFFFFFFFFFFFF AND SWAP1 POP PUSH1 0x0 PUSH1 0x1 PUSH1 0x0 DUP4 PUSH20 0xFFFFFFFFFFFFFFFFFFFFFFFFFFFFFFFFFFFFFFFF AND PUSH20 0xFFFFFFFFFFFFFFFFFFFFFFFFFFFFFFFFFFFFFFFF AND DUP2 MSTORE PUSH1 0x20 ADD SWAP1 DUP2 MSTORE PUSH1 0x20 ADD PUSH1 0x0 KECCAK256 DUP2 SWAP1 SSTORE POP POP DUP1 DUP1 PUSH2 0x1EE SWAP1 PUSH2 0xA8E JUMP JUMPDEST SWAP2 POP POP PUSH2 0x14E JUMP JUMPDEST POP PUSH1 0x0 PUSH8 0xFFFFFFFFFFFFFFFF DUP2 GT ISZERO PUSH2 0x212 JUMPI PUSH2 0x211 PUSH2 0xB64 JUMP JUMPDEST JUMPDEST PUSH1 0x40 MLOAD SWAP1 DUP1 DUP3 MSTORE DUP1 PUSH1 0x20 MUL PUSH1 0x20 ADD DUP3 ADD PUSH1 0x40 MSTORE DUP1 ISZERO PUSH2 0x240 JUMPI DUP2 PUSH1 0x20 ADD PUSH1 0x20 DUP3 MUL DUP1 CALLDATASIZE DUP4 CALLDATACOPY DUP1 DUP3 ADD SWAP2 POP POP SWAP1 POP JUMPDEST POP PUSH1 0x0 SWAP1 DUP1 MLOAD SWAP1 PUSH1 0x20 ADD SWAP1 PUSH2 0x256 SWAP3 SWAP2 SWAP1 PUSH2 0x57D JUMP JUMPDEST POP PUSH1 0x0 CALLER PUSH20 0xFFFFFFFFFFFFFFFFFFFFFFFFFFFFFFFFFFFFFFFF AND SELFBALANCE PUSH1 0x40 MLOAD PUSH2 0x27D SWAP1 PUSH2 0x7E9 JUMP JUMPDEST PUSH1 0x0 PUSH1 0x40 MLOAD DUP1 DUP4 SUB DUP2 DUP6 DUP8 GAS CALL SWAP3 POP POP POP RETURNDATASIZE DUP1 PUSH1 0x0 DUP2 EQ PUSH2 0x2BA JUMPI PUSH1 0x40 MLOAD SWAP2 POP PUSH1 0x1F NOT PUSH1 0x3F RETURNDATASIZE ADD AND DUP3 ADD PUSH1 0x40 MSTORE RETURNDATASIZE DUP3 MSTORE RETURNDATASIZE PUSH1 0x0 PUSH1 0x20 DUP5 ADD RETURNDATACOPY PUSH2 0x2BF JUMP JUMPDEST PUSH1 0x60 SWAP2 POP JUMPDEST POP POP SWAP1 POP DUP1 PUSH2 0x303 JUMPI PUSH1 0x40 MLOAD PUSH32 0x8C379A000000000000000000000000000000000000000000000000000000000 DUP2 MSTORE PUSH1 0x4 ADD PUSH2 0x2FA SWAP1 PUSH2 0x819 JUMP JUMPDEST PUSH1 0x40 MLOAD DUP1 SWAP2 SUB SWAP1 REVERT JUMPDEST POP JUMP JUMPDEST PUSH1 0x1 PUSH1 0x20 MSTORE DUP1 PUSH1 0x0 MSTORE PUSH1 0x40 PUSH1 0x0 KECCAK256 PUSH1 0x0 SWAP2 POP SWAP1 POP SLOAD DUP2 JUMP JUMPDEST PUSH9 0x2B5E3AF16B1880000 DUP2 JUMP JUMPDEST PUSH32 0x0 DUP2 JUMP JUMPDEST PUSH9 0x2B5E3AF16B1880000 PUSH2 0x362 CALLVALUE PUSH2 0x48B JUMP JUMPDEST LT ISZERO PUSH2 0x3A3 JUMPI PUSH1 0x40 MLOAD PUSH32 0x8C379A000000000000000000000000000000000000000000000000000000000 DUP2 MSTORE PUSH1 0x4 ADD PUSH2 0x39A SWAP1 PUSH2 0x839 JUMP JUMPDEST PUSH1 0x40 MLOAD DUP1 SWAP2 SUB SWAP1 REVERT JUMPDEST PUSH1 0x0 CALLER SWAP1 DUP1 PUSH1 0x1 DUP2 SLOAD ADD DUP1 DUP3 SSTORE DUP1 SWAP2 POP POP PUSH1 0x1 SWAP1 SUB SWAP1 PUSH1 0x0 MSTORE PUSH1 0x20 PUSH1 0x0 KECCAK256 ADD PUSH1 0x0 SWAP1 SWAP2 SWAP1 SWAP2 SWAP1 SWAP2 PUSH2 0x100 EXP DUP2 SLOAD DUP2 PUSH20 0xFFFFFFFFFFFFFFFFFFFFFFFFFFFFFFFFFFFFFFFF MUL NOT AND SWAP1 DUP4 PUSH20 0xFFFFFFFFFFFFFFFFFFFFFFFFFFFFFFFFFFFFFFFF AND MUL OR SWAP1 SSTORE POP CALLVALUE PUSH1 0x1 PUSH1 0x0 CALLER PUSH20 0xFFFFFFFFFFFFFFFFFFFFFFFFFFFFFFFFFFFFFFFF AND PUSH20 0xFFFFFFFFFFFFFFFFFFFFFFFFFFFFFFFFFFFFFFFF AND DUP2 MSTORE PUSH1 0x20 ADD SWAP1 DUP2 MSTORE PUSH1 0x20 ADD PUSH1 0x0 KECCAK256 DUP2 SWAP1 SSTORE POP JUMP JUMPDEST PUSH1 0x0 DUP2 DUP2 SLOAD DUP2 LT PUSH2 0x45C JUMPI PUSH1 0x0 DUP1 REVERT JUMPDEST SWAP1 PUSH1 0x0 MSTORE PUSH1 0x20 PUSH1 0x0 KECCAK256 ADD PUSH1 0x0 SWAP2 POP SLOAD SWAP1 PUSH2 0x100 EXP SWAP1 DIV PUSH20 0xFFFFFFFFFFFFFFFFFFFFFFFFFFFFFFFFFFFFFFFF AND DUP2 JUMP JUMPDEST PUSH1 0x0 DUP1 PUSH2 0x496 PUSH2 0x4C5 JUMP JUMPDEST SWAP1 POP PUSH1 0x0 PUSH8 0xDE0B6B3A7640000 DUP5 DUP4 PUSH2 0x4AF SWAP2 SWAP1 PUSH2 0x9D8 JUMP JUMPDEST PUSH2 0x4B9 SWAP2 SWAP1 PUSH2 0x890 JUMP JUMPDEST SWAP1 POP DUP1 SWAP3 POP POP POP SWAP2 SWAP1 POP JUMP JUMPDEST PUSH1 0x0 DUP1 PUSH20 0x8A753747A1FA494EC906CE90E9F37563A8AF630E SWAP1 POP PUSH1 0x0 DUP2 PUSH20 0xFFFFFFFFFFFFFFFFFFFFFFFFFFFFFFFFFFFFFFFF AND PUSH4 0xFEAF968C PUSH1 0x40 MLOAD DUP2 PUSH4 0xFFFFFFFF AND PUSH1 0xE0 SHL DUP2 MSTORE PUSH1 0x4 ADD PUSH1 0xA0 PUSH1 0x40 MLOAD DUP1 DUP4 SUB DUP2 DUP7 DUP1 EXTCODESIZE ISZERO DUP1 ISZERO PUSH2 0x527 JUMPI PUSH1 0x0 DUP1 REVERT JUMPDEST POP GAS STATICCALL ISZERO DUP1 ISZERO PUSH2 0x53B JUMPI RETURNDATASIZE PUSH1 0x0 DUP1 RETURNDATACOPY RETURNDATASIZE PUSH1 0x0 REVERT JUMPDEST POP POP POP POP PUSH1 0x40 MLOAD RETURNDATASIZE PUSH1 0x1F NOT PUSH1 0x1F DUP3 ADD AND DUP3 ADD DUP1 PUSH1 0x40 MSTORE POP DUP2 ADD SWAP1 PUSH2 0x55F SWAP2 SWAP1 PUSH2 0x6E7 JUMP JUMPDEST POP POP POP SWAP2 POP POP PUSH5 0x2540BE400 DUP2 PUSH2 0x576 SWAP2 SWAP1 PUSH2 0x8C1 JUMP JUMPDEST SWAP3 POP POP POP SWAP1 JUMP JUMPDEST DUP3 DUP1 SLOAD DUP3 DUP3 SSTORE SWAP1 PUSH1 0x0 MSTORE PUSH1 0x20 PUSH1 0x0 KECCAK256 SWAP1 DUP2 ADD SWAP3 DUP3 ISZERO PUSH2 0x5F6 JUMPI SWAP2 PUSH1 0x20 MUL DUP3 ADD JUMPDEST DUP3 DUP2 GT ISZERO PUSH2 0x5F5 JUMPI DUP3 MLOAD DUP3 PUSH1 0x0 PUSH2 0x100 EXP DUP2 SLOAD DUP2 PUSH20 0xFFFFFFFFFFFFFFFFFFFFFFFFFFFFFFFFFFFFFFFF MUL NOT AND SWAP1 DUP4 PUSH20 0xFFFFFFFFFFFFFFFFFFFFFFFFFFFFFFFFFFFFFFFF AND MUL OR SWAP1 SSTORE POP SWAP2 PUSH1 0x20 ADD SWAP2 SWAP1 PUSH1 0x1 ADD SWAP1 PUSH2 0x59D JUMP JUMPDEST JUMPDEST POP SWAP1 POP PUSH2 0x603 SWAP2 SWAP1 PUSH2 0x607 JUMP JUMPDEST POP SWAP1 JUMP JUMPDEST JUMPDEST DUP1 DUP3 GT ISZERO PUSH2 0x620 JUMPI PUSH1 0x0 DUP2 PUSH1 0x0 SWAP1 SSTORE POP PUSH1 0x1 ADD PUSH2 0x608 JUMP JUMPDEST POP SWAP1 JUMP JUMPDEST PUSH1 0x0 DUP2 CALLDATALOAD SWAP1 POP PUSH2 0x633 DUP2 PUSH2 0xBED JUMP JUMPDEST SWAP3 SWAP2 POP POP JUMP JUMPDEST PUSH1 0x0 DUP2 MLOAD SWAP1 POP PUSH2 0x648 DUP2 PUSH2 0xC04 JUMP JUMPDEST SWAP3 SWAP2 POP POP JUMP JUMPDEST PUSH1 0x0 DUP2 CALLDATALOAD SWAP1 POP PUSH2 0x65D DUP2 PUSH2 0xC1B JUMP JUMPDEST SWAP3 SWAP2 POP POP JUMP JUMPDEST PUSH1 0x0 DUP2 MLOAD SWAP1 POP PUSH2 0x672 DUP2 PUSH2 0xC1B JUMP JUMPDEST SWAP3 SWAP2 POP POP JUMP JUMPDEST PUSH1 0x0 DUP2 MLOAD SWAP1 POP PUSH2 0x687 DUP2 PUSH2 0xC32 JUMP JUMPDEST SWAP3 SWAP2 POP POP JUMP JUMPDEST PUSH1 0x0 PUSH1 0x20 DUP3 DUP5 SUB SLT ISZERO PUSH2 0x6A3 JUMPI PUSH2 0x6A2 PUSH2 0xB93 JUMP JUMPDEST JUMPDEST PUSH1 0x0 PUSH2 0x6B1 DUP5 DUP3 DUP6 ADD PUSH2 0x624 JUMP JUMPDEST SWAP2 POP POP SWAP3 SWAP2 POP POP JUMP JUMPDEST PUSH1 0x0 PUSH1 0x20 DUP3 DUP5 SUB SLT ISZERO PUSH2 0x6D0 JUMPI PUSH2 0x6CF PUSH2 0xB93 JUMP JUMPDEST JUMPDEST PUSH1 0x0 PUSH2 0x6DE DUP5 DUP3 DUP6 ADD PUSH2 0x64E JUMP JUMPDEST SWAP2 POP POP SWAP3 SWAP2 POP POP JUMP JUMPDEST PUSH1 0x0 DUP1 PUSH1 0x0 DUP1 PUSH1 0x0 PUSH1 0xA0 DUP7 DUP9 SUB SLT ISZERO PUSH2 0x703 JUMPI PUSH2 0x702 PUSH2 0xB93 JUMP JUMPDEST JUMPDEST PUSH1 0x0 PUSH2 0x711 DUP9 DUP3 DUP10 ADD PUSH2 0x678 JUMP JUMPDEST SWAP6 POP POP PUSH1 0x20 PUSH2 0x722 DUP9 DUP3 DUP10 ADD PUSH2 0x639 JUMP JUMPDEST SWAP5 POP POP PUSH1 0x40 PUSH2 0x733 DUP9 DUP3 DUP10 ADD PUSH2 0x663 JUMP JUMPDEST SWAP4 POP POP PUSH1 0x60 PUSH2 0x744 DUP9 DUP3 DUP10 ADD PUSH2 0x663 JUMP JUMPDEST SWAP3 POP POP PUSH1 0x80 PUSH2 0x755 DUP9 DUP3 DUP10 ADD PUSH2 0x678 JUMP JUMPDEST SWAP2 POP POP SWAP3 SWAP6 POP SWAP3 SWAP6 SWAP1 SWAP4 POP JUMP JUMPDEST PUSH2 0x76B DUP2 PUSH2 0xA32 JUMP JUMPDEST DUP3 MSTORE POP POP JUMP JUMPDEST PUSH1 0x0 PUSH2 0x77E PUSH1 0xB DUP4 PUSH2 0x87F JUMP JUMPDEST SWAP2 POP PUSH2 0x789 DUP3 PUSH2 0xB98 JUMP JUMPDEST PUSH1 0x20 DUP3 ADD SWAP1 POP SWAP2 SWAP1 POP JUMP JUMPDEST PUSH1 0x0 PUSH2 0x7A1 PUSH1 0x12 DUP4 PUSH2 0x87F JUMP JUMPDEST SWAP2 POP PUSH2 0x7AC DUP3 PUSH2 0xBC1 JUMP JUMPDEST PUSH1 0x20 DUP3 ADD SWAP1 POP SWAP2 SWAP1 POP JUMP JUMPDEST PUSH1 0x0 PUSH2 0x7C4 PUSH1 0x0 DUP4 PUSH2 0x874 JUMP JUMPDEST SWAP2 POP PUSH2 0x7CF DUP3 PUSH2 0xBEA JUMP JUMPDEST PUSH1 0x0 DUP3 ADD SWAP1 POP SWAP2 SWAP1 POP JUMP JUMPDEST PUSH2 0x7E3 DUP2 PUSH2 0xA6E JUMP JUMPDEST DUP3 MSTORE POP POP JUMP JUMPDEST PUSH1 0x0 PUSH2 0x7F4 DUP3 PUSH2 0x7B7 JUMP JUMPDEST SWAP2 POP DUP2 SWAP1 POP SWAP2 SWAP1 POP JUMP JUMPDEST PUSH1 0x0 PUSH1 0x20 DUP3 ADD SWAP1 POP PUSH2 0x813 PUSH1 0x0 DUP4 ADD DUP5 PUSH2 0x762 JUMP JUMPDEST SWAP3 SWAP2 POP POP JUMP JUMPDEST PUSH1 0x0 PUSH1 0x20 DUP3 ADD SWAP1 POP DUP2 DUP2 SUB PUSH1 0x0 DUP4 ADD MSTORE PUSH2 0x832 DUP2 PUSH2 0x771 JUMP JUMPDEST SWAP1 POP SWAP2 SWAP1 POP JUMP JUMPDEST PUSH1 0x0 PUSH1 0x20 DUP3 ADD SWAP1 POP DUP2 DUP2 SUB PUSH1 0x0 DUP4 ADD MSTORE PUSH2 0x852 DUP2 PUSH2 0x794 JUMP JUMPDEST SWAP1 POP SWAP2 SWAP1 POP JUMP JUMPDEST PUSH1 0x0 PUSH1 0x20 DUP3 ADD SWAP1 POP PUSH2 0x86E PUSH1 0x0 DUP4 ADD DUP5 PUSH2 0x7DA JUMP JUMPDEST SWAP3 SWAP2 POP POP JUMP JUMPDEST PUSH1 0x0 DUP2 SWAP1 POP SWAP3 SWAP2 POP POP JUMP JUMPDEST PUSH1 0x0 DUP3 DUP3 MSTORE PUSH1 0x20 DUP3 ADD SWAP1 POP SWAP3 SWAP2 POP POP JUMP JUMPDEST PUSH1 0x0 PUSH2 0x89B DUP3 PUSH2 0xA6E JUMP JUMPDEST SWAP2 POP PUSH2 0x8A6 DUP4 PUSH2 0xA6E JUMP JUMPDEST SWAP3 POP DUP3 PUSH2 0x8B6 JUMPI PUSH2 0x8B5 PUSH2 0xB06 JUMP JUMPDEST JUMPDEST DUP3 DUP3 DIV SWAP1 POP SWAP3 SWAP2 POP POP JUMP JUMPDEST PUSH1 0x0 PUSH2 0x8CC DUP3 PUSH2 0xA44 JUMP JUMPDEST SWAP2 POP PUSH2 0x8D7 DUP4 PUSH2 0xA44 JUMP JUMPDEST SWAP3 POP DUP3 PUSH32 0x7FFFFFFFFFFFFFFFFFFFFFFFFFFFFFFFFFFFFFFFFFFFFFFFFFFFFFFFFFFFFFFF DIV DUP3 GT PUSH1 0x0 DUP5 SGT PUSH1 0x0 DUP5 SGT AND AND ISZERO PUSH2 0x916 JUMPI PUSH2 0x915 PUSH2 0xAD7 JUMP JUMPDEST JUMPDEST DUP2 PUSH32 0x8000000000000000000000000000000000000000000000000000000000000000 SDIV DUP4 SLT PUSH1 0x0 DUP5 SLT PUSH1 0x0 DUP5 SGT AND AND ISZERO PUSH2 0x953 JUMPI PUSH2 0x952 PUSH2 0xAD7 JUMP JUMPDEST JUMPDEST DUP3 PUSH32 0x8000000000000000000000000000000000000000000000000000000000000000 SDIV DUP3 SLT PUSH1 0x0 DUP5 SGT PUSH1 0x0 DUP5 SLT AND AND ISZERO PUSH2 0x990 JUMPI PUSH2 0x98F PUSH2 0xAD7 JUMP JUMPDEST JUMPDEST DUP3 PUSH32 0x7FFFFFFFFFFFFFFFFFFFFFFFFFFFFFFFFFFFFFFFFFFFFFFFFFFFFFFFFFFFFFFF SDIV DUP3 SLT PUSH1 0x0 DUP5 SLT PUSH1 0x0 DUP5 SLT AND AND ISZERO PUSH2 0x9CD JUMPI PUSH2 0x9CC PUSH2 0xAD7 JUMP JUMPDEST JUMPDEST DUP3 DUP3 MUL SWAP1 POP SWAP3 SWAP2 POP POP JUMP JUMPDEST PUSH1 0x0 PUSH2 0x9E3 DUP3 PUSH2 0xA6E JUMP JUMPDEST SWAP2 POP PUSH2 0x9EE DUP4 PUSH2 0xA6E JUMP JUMPDEST SWAP3 POP DUP2 PUSH32 0xFFFFFFFFFFFFFFFFFFFFFFFFFFFFFFFFFFFFFFFFFFFFFFFFFFFFFFFFFFFFFFFF DIV DUP4 GT DUP3 ISZERO ISZERO AND ISZERO PUSH2 0xA27 JUMPI PUSH2 0xA26 PUSH2 0xAD7 JUMP JUMPDEST JUMPDEST DUP3 DUP3 MUL SWAP1 POP SWAP3 SWAP2 POP POP JUMP JUMPDEST PUSH1 0x0 PUSH2 0xA3D DUP3 PUSH2 0xA4E JUMP JUMPDEST SWAP1 POP SWAP2 SWAP1 POP JUMP JUMPDEST PUSH1 0x0 DUP2 SWAP1 POP SWAP2 SWAP1 POP JUMP JUMPDEST PUSH1 0x0 PUSH20 0xFFFFFFFFFFFFFFFFFFFFFFFFFFFFFFFFFFFFFFFF DUP3 AND SWAP1 POP SWAP2 SWAP1 POP JUMP JUMPDEST PUSH1 0x0 DUP2 SWAP1 POP SWAP2 SWAP1 POP JUMP JUMPDEST PUSH1 0x0 PUSH10 0xFFFFFFFFFFFFFFFFFFFF DUP3 AND SWAP1 POP SWAP2 SWAP1 POP JUMP JUMPDEST PUSH1 0x0 PUSH2 0xA99 DUP3 PUSH2 0xA6E JUMP JUMPDEST SWAP2 POP PUSH32 0xFFFFFFFFFFFFFFFFFFFFFFFFFFFFFFFFFFFFFFFFFFFFFFFFFFFFFFFFFFFFFFFF DUP3 EQ ISZERO PUSH2 0xACC JUMPI PUSH2 0xACB PUSH2 0xAD7 JUMP JUMPDEST JUMPDEST PUSH1 0x1 DUP3 ADD SWAP1 POP SWAP2 SWAP1 POP JUMP JUMPDEST PUSH32 0x4E487B7100000000000000000000000000000000000000000000000000000000 PUSH1 0x0 MSTORE PUSH1 0x11 PUSH1 0x4 MSTORE PUSH1 0x24 PUSH1 0x0 REVERT JUMPDEST PUSH32 0x4E487B7100000000000000000000000000000000000000000000000000000000 PUSH1 0x0 MSTORE PUSH1 0x12 PUSH1 0x4 MSTORE PUSH1 0x24 PUSH1 0x0 REVERT JUMPDEST PUSH32 0x4E487B7100000000000000000000000000000000000000000000000000000000 PUSH1 0x0 MSTORE PUSH1 0x32 PUSH1 0x4 MSTORE PUSH1 0x24 PUSH1 0x0 REVERT JUMPDEST PUSH32 0x4E487B7100000000000000000000000000000000000000000000000000000000 PUSH1 0x0 MSTORE PUSH1 0x41 PUSH1 0x4 MSTORE PUSH1 0x24 PUSH1 0x0 REVERT JUMPDEST PUSH1 0x0 DUP1 REVERT JUMPDEST PUSH32 0x43616C6C206661696C6564000000000000000000000000000000000000000000 PUSH1 0x0 DUP3 ADD MSTORE POP JUMP JUMPDEST PUSH32 0x4469646E27742073656E6420656E6F7567680000000000000000000000000000 PUSH1 0x0 DUP3 ADD MSTORE POP JUMP JUMPDEST POP JUMP JUMPDEST PUSH2 0xBF6 DUP2 PUSH2 0xA32 JUMP JUMPDEST DUP2 EQ PUSH2 0xC01 JUMPI PUSH1 0x0 DUP1 REVERT JUMPDEST POP JUMP JUMPDEST PUSH2 0xC0D DUP2 PUSH2 0xA44 JUMP JUMPDEST DUP2 EQ PUSH2 0xC18 JUMPI PUSH1 0x0 DUP1 REVERT JUMPDEST POP JUMP JUMPDEST PUSH2 0xC24 DUP2 PUSH2 0xA6E JUMP JUMPDEST DUP2 EQ PUSH2 0xC2F JUMPI PUSH1 0x0 DUP1 REVERT JUMPDEST POP JUMP JUMPDEST PUSH2 0xC3B DUP2 PUSH2 0xA78 JUMP JUMPDEST DUP2 EQ PUSH2 0xC46 JUMPI PUSH1 0x0 DUP1 REVERT JUMPDEST POP JUMP INVALID LOG2 PUSH5 0x6970667358 0x22 SLT KECCAK256 DUP16 LOG0 0xF8 DUP5 PUSH2 0xF2A4 PUSH6 0x29C2F3CA15C5 0xC2 DUP6 PUSH1 0x54 DUP14 0xD6 0xA6 0xEC 0xBD PUSH21 0xCDCA68BBEB97BC2A64736F6C634300080700330000 "
				},
				"gasEstimates": {
					"creation": {
						"codeDepositCost": "639800",
						"executionCost": "infinite",
						"totalCost": "infinite"
					},
					"external": {
						"MINIMUM_USD()": "351",
						"addressToAmountFunded(address)": "2814",
						"fund()": "infinite",
						"funders(uint256)": "5044",
						"owner()": "infinite",
						"withdraw()": "infinite"
					}
				},
				"methodIdentifiers": {
					"MINIMUM_USD()": "6b69a592",
					"addressToAmountFunded(address)": "3e47d6f3",
					"fund()": "b60d4288",
					"funders(uint256)": "dc0d3dff",
					"owner()": "8da5cb5b",
					"withdraw()": "3ccfd60b"
				}
			},
			"storageLayout": {
				"storage": [
					{
						"astId": 61,
						"contract": "FundMe.sol:FundMe",
						"label": "funders",
						"offset": 0,
						"slot": "0",
						"type": "t_array(t_address)dyn_storage"
					},
					{
						"astId": 65,
						"contract": "FundMe.sol:FundMe",
						"label": "addressToAmountFunded",
						"offset": 0,
						"slot": "1",
						"type": "t_mapping(t_address,t_uint256)"
					}
				],
				"types": {
					"t_address": {
						"encoding": "inplace",
						"label": "address",
						"numberOfBytes": "20"
					},
					"t_array(t_address)dyn_storage": {
						"base": "t_address",
						"encoding": "dynamic_array",
						"label": "address[]",
						"numberOfBytes": "32"
					},
					"t_mapping(t_address,t_uint256)": {
						"encoding": "mapping",
						"key": "t_address",
						"label": "mapping(address => uint256)",
						"numberOfBytes": "32",
						"value": "t_uint256"
					},
					"t_uint256": {
						"encoding": "inplace",
						"label": "uint256",
						"numberOfBytes": "32"
					}
				}
			},
			"userdoc": {
				"kind": "user",
				"methods": {},
				"version": 1
			}
		}
	}
}